:020000040800F2
:10000000580500209D010008CF13000825120008A4
:10001000CD130008D5030008A11B00080000000054
:10002000000000000000000000000000A116000811
:10003000D7030008000000002D020008A5160008E4
:10004000B7010008B7010008B7010008B7010008B0
:10005000B7010008B7010008B7010008B7010008A0
:10006000B7010008B7010008B7010008B701000890
:10007000B7010008B7010008B7010008B701000880
:10008000B7010008B7010008B7010008B701000870
:10009000B7010008B7010008B7010008B701000860
:1000A000B7010008B7010008B7010008B701000850
:1000B000B7010008B7010008B7010008B701000840
:1000C000B7010008B7010008B7010008B701000830
:1000D000B7010008B7010008B7010008B701000820
:1000E000B7010008B7010008B7010008B701000810
:1000F000B7010008B7010008B7010008B701000800
:10010000B7010008B7010008B7010008B7010008EF
:10011000B7010008B7010008B7010008B7010008DF
:10012000B7010008B7010008B7010008B7010008CF
:10013000B7010008B7010008B7010008B7010008BF
:10014000B7010008B7010008B7010008B7010008AF
:10015000B7010008B7010008B7010008B70100089F
:10016000B7010008B7010008B7010008B70100088F
:10017000B7010008B7010008B7010008000000003F
:10018000B7010008B7010008DFF80CD000F010F943
:10019000004800475F2000085805002006488047B7
:1001A00006480047FEE7FEE7FEE7FEE7FEE7FEE75C
:1001B000FEE7FEE7FEE7FEE73517000889010008C5
:1001C00072B634483449026841EA0201016033489A
:1001D0004FF00101016032484168016001688A887E
:1001E0004FF0100342EA03028A80D1F800C00CF1FC
:1001F000240C0CF1040CBCE8FF008CF309884FF0D0
:10020000020C8CF31488AE4662B63047EFF31080D0
:1002100072B67047EFF3108062B6704780F31088B3
:10022000704720484FF0805101607047EFF3108C09
:1002300072B61D4A126822B12DE900509047BDE800
:100240000050EFF309801EF0100F08BF20ED108B57
:1002500040F804ED20E9F01F114D4FF010082E6812
:100260003060B78827EA0807B78068682860878801
:1002700047EA08078780016800F018B851F804EBD6
:100280001EF0100F08BF00F016B881F309888CF338
:100290001088704720ED00E00000FFFF48000020BC
:1002A0004C00002004ED00E03000002030C9B1E82F
:1002B000C01FFFF7E3BFB1EC088BB1EC08CBFFF731
:1002C000E4BF2DE9F05F0546002092469B46884634
:1002D0000646814640241BE02846414647462246C2
:1002E00000F056F853465A46C01A914110D31146B1
:1002F0001846224600F03DF82D1A67EB01084F46DC
:1003000022460120002100F034F817EB00094E418D
:10031000201EA4F10104DFDC484631462A4643464C
:1003200000F000B830BCBDE8C09F40EA01039B0765
:1003300003D009E008C9121F08C0042AFAD203E05A
:1003400011F8013B00F8013B521EF9D27047D2B2BE
:1003500001E000F8012B491EFBD270470022F6E7AE
:1003600010B513460A4604461946FFF7F0FF20462B
:1003700010BD202A04DB203A00FA02F10020704769
:100380009140C2F1200320FA03F3194390407047D3
:10039000202A04DB203A21FA02F00021704721FADA
:1003A00002F3D040C2F12002914008431946704741
:1003B000064C074D06E0E06840F0010394E80700B2
:1003C00098471034AC42F6D3FFF7E2FE6C280008E1
:1003D0008C280008FEE77047704700002DE9F84FB1
:1003E000DFF898B100234FF0010C4FF0030A4FF0F3
:1003F0000F090BF1040EB9E00CFA03F4224070D09F
:100400004D68022D01D0122D0ED1DD0800EB8508BC
:10041000D8F820505E07F70E09FA07F6B5430E69C3
:10042000BE402E43C8F8206007685E0091F8048043
:100430000AFA06F508F00308AF4308FA06F848EA96
:100440000708C0F800804F68012F05D0022F03D0A5
:10045000112F01D0122F13D1D0F80880CF6828EACD
:100460000508B74047EA08078760D0F804800F798D
:1004700028EA0408C7F300179F4047EA08074760C7
:10048000D1F804806FEA0807BF0706D1C76AA743FF
:10049000C8F3C0049C403C43C462C468AC438D684C
:1004A000B5402543C5604C68E4005ED5344C256EEC
:1004B00045F001052566246E23F0030504F00104D0
:1004C0000094304C2E19B4689D072F0F09FA07F5D8
:1004D000AC43B0F1904F05D02B4DA84204D101257B
:1004E0001CE042E0002519E0284DA84201D1022578
:1004F00014E0274DA84201D103250FE0254DA84265
:1005000001D104250AE0244DA84201D1052505E0CA
:10051000224DA84201D1062500E00725BD40254314
:10052000B560DBF800405D464E689443F60300D5A5
:1005300014432C60DEF8004075464E689443B603C1
:1005400000D514432C600D4D08352C684E6894433B
:10055000F60200D514432C60084D0C352C684E680B
:100560009443B60200D514432C605B1C0A6832FA2F
:1005700003F57FF441AF00F013B800000004014020
:10058000001002400000014000040048000800483C
:10059000000C0048001000480014004800180048F3
:1005A00018BCBDE8E08F0AB1816170478162704775
:1005B00001480068704700000000002010B50024CA
:1005C000032000F059F8002000F008F808B10124D9
:1005D00001E000F01BF8204610BD000070B5054694
:1005E00009484FF47A7100240068B0FBF1F000F084
:1005F0009DFD08B1012404E000222946501E00F0B0
:100600001BF8204670BD000004000020094808B512
:10061000016E41F001010166016E01F001010091DE
:10062000816D41F080518165806D00F080500090B7
:1006300008BD000000100240F0B40E4B1B680C46D1
:10064000C3F30223C3F10705042D00D90425191DA6
:10065000072901D2002300E0DB1E012606FA05F17E
:10066000491E214099409E40761E16403143F0BC01
:1006700000F0AEBE0CED00E0064900F0070208688D
:100680004FF6FF03184040EA0220034A1043086077
:10069000704700000CED00E00000FA051649B0F5C7
:1006A000007F0868C0F3412009D0022805D00868FF
:1006B00020F4C06040F4806008600020704701288A
:1006C000FBD0086820F4C06040F4007008600B485C
:1006D0003222006850430A4AB0FBF2F0401C00E0AE
:1006E000401E4A69520501D50028F9D148694005E4
:1006F000E3D5032070470000007000400400002094
:1007000040420F000248006800F4C06070470000DB
:10071000007000402DE9F84F044600270088E54DA1
:100720003E46010504F1200B1DD5606E78B1B0F591
:10073000800F11D0B0F5000F04D0B0F5400F22D0DB
:1007400001270FE0E86840F48030E8601BE00021FA
:10075000201D00F04DFE03E00021584600F0DEFEB3
:10076000070010D03E462088C00426D5A06EC0B138
:10077000B0F1807F1AD0B0F1007F0DD0B0F1407F92
:1007800019D0012718E0D5F88800616E20F44000E8
:100790000843C5F88800E6E7E86840F48030E86080
:1007A00009E00021201D00F023FE03E0002158464F
:1007B00000F0B4FE0746F7B13E46206880033AD504
:1007C000A86D4FF00008C00009D4A86D40F080501B
:1007D000A865A86D4FF0010800F080500090DFF888
:1007E000D8A2DAF8001041F48071CAF80010FFF7BF
:1007F000DFFE814610E0D5F88800A16E20F0407041
:100800000843C5F88800D8E7FFF7D2FEA0EB09003F
:10081000022801D9032705E0DAF80000C005F3D566
:10082000002F7CD04FEA0706B8F1000F03D0A86D67
:1008300020F08050A8652078C00707D0D5F8880040
:10084000A16B20F003000843C5F8880020788007DA
:1008500007D5D5F88800E16B20F00C000843C5F8F7
:1008600088002078400707D5D5F88800216C20F053
:1008700030000843C5F888002078000707D5D5F870
:100880008800616C20F0C0000843C5F8880020781B
:10089000C00607D5D5F88800A16C20F44070084345
:1008A000C5F888002078800607D5D5F88800E16C67
:1008B00020F440600843C5F888002088800507D5EB
:1008C000D5F88800E16D20F440200843C5F8880081
:1008D0002088400507D5D5F88800216E20F4401007
:1008E0000843C5F888002078400607D5D5F8880069
:1008F000216D20F440500843C5F888002078000698
:1009000007D5D5F88800616D20F440400843C5F84C
:1009100088002088C00509D5D5F8880000E01CE0D3
:10092000A16D20F440300843C5F8880020884FF0BE
:10093000006780044FF080684FD5D5F88800E16EDD
:1009400020F040600843C5F88800E06EB8423CD112
:10095000E86840F48010E8603FE0D5F8900010F4BB
:10096000407015D0D4F88410814211D0D5F8900091
:10097000D5F8901020F4407041F48031C5F8901003
:10098000D5F8901021F48031C5F89010C5F890008A
:10099000C00710D0FFF70CFE074641F2883906E089
:1009A000FFF706FEC11B494501D903263CE7D5F8F0
:1009B00090008007F4D5D5F89000D4F8841020F486
:1009C00040700843C5F890002EE7404505D101214D
:1009D000201D00F00DFD00B106462068000317D56C
:1009E000D5F88800216F20F040600843C5F88800E2
:1009F000206FB84204D1E86840F48010E86007E056
:100A0000404505D10121201D00F0F2FC00B1064651
:100A10002068400317D5D5F88800616F20F040604A
:100A20000843C5F88800606FB84204D1E86840F414
:100A30008010E86007E0404505D10121201D00F04D
:100A4000D7FC00B10646208840041AD5D5F88800A6
:100A5000A16F20F040500843C5F88800A06FB0F1A6
:100A6000805F03D0B0F1005F05D00AE00221201DB5
:100A700000F0BEFC03E00221584600F04FFD00B13B
:100A800006462088000407D5D5F88800E16F20F0DD
:100A900080400843C5F888002068C00307D555F892
:100AA000880FD4F8801020F00040084328603046BA
:100AB00000F004B8001002400070004018BCBDE80F
:100AC000E08F00002DE9F0470F46050058D03F4E5B
:100AD000306800F00700B84209D2306820F0070003
:100AE00038433060306800F00700B84248D12878B9
:100AF000374CC0072CD06868032811D0022812D0C8
:100B0000216898B1490500293ADAA16821F003016A
:100B10000143A160FFF74CFD804641F2883910E0A7
:100B200021688901EFE721688903ECE78907EAE793
:100B3000FFF73EFDA0EB0801494502D90320BDE8BF
:100B4000F087A068696800F00C00B0EB810FEFD16E
:100B50002878800705D5A068A96820F0F000084330
:100B6000A060306800F00700B8420BD9306820F070
:100B7000070038433060306800F00700B84201D009
:100B80000120DCE72878400705D5A068E96820F453
:100B9000E0600843A0602878000706D5A0682969AE
:100BA00020F4605040EAC100A06000F03BF8A1686A
:100BB000084AC1F30311515C01F01F01C840064906
:100BC0000860BDE8F0470020FFF708BD00200240A4
:100BD00000100240242800080400002005480649AF
:100BE00000688968054AC1F30221515C01F01F01C8
:100BF000C84070470400002000100240642800082C
:100C00000548064900688968054AC1F3C221515C5C
:100C100001F01F01C840704704000020001002408E
:100C20006428000870B52549002318468A68CC68F6
:100C300012F00C0204F00306214C4FEA640509D0BF
:100C40000C2A05D0042A26D0082A00D1284670BDD7
:100C5000012E10D10B681B0704D4D1F89430C3F3D4
:100C6000032302E00B68C3F30313164E56F8233038
:100C70007AB10C2AEBD1C86800F00302C868C0F34F
:100C80000210401C022A08D0032A09D0B3FBF0F05E
:100C900008E0184670BD204670BDB4FBF0F001E0DE
:100CA000B5FBF0F0CA68C968C2F306225043C1F32D
:100CB0004161491C4900B0FBF1F070BD00100240D9
:100CC0000024F400342800082DE9F84305007CD006
:100CD000FD4CA06800F00C06E06800F003072878DF
:100CE000C00661D576B10C2E01D1012F0AD0A869BA
:100CF0000028206878D040F001002060FFF758FC01
:100D0000804659E02068800702D5A8690028DED017
:100D1000286A2168090703D5216801F0F00104E081
:100D2000D4F89410F02202EA1111884215D900F08B
:100D300079FC002849D1206840F008002060206834
:100D4000296A20F0F000084320606068E96920F417
:100D50007F4040EA0120606015E0206840F0080014
:100D600020602068296A20F0F00008432060606855
:100D7000E96920F47F4040EA01206060286A00F0C1
:100D800051FC0028D6D1FFF74DFFA168CF4AC1F32F
:100D90000311515C01F01F01C840CD4908600020DB
:100DA000FFF71CFC00287DD12FE000BFFFF700FCFF
:100DB000A0EB0800022876D820688007F6D52068C6
:100DC00040F008002060206801E0BBE00CE0296AE8
:100DD00020F0F000084320606068E96920F47F405B
:100DE00040EA0120606010E020F001002060FFF781
:100DF000DFFB804606E000BFFFF7DAFBA0EB080050
:100E00000228D8D820688007F6D42878C00740D0B8
:100E1000082E18D00C2E01D1032F14D06868B0F51D
:100E2000803F17D0B0F5A02F206817D020F4803075
:100E30002060206820F4802020606868E0B1FFF71F
:100E4000B7FB804614E02068800322D5686800283C
:100E500078D01EE0206840F48030EDE740F4802038
:100E60002060F7E7FFF7A4FBA0EB08006428A2D8F6
:100E700020688003F6D50CE0FFF79AFB804605E07A
:100E8000FFF796FBA0EB0800642894D82068800345
:100E9000F6D4287880073BD5042E11D00C2E04D12F
:100EA000022F01E036E1A1E00AD0E86800282068BE
:100EB0001ED040F480702060FFF77AFB07460CE0FC
:100EC000206840050CD5E8680028C1D008E000BFC4
:100ED000FFF76EFBC01B022893D820684005F7D5AA
:100EE0006068297C20F0F85040EA016060600FE003
:100EF00020F480702060FFF75BFB074605E000BF31
:100F0000FFF756FBC01B022870D820684005F7D4B5
:100F10002878000729D568690028D4F8940012D0F1
:100F200040F00100C4F89400FFF742FB074604E0DC
:100F3000FFF73EFBC01B022858D8D4F89400800766
:100F4000F6D512E0EDE020F00100C4F89400FFF7C0
:100F50002FFB074605E000BFFFF72AFBC01B022856
:100F600044D8D4F894008007F6D42878400768D590
:100F7000A06D0027C00008D4A06D40F08050A0658F
:100F8000A06D012700F08050009052480168C9050B
:100F900012D40168814641F480710160FFF708FBBB
:100FA000804605E0FFF704FBA0EB080002281DD8EF
:100FB000D9F80000C005F5D5A868012817D0052884
:100FC000D4F8900018D020F00100C4F89000D4F8B4
:100FD000900020F0040000BFC4F89000A86841F21F
:100FE0008839D0B1FFF7E4FA804611E06BE0D4F81D
:100FF000900040F00100EFE740F00400C4F89000DA
:10100000F5E700BFFFF7D4FAA0EB080149455AD82D
:10101000D4F890008007F5D50EE0FFF7C9FA8046B6
:1010200006E000BFFFF7C4FAA0EB0801494570D8FD
:10103000D4F890008007F5D41FB1A06D20F0805047
:10104000A065A86AF0B30C2E6BD00228206820F0AF
:101050008070206004D0206810F0205F47D04AE004
:10106000FFF7A6FA064604E0FFF7A2FA801B022863
:101070004FD820688001F7D4286BE96A0001103846
:101080000843696BAA6B0902120941EA424108430D
:10109000A98F114A490802EB4151084395F84010C5
:1010A0004908120102EB41610843E060206840F00A
:1010B00080702060E06840F08070E060FFF778FAB0
:1010C000054610E02BE024E0001002402428000830
:1010D00004000020007000400000E0FFFFF768FA05
:1010E000401B022815D820688001F7D517E0E0687A
:1010F00020F00300E060E0680B490840E060FFF783
:1011000057FA054608E000BFFFF752FA401B0228D5
:1011100002D90320BDE8F88320688001F4D40020C0
:10112000F8E70120F6E70000FFFFEEFE10B5401ED5
:10113000B0F1807F01D3012010BD4FF0E024606149
:101140000F21601700F044F90020A0610720206102
:10115000002010BD10B5040003D094F8710010B148
:1011600007E0012010BD002084F87000204600F048
:1011700027F8242084F871002068016821F001011B
:101180000160204600F08AFB0128EBD0606A10B1B4
:10119000204600F0F1FA2068416821F49041416056
:1011A0002068816821F02A0181602068016841F08F
:1011B000010101602046BDE8104000F041BB000085
:1011C00010B586B0044614216846FFF7C7F81349E6
:1011D0002068884220D11248016E41F480410166A6
:1011E000016E01F480410591C16C41F00101C164BF
:1011F000C06C694600F0010005904FF4C06000909B
:101200000220019000200290032003900720049008
:101210004FF09040FFF7E2F806B010BD00380140F3
:1012200000100240FEE74268C1E900024268116016
:1012300041607047D0E900121160D0E900124A60A5
:1012400000214160016070470068FFF7ECBF7FB587
:1012500082B01C460D46064604AA01F081F800281B
:1012600006D1032104AB2A463046009400F0C0FFAB
:1012700006B070BD10B5FEF7C9FF044600F042FF8E
:101280000A49283848600968814202D00848008825
:1012900020B12046BDE81040FEF7C0BF2046FEF753
:1012A000BDFFBDE81040FEF7BCBF00004C000020B1
:1012B0002C00002070B5194CA4F12002206812699E
:1012C0000169914201D3164870BD0079400701D4ED
:1012D000002070BDFEF79AFF05462068C08800F028
:1012E000FFFE012813D920682830FFF7A3FF2068EC
:1012F000818841F0040181802068C188283000F095
:10130000D7FE2846FEF78AFFFFF7B4FFE0E728463E
:10131000FEF784FF0248093070BD00004C00002039
:101320000702000210B586B014216846FFF716F8D0
:101330001548C16C41F08001C164C16C01F08001AD
:101340000591C16C41F00201C164C16C01F0020160
:101350000591C16C41F00101C164C06C0B4C00F0FF
:1013600001000590002203212046FFF71CF903200D
:10137000009001200021CDE901010391694620463A
:10138000FFF72CF806B010BD001002400004004822
:101390000D4810B50B4901604FF4E1314160002167
:1013A00081600C22C160C0E904128161C1610162E7
:1013B0004162FFF7CFFE002803D0BDE81040FFF7E1
:1013C0000BB810BD00380140A0000020FEE77047B8
:1013D0000907090E002806DA00F00F0000F1E020EE
:1013E00080F8141D704700F1E02080F80014704769
:1013F0002DE9F041444C05468846E0680026810707
:1014000028680DD0E16801F00301814216D1A8B12E
:10141000E0686968C0F30210401C88420ED120E0E9
:10142000012804D0022805D0032807D108E021684C
:10143000890701E021684905002907DB01265FE0F3
:101440002168890302D421684903F5E7E1686A68E5
:101450006FF00F0321F0730103EB021211430143FC
:10146000E160206820F080602060FFF7A1F8074667
:1014700005E000BFFFF79CF8C01B022837D82068A2
:101480000001F7D4B8F1000F18D0B8F1010F1ED049
:10149000287D4FF07E41400801EB4060A96840EA9A
:1014A00001202169194A114008432061206840F059
:1014B00080602060FFF77CF807461AE0A868E968BA
:1014C0000002090940EA41402169114AEBE7288AF4
:1014D0001049400801EB4050A96840EA0120216909
:1014E0000D4AE0E7FFF764F8C01B022801D9032684
:1014F00006E020680001F5D52069A969084320614C
:101500003046BDE8F081000000100240FF80FFF986
:10151000FF80FDFF0000E0FFFF809FFF2DE9F0410D
:101520003D4C06468846E0680025810730680DD0AE
:10153000E16801F00301814216D1A8B1E068716849
:10154000C0F30210401C88420ED120E0012804D0D4
:10155000022805D0032807D108E02168890701E0A7
:1015600021684905002907DB012551E0216889032D
:1015700002D421684903F5E7E16872686FF00F0350
:1015800021F0730103EB021211430143E160206873
:1015900020F080502060FFF70BF8074605E000BF01
:1015A000FFF706F8C01B022829D820688000F7D46E
:1015B000B8F1000F15D0307C4FF07E41400801EBB0
:1015C0004060B16840EA01206169144A1140084353
:1015D0006061206840F080502060FEF7E9FF074618
:1015E0000FE0B068F1680002090940EA4140616912
:1015F0000B4AEBE7FEF7DCFFC01B022801D90325ED
:1016000006E020688000F5D5606971690843606173
:101610002846BDE8F081000000100240FF80FFF97D
:10162000FF80FDFFF8B51C4D06460024A86DC000E4
:1016300002D5FFF767F80DE0A86D40F08050A8656F
:10164000A86D00F080500090FFF75CF8A96D21F0C4
:101650008051A965B0F5007F04D0802E07D94FF0E6
:1016600003040AE0802E08D9A02E01D804E001D19D
:10167000022402E0702E00D101240848016821F004
:10168000070121430160006800F00700A04201D07B
:101690000120F8BD0020F8BD0010024000200240EB
:1016A000704700000648006808B101F071B80548AD
:1016B000D0E90012491C42F10002C0E90012704753
:1016C000740000208000002030B5B9B0442122A869
:1016D000FEF744FE142133A8FEF740FE8821684639
:1016E000FEF73CFE01252804CDE922500220032408
:1016F0001221CDE92E51CDE92C040721CDE930107E
:10170000329022A8FFF7E0FA0F20CDE9330400243D
:1017100035943694042133A83794FFF7D3F96846FB
:1017200000950E94FEF7F6FF6802FEF7B7FF39B09A
:1017300030BD00000D48016841F4700101600C48A3
:10174000016841F001010160002181600268094BDC
:101750001A4002608214C260026822F48022026091
:1017600081610249C00380390860704788ED00E05C
:1017700000100240FFFFF6EA90F82410C90706D0D7
:1017800001684A68836A22F400321A434A6090F87A
:101790002410890706D501684A68C36A22F480329A
:1017A0001A434A6090F82410490706D501684A6830
:1017B000036B22F480221A434A6090F82410090730
:1017C00006D501684A68436B22F400421A434A6016
:1017D00090F82410C90606D501688A68836B22F444
:1017E00080521A438A6090F82410890606D5016851
:1017F0008A68C36B22F400521A438A6090F824105E
:10180000490611D501684A68036C22F480121A4314
:101810004A60016CB1F5801F06D101684A68436CCB
:1018200022F4C0021A434A6090F82410090606D533
:1018300001684A68806C22F4002202434A607047C3
:10184000F8B5002604464667FEF7B2FE0546206856
:1018500000686FF07E47000708D52B4600224FF442
:1018600000112046009700F069F960B9206800680F
:1018700040070AD52B4600224FF4800120460097EE
:1018800000F05CF908B10320F8BD202084F8710055
:1018900084F8720084F870600020F8BD2DE9F041F2
:1018A0000446016880682369E66918436369102566
:1018B000002733431843954A0B68954E3340034342
:1018C0000B6020684168E36821F44051194341608E
:1018D0002168A069914201D0236A18438B6823F4E0
:1018E000306303438B608B4B21688B4899420DD149
:1018F000D0F8880010F0030006D001285AD0022842
:1019000056D0032859D157E0012556E0834B994220
:101910000BD1D0F8880010F00C0047D0042849D033
:10192000082845D00C2848D146E07D4B99420BD180
:10193000D0F8880010F0300038D010283AD0202895
:1019400036D0302839D137E0764B99420BD1D0F8D8
:10195000880010F0C00029D040282BD0802827D044
:10196000C0282AD128E0704B99420ED1D0F88800C7
:1019700010F440701AD0B0F5807F1BD0B0F5007F16
:1019800016D0B0F5407F18D116E0914215D1D0F8AD
:10199000880010F4406009D0B0F5806F0AD0B0F52F
:1019A000006F05D0B0F5406F07D105E0002504E0D9
:1019B000022502E0042500E008255C4B00264FF4D8
:1019C000004091423DD135B1022D07D0042D07D002
:1019D000082D10D107E0FFF701F903E0184602E0F7
:1019E000FFF720F9A8B3626802EB4201814202D8F6
:1019F000B0EB023F01D9012775E0DFF834815DB11A
:101A0000022D0CD0042D13D0082DF4D15008290537
:101A1000401846F1000105E0FFF7E0F80AE0500841
:101A20004449F5E70023FEF74CFCA0F5407156E071
:101A3000FFF7F8F86268010E0302500818187141A8
:101A4000F0E7E1694FF6EF7881422FD1092DD2D22C
:101A500000E048E0DFE805F006092005230505055C
:101A60002600C8E7FFF7BAF801E0FFF7C9F8410020
:101A7000D4F8040001EB5001B1FBF0F080B2A0F10A
:101A800010014145B7D84FF6F0710140C0F3420054
:101A900001432068C16026E027496068EAE7FFF754
:101AA000C1F8E4E74FF480316068E3E7092DA2D282
:101AB000DFE805F006091E052205050525009AE761
:101AC000FFF78CF801E0FFF79BF80146606801EB37
:101AD000500100BFB1FBF0F080B2A0F11001414510
:101AE00089D82168C860266638466666BDE8F081F8
:101AF000606803EB5001EDE7FFF794F8E5E76168F4
:101B000000EB5100B0FBF1F0E6E700000080004080
:101B1000F369FFEF0038014000100240004400402C
:101B200000480040004C0040005000400024F400F9
:101B3000FFFC0F00000024F40048E8012DE9F0410B
:101B4000984617460E460446069D1DE0681C1BD0AD
:101B50002DB1FEF72DFDA0EB0800A84214D9206896
:101B6000016821F4D07101602068816821F00101D1
:101B70008160202084F8710084F87200002084F8CD
:101B800070000320BDE8F0812068C06936EA0000DB
:101B900004D00020B842D9D00020F3E70120F9E7B3
:101BA000FEE700000FB4054B10B503A9044A0298E4
:101BB00000F018F810BC5DF814FB00004D20000880
:101BC0009C00002002E008C8121F08C1002AFAD1B8
:101BD00070477047002001E001C1121F002AFBD1AD
:101BE000704700002DE9FF4F8DB00F4605460026D7
:101BF00006E025280BD0DDE90F1290476D1C761CFE
:101C000028780028F5D111B0304600F0F3B900244F
:101C1000A246A1460122EC4900E0044315F8013F29
:101C2000203B02FA03F00842F7D128782A2810D086
:101C30006FF02F022878A0F13001092914D80AEB9F
:101C40008A0102EB410144F0020400EB010A6D1C21
:101C5000F0E701CF5FEA000A03D544F40054CAF16B
:101C6000000A44F002046D1C28782E2817D115F8BC
:101C7000010F44F004042A280ED06FF02F022878B8
:101C8000A0F1300109290AD809EB890102EB4101D1
:101C900000EB01096D1CF2E757F8049B6D1C2878D6
:101CA0006C280FD006DC4C2817D068280DD06A2885
:101CB00014D104E0742810D07A280FD10DE044F438
:101CC00000140AE044F4801401E044F440146978FC
:101CD000814202D104F580146D1C6D1C2A786E2A95
:101CE0001FD00CDC632A31D004DC002A8BD0582AA8
:101CF00011D1A3E0642A68D0692A0CD165E0732A67
:101D00002ED004DC6F2A73D0702A04D19BE0752A90
:101D10006FD0782A6ED01046DDE90F129047761CFE
:101D200050E1C4F30250022806D0032809D0042849
:101D300001CF09D0066045E101CFF117C0E900618C
:101D400040E101CF06803DE106703BE117F8040B4E
:101D50008DF8000000208DF80100EB46012003E023
:101D600057F804BB4FF0FF3061074FF0000102D479
:101D70000DE008F10101884649450FDA8045F8DB9E
:101D80001BF808100029F4D108E008F10101884689
:101D90008142FADB1BF808100029F6D1DDE90F2398
:101DA000AAEB08008146214600F039F9304400EBE7
:101DB000080604E0DDE90F121BF8010B9047B8F1AB
:101DC0000108F7D221464846F7E00A21C4F302533E
:101DD0004FF0000B0891022B04D001CFC117032B49
:101DE00009D00AE0FF1D27F00707F7E8020108E025
:101DF00032E01FE020E000B2C117042B01D140B255
:101E0000C117031E71F1000307DA4FF0000CD0EB8D
:101E10000C006CEB01012D2302E0230504D52B23DC
:101E20008DF82430012303E0E30701D02023F7E7F6
:101E3000984658E00A2110E010210EE010204FF0E3
:101E4000000B08900CE010214FF0000B44F004044C
:101E50004FF00809089103E008214FF0000B0891AA
:101E6000C4F30253022B04D001CF0021032B06D070
:101E700006E0FF1D27F00707F7E8020103E080B244
:101E8000042B00D1C0B24FF0000823072BD5702AD5
:101E900007D0DDF820C08CF0100C5CEA0B0C05D0EC
:101EA0000EE040238DF82430012308E050EA0103BE
:101EB00006D030238DF824308DF825200223984653
:101EC000DDF820C08CF0080C5CEA0B0C0BD150EA5A
:101ED000010301D1630706D530238DF824304FF07C
:101EE0000108A9F10109582A04D038A20B9208AAC6
:101EF0000A920BE03AA2F9E75B46089AFEF7E1F98D
:101F00000B9B9B5C0A9A521E0A92137050EA0102C4
:101F1000F2D10A98ADEB000000F1200B600702D56A
:101F200024F4803401E04FF00109D94502DDA9EB2A
:101F30000B0000E0002000EB0B0141440890AAEBED
:101F4000010AE00306D4DDE90F232146504600F0E4
:101F500066F806444FF0000908E009A911F80900E5
:101F6000DDE90F12904709F10109761CC145F4DB48
:101F7000E0030CD5DDE90F232146504600F04FF871
:101F8000064404E0DDE90F1230209047761C0899E2
:101F9000481E08900029F5DC08E00A980A990078A4
:101FA000491C0A91DDE90F129047761CBBF1000134
:101FB000ABF1010BF1DC21465046DDE90F2300F0C7
:101FC0001CF806446D1C1BE6092801003031323331
:101FD0003435363738396162636465660000000065
:101FE000303132333435363738394142434445464F
:101FF0000000000030BCBDE8C08F2DE9F041044670
:1020000000251E461746880404D405E039462020E2
:10201000B0476D1C641EF9D52846BDE8F0812DE956
:10202000F041044600251E469046C80301D53027DE
:1020300000E02027880404D505E041463846B04733
:102040006D1C641EF9D52846BDE8F08138B50446FC
:102050008DF8000069460320ABBE204638BDFEF770
:10206000ADFAFFF731FBFFF75DF9FFF791F9FEE7F6
:10207000EFF3058070470000D0E900121160D0E94D
:1020800000124A6000214160016030F8221C0748BC
:10209000426802EBC1025368934205D14FF00042FF
:1020A000CA400168914301607047000008000020A9
:1020B0000A4B10B55A6802EBC1025468944205D12C
:1020C0004FF00044CC4019680C431C6011684A680A
:1020D000C0E900124A681060486010BD0800002086
:1020E0000749034600204A6802EBC30102EBC30222
:1020F000496801E04968401C8A42FBD170470000F2
:10210000080000200548016831B14068B1FA81F14A
:1021100000EBC100406870470020704708000020B5
:102120002DE9F0411E460446134611F003004FF01E
:1021300000050BD0012812D0032817D022A0FFF7EA
:1021400031FDBDE8F04122A0FFF72CBDA089E78852
:10215000421CBA4201D1A58110E0A2810EE0A08903
:1021600000B9E088401EA08180B207E0E089E788DE
:10217000421CBA4201D1E58100E0E2812289256852
:1021800000FB025548074FEAC17007D518B118681F
:102190002860BDE8F08128681860FAE750B1194658
:1021A00028463268FEF7C1F820892D1F284431687F
:1021B0000160EEE7281F10442946046818462246AD
:1021C000FEF7B3F83460E4E75B4552525D2000004F
:1021D000696E76616C6964207175657565206F70D4
:1021E00065726174652074797065210A00000000D1
:1021F0002DE9FF5F9A460F460446002501F00106CF
:10220000DDF838B0FEF702F84F49814604EB440090
:10221000096800EBC40001EB8004A08850B1F80706
:102220002089DAF80010A0F1040006D0814209D913
:10223000464D83E0454D0B3D80E0814202D2434D47
:102240000A357BE004EB4600018A91B1491E018208
:10225000534639462046029AFFF762FF002E37D0D8
:102260004FF0000004EBC000816934D14FF0010051
:1022700032E0BBF1000F05D03548008850B1334D36
:102280000F3D5BE0F80702D0304D6D1C56E02F4D3E
:10229000083553E02F485A464FF40051D0F80080DB
:1022A00004EBC600143000F02DFA4846FDF7B6FFE7
:1022B000FEF7E0FFFDF7AAFF8146B8F804004106EB
:1022C000C6D5224D20F04001A8F804100E3D35E09F
:1022D0004FF00100C6E7002004EBC000143081423B
:1022E00015D096B15FF0000004EBC0004FF4005130
:1022F0008069283800F02CFA4846FDF78FFFFEF77A
:10230000B9FF002004B000F027B80120ECE7002E50
:102310000CD000BF4FF0000004EB4000008A00F139
:10232000010080B205D14FF0010104E04FF001003F
:10233000F2E74FF0000104EB410108824846FDF747
:102340006DFF2846DEE70000900000201506000221
:102350002C0000204C00002030BCBDE8C09F0000D5
:1023600010B50A2801D30A4810BD41B1106848B120
:102370005BB1FFF77DFE40B10548401F10BD04482A
:10238000001D10BD0248401D10BD002010BD000002
:102390000E0600022DE9FC4F0023591E0191009109
:1023A0000169C160017A5B4C01F00F065A4D54F887
:1023B00026104FF0030B4FF01009AD694A461F4637
:1023C000DC46BBEB517F68D141F0004144F8261058
:1023D00021F07F4A0021A6465EF821C03CF07F44F0
:1023E0002ED0B1422CD0BBEB9C7F29D1D446544592
:1023F00006D3B4FBFCF80AFB184CBCF1000F0AD062
:10240000D44654451CD2BCFBF4F804FB18ACBCF118
:10241000000F0BD014E0B4FBFAF8DDF804C0E0457F
:102420000ED2B4FBFAF48946019409E0BAFBF4F841
:10243000DDF800C0E04503D2BAFBF4F200920A4690
:10244000491C89B21029C7D33349B9F1100F096962
:102450001AD0C9EBC9042A4601EB840106E0D4680E
:102460000E8927441489B44203D01268002AF6D199
:1024700034E062B31169CC1B0169B4FBF1F201FBDA
:102480001242891AC16029E0102A27D00023C2EB2A
:10249000C202C36001EB82031EE00222B2EB517F55
:1024A0001CD141F0004144F82610294662460CE058
:1024B0000E690769BE4207D10E7A06F00F0654F87E
:1024C0002660B2EB967F03D009680029F0D105E0C1
:1024D00021B100220B46C26019680BE0294607E0D3
:1024E000CA68C468A24205D8A21A0B46C26009682D
:1024F0000029F5D1016019B1CA68C468121BCA600D
:1025000023B118600221017100F008B80249886106
:10251000F8E7000018010020100000201CBCBDE8F6
:10252000E08F00007CB5184D26E02068A861A06906
:10253000009060690190002308226946E868FEF770
:1025400086FE607920B1012810D0022814D111E054
:10255000204600F01BF820894FF6E071884201D236
:10256000103001E000F00F00208105E02046FFF769
:1025700011FF01E001202071AC69002C02D0E0685D
:102580000028D2D07CBD00001000002006494A6916
:102590000260486100210171007A044A00F00F00D6
:1025A00042F82010704700001000002018010020A1
:1025B000054810B5806928B1C168491EC16001D1C4
:1025C000FFF7B0FF002010BD10000020F0B402465D
:1025D00011F01F034FEA511000D1401E916B1B4CAC
:1025E00001F0784101432079184400F01F0060F3A6
:1025F000DF619163216801EBC00302F1300158688B
:10260000984201D118461DE03038956B876B25F054
:10261000784427F07846A6420AD8A41B05F07845EE
:102620002C439463446BA4F130009C42EDD108E04C
:1026300027F0784325F078429A1A07F078431A4336
:1026400082633030F0BCFEF7FFBD00006C0000205C
:102650002DE9F0412A4800270179491C01F01F01AA
:102660008180006800EBC1056C68AC4245D0303C0D
:1026700004F13000A84206D0A06BA688400108D023
:10268000A06B401EA063002F37D0BDE8F041FEF7DD
:10269000F1BD04F13000FEF7CDFD30070BD5A08869
:1026A00020F00800A08004F12800FEF7C3FD002000
:1026B000A061E06113E0700503D5A08820F480607C
:1026C0000CE0B00407D504F12800FEF7B3FDA088A4
:1026D00020F4005002E0A08820F02000A080B00785
:1026E00009D4A08840F00400A080E18804F128000B
:1026F000FFF7DEFC01276C68B9E7BDE8F081000058
:102700006C0000202DE9F0418046104816460F4627
:10271000046804F128000546FFF7AEFCA0882946AE
:1027200020F004003843A0804046FEF78DFD701C69
:1027300009D0A088314640F04000A0802046BDE886
:10274000F041FFF743BFBDE8F08100004C000020DE
:1027500070B5044628300D460646FEF76BFDA0888E
:10276000A843A080400606D5204600F025F8A088A2
:1027700020F04000A080A088810708D440F0040029
:10278000A080E1883046BDE87040FFF791BC70BD85
:10279000084810B5D0E90221521C41F10001C0E9FE
:1027A000022100F023F8FFF753FFBDE81040FFF7C8
:1027B000FFBE00007800002030B40B4B826B1B681A
:1027C000D10E03EBC103416B994209D08B6822F013
:1027D000784223F07844224403F078431A438A6015
:1027E00030BC3030FEF726BD6C0000200B480A4993
:1027F00002680B480B680068934204D00A60CB88DB
:10280000421E1A448A808A8880B2824203D1002004
:102810000860FEF74FBD7047880000204C00002084
:1028200080000020000000000000000001020304FE
:1028300006070809A0860100400D0300801A060063
:1028400000350C0040420F0080841E0000093D004E
:1028500000127A000024F40000366E010048E801FE
:10286000006CDC0200000000010203048C28000858
:1028700000000020A0000000C41B00082C29000854
:10288000A0000020B8040000D41B000800000000D5
:1028900000093D00000000000000000000000000F2
:1028A0000000000000000000000000000000000028
:1028B0000000000000000000000000000000000018
:1028C0000000000000000000000000000000000008
:1028D00000000000000000000000000000000000F8
:1028E00000000000000000000000000000000000E8
:1028F00000000000000000000000000000000000D8
:1029000000000000000000000000000000000000C7
:1029100000000000000000000000000000000000B7
:0C292000000000000000000000000000AB
:040000050800018965
:00000001FF
