:020000040800F2
:10000000280B00209D0100084F40000875270008BC
:100010004D4000082B040008F948000800000000CB
:100020000000000000000000000000002143000864
:100030002D040008000000002D02000825430008E0
:10004000B7010008B7010008B7010008B7010008B0
:10005000B7010008B7010008B7010008B7010008A0
:10006000B7010008B7010008B7010008B701000890
:10007000B7010008B7010008B7010008B701000880
:10008000B7010008B7010008B7010008B701000870
:10009000B7010008B7010008B7010008B701000860
:1000A000B7010008B7010008B7010008B701000850
:1000B000B7010008B7010008B7010008B701000840
:1000C000B7010008B7010008B7010008B701000830
:1000D000B7010008B7010008B7010008B701000820
:1000E000B7010008B7010008B7010008B701000810
:1000F000B7010008B7010008B7010008B701000800
:10010000B7010008B7010008B7010008B7010008EF
:10011000B7010008B7010008B7010008B7010008DF
:10012000B7010008B7010008B7010008B7010008CF
:10013000B7010008B7010008B7010008B7010008BF
:10014000B7010008B7010008B7010008B7010008AF
:10015000B7010008B7010008B7010008B70100089F
:10016000B7010008B7010008B7010008B70100088F
:10017000B7010008B7010008B7010008000000003F
:10018000B7010008B7010008DFF80CD000F010F943
:1001900000480047BD4D0008280B00200648804756
:1001A00006480047FEE7FEE7FEE7FEE7FEE7FEE75C
:1001B000FEE7FEE7FEE7FEE7B54300088901000819
:1001C00072B634483449026841EA0201016033489A
:1001D0004FF00101016032484168016001688A887E
:1001E0004FF0100342EA03028A80D1F800C00CF1FC
:1001F000240C0CF1040CBCE8FF008CF309884FF0D0
:10020000020C8CF31488AE4662B63047EFF31080D0
:1002100072B67047EFF3108062B6704780F31088B3
:10022000704720484FF0805101607047EFF3108C09
:1002300072B61D4A126822B12DE900509047BDE800
:100240000050EFF309801EF0100F08BF20ED108B57
:1002500040F804ED20E9F01F114D4FF010082E6812
:100260003060B78827EA0807B78068682860878801
:1002700047EA08078780016800F018B851F804EBD6
:100280001EF0100F08BF00F016B881F309888CF338
:100290001088704720ED00E00000FFFF4C000020B8
:1002A0005000002004ED00E03400002030C9B1E827
:1002B000C01FFFF7E3BFB1EC088BB1EC08CBFFF731
:1002C000E4BF2DE9F05F0546002092469B46884634
:1002D0000646814640241BE02846414647462246C2
:1002E00000F056F853465A46C01A914110D31146B1
:1002F0001846224600F03DF82D1A67EB01084F46DC
:1003000022460120002100F034F817EB00094E418D
:10031000201EA4F10104DFDC484631462A4643464C
:1003200000F000B830BCBDE8C09F40EA01039B0765
:1003300003D009E008C9121F08C0042AFAD203E05A
:1003400011F8013B00F8013B521EF9D27047D2B2BE
:1003500001E000F8012B491EFBD270470022F6E7AE
:1003600010B513460A4604461946FFF7F0FF20462B
:1003700010BD202A04DB203A00FA02F10020704769
:100380009140C2F1200320FA03F3194390407047D3
:10039000202A04DB203A21FA02F00021704721FADA
:1003A00002F3D040C2F12002914008431946704741
:1003B000064C074D06E0E06840F0010394E80700B2
:1003C00098471034AC42F6D3FFF7E2FE4C640008C5
:1003D0006C64000870B58C1810F8015B15F0070309
:1003E00001D110F8013B2A1106D110F8012B03E0CE
:1003F00010F8016B01F8016B5B1EF9D12B0705D4D6
:100400000023521E0DD401F8013BFAE710F8013B1E
:10041000CB1A921C03E013F8015B01F8015B521E3A
:10042000F9D5A142D8D3002070BDFEE770477047D0
:1004300010B54FF480711C4802F0BCFC08B11BA041
:1004400021E020A004F05AFA0421174802F088FCA9
:10045000040017D020A004F051FA4FF44F7122A0ED
:10046000216004F04BFA21460F4802F08FFC70B176
:1004700021A004F043FA0121092002F02DFB20B154
:1004800022A000E028A004F039FA012010BD2CA021
:1004900004F034FA0021092002F01EFB10B11BA069
:1004A00004F02CFA002010BDD80300206D656D709B
:1004B0006F6F6C20696E6974206661696C65642178
:1004C000200D0A006D656D706F6F6C20696E697428
:1004D000206F6B21200D0A006D656D20616C6C6FC3
:1004E00063206F6B200D0A002A705F6E756D203DD2
:1004F000202564200D0A00006D656D20667265651B
:10050000206661696C656421200D0A0053657420C2
:10051000496E7370656374205374617475732045FC
:100520007272200D0A0000006D656D20616C6C6FA9
:1005300063206661696C656421200D0A000000007B
:100540006D656D2066726565206F6B210D0A000078
:1005500010B501210FA004F0D1F964230422012178
:10056000154802F06DF9014601280DD013A004F0E2
:10057000C5F90121012002F0AFFA002809D0BDE839
:10058000104018A004F0BAB91DA004F0B7F900217A
:10059000F0E710BD4578616D706C655F4576656EFE
:1005A000742077616974206576656E7420307825D3
:1005B00078202E200D0A0000D80400204578616DB7
:1005C000706C655F4576656E742C7265616420653C
:1005D00076656E742074696D656F75742E200D0AD2
:1005E0000000000053657420496E737065637420C9
:1005F000537461747573204572722E200D0A0000C9
:100600004578616D706C655F4576656E742C7265BA
:100610006164206576656E74203A30782578202EE6
:10062000200D0A002DE9F04102F0B0F8010002D0DF
:100630001AA004F063F903F0AFFC0F4605463843F7
:1006400003D029461DA004F059F9C82003F0D4FABC
:1006500003F0A2FC0E460446304303D021461EA000
:1006600004F04CF9601B66EB0706C83876F1000011
:100670000AD30021052002F02FFA10B120A004F0C7
:100680003DF90020BDE8F0810121052002F024FAA7
:1006900010B11BA004F032F90120F3E74C4F535F77
:1006A0004379636C655065725469636B4765742068
:1006B0003D202564202E0D0A000000004C4F535FA2
:1006C0005469636B436F756E74476574203D2025D4
:1006D00064202E0D0A0000004C4F535F5469636B79
:1006E000436F756E7447657420616674657220642B
:1006F000656C6179203D202564202E0D0A000000E4
:1007000053657420496E737065637420537461740B
:10071000757320457272202E0D0A000010B58AB044
:100720001B4801900920ADF808004FF43470049084
:1007300018A0059003F032FB01A907A803F07CF98B
:10074000040002D0014616A009E01E48019001A94C
:1007500008A803F071F9040006D001461AA004F0BD
:10076000CDF820460AB010BD1820009000231F4A83
:1007700005211FA002F0AEFD010002D01EA004F072
:10078000BDF826A004F0BAF803F0B6FB0020E9E7B4
:100790005963000873656E645175657565000000E6
:1007A000637265617465207461736B312066616981
:1007B0006C6564212C6572726F723A2578200D0A7F
:1007C000000000007D62000863726561746520743A
:1007D00061736B32206661696C6564212C6572728D
:1007E0006F723A2578200D0A00000000DC0000201E
:1007F00071756575650000006372656174652071CF
:1008000075657565206661696C757265212C657208
:10081000726F723A2578200D0A00000063726561DC
:1008200074652074686520717565756520737563DE
:100830006365737321200D0A0000000010B58CB0B1
:100840001F4802F0AFFB03F0A9FA18216846FFF732
:1008500085FD1C4800901CA04FF43474CDE9034082
:100860000520ADF8040016486946001D03F0E4F8C1
:1008700008B118A012E0182106A8FFF76FFD1C4868
:1008800006901CA0CDE909400420ADF81C000C48DE
:1008900006A9083003F0D0F828B119A004F02EF80A
:1008A00001200CB010BD03F027FB4FF4967003F04D
:1008B000A3F90348006802F0B9FB0020F1E700004B
:1008C000F40000201D0900084D7574657854736BA1
:1008D000310000007461736B31206372656174656F
:1008E000206661696C6564202E200D0A00000000FE
:1008F000610A00084D7574657854736B320000000E
:100900007461736B3220637265617465206661691E
:100910006C6564202E200D0A0000000010B518A0A0
:1009200003F0ECFF214C0A21206802F0CBFB0028E9
:100930001DD01F49884222D11EA003F0DFFF4FF0D7
:10094000FF31206802F0BEFB002818D127A003F079
:10095000D5FF206802F05EFC0021042002F0BCF804
:1009600000280CD0BDE810402EA003F0C7BF34A073
:1009700003F0C4FF2068BDE8104002F04BBC10BD7E
:100980007461736B312074727920746F20676574A1
:10099000206D757465782C20776169742031302062
:1009A0005469636B2E200D0A00000000F400002043
:1009B000071D00027461736B312074696D656F757A
:1009C0007420616E642074727920746F206765747E
:1009D00020206D757465782C207761697420666FAE
:1009E00072657665722E200D0A0000007461736BCB
:1009F00031207761697420666F72657665722C6745
:100A00006F74206D7574657820675F546573746DBD
:100A10007578303120737563636573732E200D0A0A
:100A20000000000053657420496E73706563742084
:100A300053746174757320457272200D0A000000B2
:100A40007461736B3120676574206D7574657820EF
:100A5000675F546573746D757830312E200D0A0010
:100A600010B50EA003F04AFF174C4FF0FF3120687D
:100A700002F028FB20B1BDE8104014A003F03EBFF7
:100A80001AA003F03BFF642003F0B6F825A003F0A2
:100A900035FF2068BDE8104002F0BCBB7461736B89
:100AA000322074727920746F20676574206D7574BC
:100AB00065782C207761697420666F72657665723F
:100AC0002E200D0A00000000F40000207461736BFA
:100AD00032204C4F535F4D757850656E64206661CF
:100AE000696C6564202E200D0A0000007461736B30
:100AF0003220676574206D7574657820675F546572
:100B000073746D7578303120616E64207375737005
:100B1000656E6420313030205469636B2E200D0ADD
:100B2000000000007461736B3220726573756D652F
:100B30006420616E6420706F737420746865206730
:100B40005F546573746D75783031200D0A000000B4
:100B500010B517A003F0D2FE244C0A21A06802F0C1
:100B600023FD00281DD0224988421FD1214803F0CF
:100B7000C5FE4FF0FF31A06802F016FD002815D128
:100B80001DA003F0BBFEA06802F0B2FD002103200F
:100B900001F0A2FF002809D0BDE8104026A003F014
:100BA000ADBEA068BDE8104002F0A2BD10BD0000BF
:100BB0004578616D706C655F53656D5461736B3121
:100BC00020747279206765742073656D20675F7586
:100BD0007353656D4944202C74696D656F7574207D
:100BE0003130207469636B732E0D0A000001002000
:100BF00007070002086400084578616D706C655F46
:100C000053656D5461736B3120776169745F666FF2
:100C1000726576657220616E6420676F74207365FB
:100C20006D20675F757353656D4944207375636309
:100C30006573732E0D0A000053657420496E73703E
:100C40006563742053746174757320457272200D4E
:100C50000A00000010B50CA003F050FE184C4FF035
:100C6000FF31A06802F0A0FC10B916A003F046FE08
:100C7000142002F0C1FF23A003F040FEA068BDE8ED
:100C8000104002F035BD00004578616D706C655F05
:100C900053656D5461736B3220747279206765748B
:100CA0002073656D20675F757353656D49442077C8
:100CB00061697420666F72657665722E0D0A000098
:100CC000000100204578616D706C655F53656D545F
:100CD00061736B32206765742073656D20675F7583
:100CE0007353656D494420616E64207468656E209D
:100CF00064656C61792032307469636B73202E0DEA
:100D00000A0000004578616D706C655F53656D5435
:100D100061736B3220706F73742073656D20675F31
:100D2000757353656D4944202E0D0A0030B58DB0A2
:100D30002549002002F0EAFB03F030F8182168464C
:100D4000FFF70CFB2148009021A04FF43474CDE94B
:100D500003400520ADF804001B486946083802F03E
:100D60006BFE08B11DA01BE0182106A8FFF7F6FADC
:100D70002048069020A0CDE909400420ADF81C00D1
:100D8000114806A9001F02F057FE0F4C083C60B145
:100D90001CA003F0B3FD206802F064FF10B11FA097
:100DA00003F0ACFD01200DB030BD03F0A5F8A06844
:100DB00002F09EFC0546282002F01EFFA06802F00B
:100DC000ABFB2846EFE7000008010020510B0008AC
:100DD0004D7574657854736B310000007461736BEA
:100DE0003120637265617465206661696C65642099
:100DF0002E0D0A00550C00084D7574657854736B00
:100E0000320000007461736B322063726561746537
:100E1000206661696C6564202E0D0A007461736B35
:100E2000312064656C657465206661696C65642059
:100E30002E0D0A0010B586B01C4801F0D1FC08B197
:100E40001BA01DE018216846FFF788FA1E48009095
:100E50001EA004904FF4347003900520ADF80400F8
:100E600069461D4802F0E8FD08B11CA008E021A079
:100E700003F044FD01210D4801F056FD28B127A0E3
:100E800003F03CFD012006B010BD084C29A02168EC
:100E900003F034FD2068C143204601F08FFC25A0FB
:100EA000216803F02BFD0020EDE70000D8040020AE
:100EB000696E6974206576656E74206661696C651B
:100EC00064202E0D0A000000510500084576656E6D
:100ED0007454736B31000000D80000207461736B90
:100EE00020637265617465206661696C6564202E9B
:100EF0000D0A00004578616D706C655F5461736B1D
:100F0000456E7472795F4576656E74207772697488
:100F100065206576656E74202E0D0A006576656E17
:100F200074207772697465206661696C6564202E2F
:100F30000D0A00004576656E744D61736B3A256449
:100F4000200D0A0010B5032230211D4801F0FAFFE0
:100F500008B11CA02BE021A003F0D0FC184801F040
:100F60009BFF040022D023A003F0C8FC4FF44F7174
:100F700026A0216003F0C2FC2146114801F0A8FF21
:100F800026A0216803F0BAFC21460D4801F0ACFF11
:100F900088B12BA003F0B2FC0121082001F09CFDD8
:100FA00010B12EA003F0AAFC002010BD32A003F067
:100FB000A5FC012010BD37A003F0A0FC0021ECE748
:100FC000E40400204D656D20626F7820696E6974BD
:100FD000206661696C6564202E0D0A004D656D20E8
:100FE000626F7820696E6974206F6B21202E0D0A64
:100FF000000000004D656D20626F7820616C6C6FA1
:1010000063206F6B202E0D0A000000002A705F6EB7
:10101000756D203D202564202E0D0A00636C6561EE
:10102000722064617461206F6B200D0A202A705F4A
:101030006E756D203D202564202E0D0A00000000F5
:101040004D656D20626F7820667265652066616906
:101050006C656421202E0D0A000000005365742089
:10106000496E7370656374205374617475732045A1
:101070007272202E0D0A00004D656D20626F78207F
:10108000616C6C6F63206661696C656421202E0D54
:101090000A0000004D656D20626F782066726565FC
:1010A000206F6B21202E0D0A0000000010B518A043
:1010B00003F024FC052002F09FFD08B11AA024E0F3
:1010C0001FA003F01BFC264C206802F0BBFE58B1A9
:1010D00024A003F013FC0121002001F0FDFC08B165
:1010E00027A012E0012010BD2CA003F007FC002176
:1010F000084601F0F1FC10B121A003F0FFFB2068CD
:1011000002F0B0FD0028EED02DA003F0F7FBE9E7D8
:10111000456E746572205461736B48692048616E36
:10112000646C65722E0D0A0044656C61792054610F
:10113000736B204661696C65642E0D0A0000000027
:101140005461736B4869204C4F535F5461736B4417
:10115000656C617920446F6E652E0D0A00000000F9
:101160000C01002053757370656E64205461736BBD
:101170004869204661696C65642E0D0A0000000014
:1011800053657420496E7370656374205374617481
:101190007573204572722E0D0A0000005461736B46
:1011A0004869204C4F535F5461736B526573756D82
:1011B0006520537563636573732E0D0A000000008C
:1011C0005461736B48692064656C65746520666161
:1011D000696C6564202E0D0A0000000010B513A094
:1011E00003F08CFB0A2002F007FD08B115A019E0FE
:1011F0001AA003F083FB224C206802F0DDFD58B1F9
:1012000020A003F07BFB0121002001F065FC08B168
:1012100022A007E0012010BD606802F023FD002835
:10122000F9D025A003F06AFBF4E70000456E746571
:1012300072205461736B4C6F2048616E646C6572F0
:101240002E0D0A0044656C6179205461736B4C6FFC
:10125000204661696C65642E0D0A00005461736B51
:101260004869204C4F535F5461736B5375737065BD
:101270006E6420537563636573732E0D0A0000005E
:101280000C010020526573756D65205461736B48C5
:1012900069204661696C65642E0D0A0053657420EF
:1012A000496E73706563742053746174757320455F
:1012B00072722E0D0A0000005461736B4C6F206433
:1012C000656C657465206661696C6564202E0D0A25
:1012D0000000000010B586B002F060FD1FA003F012
:1012E0000DFB254800900420ADF8040023A04FF426
:1012F0003474CDE903406946234802F09DFB18B1E0
:1013000002F0FAFD21A01CE028A003F0F7FA304813
:1013100000900520ADF804002EA0CDE903401A4846
:101320006946001D02F088FB04000FD016480068D3
:1013300002F098FC10B12AA003F0E0FA02F0DCFD04
:101340002EA003F0DBFA012006B010BD33A003F09D
:10135000D5FA02F0D1FD2046F6E700004C4F535F6E
:101360005461736B4C6F636B2829205375636365FD
:101370007373210D0A000000AD100008484947486A
:101380005F4E414D450000000C0100204578616D25
:10139000706C655F5461736B48692063726561743A
:1013A00065204661696C6564210D0A004578616DB0
:1013B000706C655F5461736B48692063726561741A
:1013C000652053756363657373210D0A0000000087
:1013D000DD1100084C4F575F4E414D4500000000A5
:1013E0005461736B48692064656C6574652066613F
:1013F000696C6564202E0D0A000000004578616D5F
:10140000706C655F5461736B4C6F206372656174BF
:1014100065204661696C6564210D0A004578616D3F
:10142000706C655F5461736B4C6F2063726561749F
:10143000652053756363657373210D0A0000000016
:101440002DE9F0413FA003F059FA434F08213868D5
:1014500001F086FC05004BD06D602D603FA003F0CD
:101460004DFA0821386801F07BFC040042D00821C5
:10147000386801F075FC060040D00821B84638688D
:1014800001F06EFC07003FD02146284601F054FCD5
:101490003146204601F050FC2068A84202D0306856
:1014A000A04202D135A003F029FA3946286801F09C
:1014B00043FC3868B04202D135A003F01FFA39A0CE
:1014C00003F01CFAD4E900010860D4E9000141608E
:1014D0000020606020602146D8F8000001F056FC32
:1014E0006868B04220D134A003F008FA00211FE060
:1014F00037A000E03BA003F001FA12E034A003F0B3
:10150000FDF9214638680AE031A003F0F7F92146D9
:101510004446D8F8000001F039FC3146206801F05B
:1015200035FC0120BDE8F08132A003F0E7F901218C
:10153000072001F0D1FA10B133A003F0DFF9002049
:10154000F0E70000696E697469616C2E2E2E2E2EF4
:101550002E200D0A00000000080000206E6F646558
:101560002061646420616E64207461696C20616430
:10157000642E2E2E2E2E2E0D0A0000006164642093
:101580006E6F64652073756363657373200D0A0065
:10159000616464207461696C20737563636573733F
:1015A000200D0A0064656C657465206E6F64652E9D
:1015B0002E2E2E2E2E0D0A0064656C657465206E2D
:1015C0006F646520737563636573730D0A000000B3
:1015D0006D616C6C6F63206661696C6564200D0AD7
:1015E000000000006D616C6C6F63206661696C6562
:1015F000640A000064656C657465206E6F64652024
:101600006572726F720D0A0053657420496E7370B3
:1016100065637420537461747573204572720D0A8A
:101620000000000070B586B0002501244FF47A76E2
:10163000009403AB334A29463046CDE9014502F018
:10164000CBF808B130A000E036A003F057F90094C1
:1016500004AB3B4A01216420CDE9014502F0BCF80E
:1016600008B138A000E03EA003F048F9BDF80C0036
:1016700002F046F908B141A000E046A003F03EF9AF
:10168000C82002F0B9FABDF80C0002F09DF908B1CB
:1016900046A000E04BA003F031F9BDF80C0002F0C9
:1016A0002FF910B135A003F029F9304602F0A4FA61
:1016B000BDF80C0002F0EAF808B148A000E04EA026
:1016C00003F01CF9BDF8100002F01AF908B151A09E
:1016D00000E056A003F012F9304602F08DFABDF892
:1016E000100002F071F910B157A003F007F9BDF82E
:1016F000100002F0CBF810B159A003F0FFF806B0CB
:10170000002070BDF9430008637265617465205460
:10171000696D657231206661696C6564202E0D0A01
:10172000000000006372656174652054696D657224
:10173000312073756363657373202E0D0A000000FA
:101740004D4400086372656174652054696D65726B
:1017500032206661696C6564202E0D0A000000006D
:101760006372656174652054696D657232207375AA
:101770006363657373202E0D0A0000007374617239
:10178000742054696D657231206661696C656420EE
:101790002E0D0A0073746172742054696D65723184
:1017A00020737563657373202E0D0A0073746F7058
:1017B0002054696D657231206661696C6564202E04
:1017C0000D0A000073746F702054696D65723120CA
:1017D000737563657373202E0D0A000064656C6574
:1017E00074652054696D657231206661696C656449
:1017F000202E0D0A0000000064656C65746520549D
:10180000696D65723120737563657373202E0D0ADF
:101810000000000073746172742054696D65723247
:10182000206661696C6564202E0D0A007374617214
:10183000742054696D6572322073756363657373C8
:10184000202E0D0A0000000073746F702054696D23
:10185000657232206661696C6564202E0D0A000095
:1018600064656C6574652054696D657232206661CB
:10187000696C6564202E0D0A000000002DE9F84F08
:10188000DFF898B100234FF0010C4FF0030A4FF03E
:101890000F090BF1040EB9E00CFA03F4224070D0EA
:1018A0004D68022D01D0122D0ED1DD0800EB850808
:1018B000D8F820505E07F70E09FA07F6B5430E690F
:1018C000BE402E43C8F8206007685E0091F804808F
:1018D0000AFA06F508F00308AF4308FA06F848EAE2
:1018E0000708C0F800804F68012F05D0022F03D0F1
:1018F000112F01D0122F13D1D0F80880CF6828EA19
:101900000508B74047EA08078760D0F804800F79D8
:1019100028EA0408C7F300179F4047EA0807476012
:10192000D1F804806FEA0807BF0706D1C76AA7434A
:10193000C8F3C0049C403C43C462C468AC438D6897
:10194000B5402543C5604C68E4005ED5344C256E37
:1019500045F001052566246E23F0030504F001041B
:101960000094304C2E19B4689D072F0F09FA07F523
:10197000AC43B0F1904F05D02B4DA84204D10125C6
:101980001CE042E0002519E0284DA84201D10225C3
:1019900014E0274DA84201D103250FE0254DA842B0
:1019A00001D104250AE0244DA84201D1052505E016
:1019B000224DA84201D1062500E00725BD40254360
:1019C000B560DBF800405D464E689443F60300D5F1
:1019D00014432C60DEF8004075464E689443B6030D
:1019E00000D514432C600D4D08352C684E68944387
:1019F000F60200D514432C60084D0C352C684E6857
:101A00009443B60200D514432C605B1C0A6832FA7A
:101A100003F57FF441AF00F013B80000000401406B
:101A20000010024000000140000400480008004887
:101A3000000C00480010004800140048001800483E
:101A400018BCBDE8E08F0AB18161704781627047C0
:101A500001480068704700000000002010B5002415
:101A6000032000F059F8002000F008F808B1012424
:101A700001E000F01BF8204610BD000070B50546DF
:101A800009484FF47A7100240068B0FBF1F000F0CF
:101A90009DFD08B1012404E000222946501E00F0FB
:101AA0001BF8204670BD000004000020094808B55E
:101AB000016E41F001010166016E01F0010100912A
:101AC000816D41F080518165806D00F08050009003
:101AD00008BD000000100240F0B40E4B1B680C461D
:101AE000C3F30223C3F10705042D00D90425191DF2
:101AF000072901D2002300E0DB1E012606FA05F1CA
:101B0000491E214099409E40761E16403143F0BC4C
:101B100002F09EBA0CED00E0064900F007020868EA
:101B20004FF6FF03184040EA0220034A10430860C2
:101B3000704700000CED00E00000FA051649B0F512
:101B4000007F0868C0F3412009D0022805D008684A
:101B500020F4C06040F480600860002070470128D5
:101B6000FBD0086820F4C06040F4007008600B48A7
:101B70003222006850430A4AB0FBF2F0401C00E0F9
:101B8000401E4A69520501D50028F9D1486940052F
:101B9000E3D50320704700000070004004000020DF
:101BA00040420F000248006800F4C0607047000027
:101BB000007000402DE9F84F044600270088E54DED
:101BC0003E46010504F1200B1DD5606E78B1B0F5DD
:101BD000800F11D0B0F5000F04D0B0F5400F22D027
:101BE00001270FE0E86840F48030E8601BE0002146
:101BF000201D02F03DFA03E00021584602F0CEFA23
:101C0000070010D03E462088C00426D5A06EC0B183
:101C1000B0F1807F1AD0B0F1007F0DD0B0F1407FDD
:101C200019D0012718E0D5F88800616E20F4400033
:101C30000843C5F88800E6E7E86840F48030E860CB
:101C400009E00021201D02F013FA03E000215846AC
:101C500002F0A4FA0746F7B13E46206880033AD561
:101C6000A86D4FF00008C00009D4A86D40F0805066
:101C7000A865A86D4FF0010800F080500090DFF8D3
:101C8000D8A2DAF8001041F48071CAF80010FFF70A
:101C9000DFFE814610E0D5F88800A16E20F040708C
:101CA0000843C5F88800D8E7FFF7D2FEA0EB09008B
:101CB000022801D9032705E0DAF80000C005F3D5B2
:101CC000002F7CD04FEA0706B8F1000F03D0A86DB3
:101CD00020F08050A8652078C00707D0D5F888008C
:101CE000A16B20F003000843C5F888002078800726
:101CF00007D5D5F88800E16B20F00C000843C5F843
:101D000088002078400707D5D5F88800216C20F09E
:101D100030000843C5F888002078000707D5D5F8BB
:101D20008800616C20F0C0000843C5F88800207866
:101D3000C00607D5D5F88800A16C20F44070084390
:101D4000C5F888002078800607D5D5F88800E16CB2
:101D500020F440600843C5F888002088800507D536
:101D6000D5F88800E16D20F440200843C5F88800CC
:101D70002088400507D5D5F88800216E20F4401052
:101D80000843C5F888002078400607D5D5F88800B4
:101D9000216D20F440500843C5F8880020780006E3
:101DA00007D5D5F88800616D20F440400843C5F898
:101DB00088002088C00509D5D5F8880000E01CE01F
:101DC000A16D20F440300843C5F8880020884FF00A
:101DD000006780044FF080684FD5D5F88800E16E29
:101DE00020F040600843C5F88800E06EB8423CD15E
:101DF000E86840F48010E8603FE0D5F8900010F407
:101E0000407015D0D4F88410814211D0D5F89000DC
:101E1000D5F8901020F4407041F48031C5F890104E
:101E2000D5F8901021F48031C5F89010C5F89000D5
:101E3000C00710D0FFF70CFE074641F2883906E0D4
:101E4000FFF706FEC11B494501D903263CE7D5F83B
:101E500090008007F4D5D5F89000D4F8841020F4D1
:101E600040700843C5F890002EE7404505D1012198
:101E7000201D02F0FDF800B106462068000317D5CA
:101E8000D5F88800216F20F040600843C5F888002D
:101E9000206FB84204D1E86840F48010E86007E0A1
:101EA000404505D10121201D02F0E2F800B10646AF
:101EB0002068400317D5D5F88800616F20F0406096
:101EC0000843C5F88800606FB84204D1E86840F460
:101ED0008010E86007E0404505D10121201D02F097
:101EE000C7F800B10646208840041AD5D5F8880006
:101EF000A16F20F040500843C5F88800A06FB0F1F2
:101F0000805F03D0B0F1005F05D00AE00221201D00
:101F100002F0AEF803E00221584602F03FF900B1AA
:101F200006462088000407D5D5F88800E16F20F028
:101F300080400843C5F888002068C00307D555F8DD
:101F4000880FD4F8801020F0004008432860304605
:101F500000F004B8001002400070004018BCBDE85A
:101F6000E08F00002DE9F0470F46050058D03F4EA6
:101F7000306800F00700B84209D2306820F007004E
:101F800038433060306800F00700B84248D1287804
:101F9000374CC0072CD06868032811D0022812D013
:101FA000216898B1490500293ADAA16821F00301B6
:101FB0000143A160FFF74CFD804641F2883910E0F3
:101FC00021688901EFE721688903ECE78907EAE7DF
:101FD000FFF73EFDA0EB0801494502D90320BDE80B
:101FE000F087A068696800F00C00B0EB810FEFD1BA
:101FF0002878800705D5A068A96820F0F00008437C
:10200000A060306800F00700B8420BD9306820F0BB
:10201000070038433060306800F00700B84201D054
:102020000120DCE72878400705D5A068E96820F49E
:10203000E0600843A0602878000706D5A0682969F9
:1020400020F4605040EAC100A06000F03BF8A168B5
:10205000084AC1F30311515C01F01F01C840064951
:102060000860BDE8F0470020FFF708BD00200240EF
:1020700000100240C0630008040000200548064923
:1020800000688968054AC1F30221515C01F01F0113
:10209000C84070470400002000100240006400089F
:1020A0000548064900688968054AC1F3C221515CA8
:1020B00001F01F01C84070470400002000100240DA
:1020C0000064000870B52549002318468A68CC686A
:1020D00012F00C0204F00306214C4FEA640509D00B
:1020E0000C2A05D0042A26D0082A00D1284670BD23
:1020F000012E10D10B681B0704D4D1F89430C3F320
:10210000032302E00B68C3F30313164E56F8233083
:102110007AB10C2AEBD1C86800F00302C868C0F39A
:102120000210401C022A08D0032A09D0B3FBF0F0A9
:1021300008E0184670BD204670BDB4FBF0F001E029
:10214000B5FBF0F0CA68C968C2F306225043C1F378
:102150004161491C4900B0FBF1F070BD0010024024
:102160000024F400D06300082DE9F84305007CD07A
:10217000FD4CA06800F00C06E06800F0030728782A
:10218000C00661D576B10C2E01D1012F0AD0A86905
:102190000028206878D040F001002060FFF758FC4C
:1021A000804659E02068800702D5A8690028DED063
:1021B000286A2168090703D5216801F0F00104E0CD
:1021C000D4F89410F02202EA1111884215D902F0D5
:1021D00069F8002849D1206840F008002060206894
:1021E000296A20F0F000084320606068E96920F463
:1021F0007F4040EA0120606015E0206840F0080060
:1022000020602068296A20F0F000084320606068A0
:10221000E96920F47F4040EA01206060286A02F00A
:1022200041F80028D6D1FFF74DFFA168CF4AC1F38E
:102230000311515C01F01F01C840CD490860002026
:10224000FFF71CFC00287DD12FE000BFFFF700FC4A
:10225000A0EB0800022876D820688007F6D5206811
:1022600040F008002060206801E0BBE00CE0296A33
:1022700020F0F000084320606068E96920F47F40A6
:1022800040EA0120606010E020F001002060FFF7CC
:10229000DFFB804606E000BFFFF7DAFBA0EB08009B
:1022A0000228D8D820688007F6D42878C00740D004
:1022B000082E18D00C2E01D1032F14D06868B0F569
:1022C000803F17D0B0F5A02F206817D020F48030C1
:1022D0002060206820F4802020606868E0B1FFF76B
:1022E000B7FB804614E02068800322D56868002888
:1022F00078D01EE0206840F48030EDE740F4802084
:102300002060F7E7FFF7A4FBA0EB08006428A2D841
:1023100020688003F6D50CE0FFF79AFB804605E0C5
:10232000FFF796FBA0EB0800642894D82068800390
:10233000F6D4287880073BD5042E11D00C2E04D17A
:10234000022F01E036E1A1E00AD0E8680028206809
:102350001ED040F480702060FFF77AFB07460CE047
:10236000206840050CD5E8680028C1D008E000BF0F
:10237000FFF76EFBC01B022893D820684005F7D5F5
:102380006068297C20F0F85040EA016060600FE04E
:1023900020F480702060FFF75BFB074605E000BF7C
:1023A000FFF756FBC01B022870D820684005F7D401
:1023B0002878000729D568690028D4F8940012D03D
:1023C00040F00100C4F89400FFF742FB074604E028
:1023D000FFF73EFBC01B022858D8D4F894008007B2
:1023E000F6D512E0EDE020F00100C4F89400FFF70C
:1023F0002FFB074605E000BFFFF72AFBC01B0228A2
:1024000044D8D4F894008007F6D42878400768D5DB
:10241000A06D0027C00008D4A06D40F08050A065DA
:10242000A06D012700F08050009052480168C90556
:1024300012D40168814641F480710160FFF708FB06
:10244000804605E0FFF704FBA0EB080002281DD83A
:10245000D9F80000C005F5D5A868012817D00528CF
:10246000D4F8900018D020F00100C4F89000D4F8FF
:10247000900020F0040000BFC4F89000A86841F26A
:102480008839D0B1FFF7E4FA804611E06BE0D4F868
:10249000900040F00100EFE740F00400C4F8900025
:1024A000F5E700BFFFF7D4FAA0EB080149455AD879
:1024B000D4F890008007F5D50EE0FFF7C9FA804602
:1024C00006E000BFFFF7C4FAA0EB0801494570D849
:1024D000D4F890008007F5D41FB1A06D20F0805093
:1024E000A065A86AF0B30C2E6BD00228206820F0FB
:1024F0008070206004D0206810F0205F47D04AE050
:10250000FFF7A6FA064604E0FFF7A2FA801B0228AE
:102510004FD820688001F7D4286BE96A0001103891
:102520000843696BAA6B0902120941EA4241084358
:10253000A98F114A490802EB4151084395F8401010
:102540004908120102EB41610843E060206840F055
:1025500080702060E06840F08070E060FFF778FAFB
:10256000054610E02BE024E000100240C0630008A4
:1025700004000020007000400000E0FFFFF768FA50
:10258000401B022815D820688001F7D517E0E068C5
:1025900020F00300E060E0680B490840E060FFF7CE
:1025A00057FA054608E000BFFFF752FA401B022821
:1025B00002D90320BDE8F88320688001F4D400200C
:1025C000F8E70120F6E70000FFFFEEFE10B5401E21
:1025D000B0F1807F01D3012010BD4FF0E024606195
:1025E0000F21601701F034FD0020A0610720206159
:1025F000002010BD10B5040003D094F8710010B194
:1026000007E0012010BD002084F87000204600F093
:1026100027F8242084F871002068016821F0010166
:102620000160204601F0E6FF0128EBD0606A10B19E
:10263000204601F04DFF2068416821F4904141603F
:102640002068816821F02A0181602068016841F0DA
:10265000010101602046BDE8104001F09DBF00006F
:1026600010B586B0044614216846FDF777FE13497D
:102670002068884220D11248016E41F480410166F1
:10268000016E01F480410591C16C41F00101C1640A
:10269000C06C694600F0010005904FF4C0600090E6
:1026A0000220019000200290032003900720049054
:1026B0004FF09040FFF7E2F806B010BD003801403F
:1026C000001002402DE9F843044690F871001F46BF
:1026D00016460D4620284BD1C5B1BEB194F8700006
:1026E000012845D0012084F870004FF00008C4F89C
:1026F0007480212084F87100FFF7AAF9A4F85060D3
:102700008146A4F852604FF4805615E00120BDE8E0
:10271000F8838021204602F0BDF8D8B9A068B04205
:1027200001D12069C0B115F8010B21680885B4F802
:102730005200401EA4F85200B4F852004B464FF02D
:10274000000200970028E4D14FF04001204602F03B
:10275000A1F830B10320DAE735F8020BC0F3080026
:10276000E3E7202084F8710084F870800020CEE731
:102770000220CCE7FEE74218491E521E824202D9CF
:1027800022EA0100704788437047000003484FF475
:102790007A710068B0FBF1F070470000040000207F
:1027A00038B5054D0C4604992D6815B100912146A8
:1027B000A847002038BD0000C000002070B50D46BD
:1027C000040008D0FDF722FD216829402160FDF7B3
:1027D00025FD002070BD014870BD0000061C0002F0
:1027E00028B1002102C040600060084670470148DF
:1027F00070470000061C00022DE9F04117460D4607
:1028000006460024FDF702FD0146B80704D53068EE
:1028100028400ED0044607E05DB1306835EA00027A
:1028200007D110EA050404D0F80702D03068A043AD
:1028300030600846FDF7F2FC2046BDE8F08100005C
:102840002DE9F047984615460F46060009D0B068B6
:1028500050B1706840B157B1B8010BD52F48BDE8F1
:10286000F0872E48801DFAE72C48C01DF7E72B485B
:10287000801CF4E7A80701D568070AD4E80808D146
:1028800015F0060F05D002F0AFFC28B12348C01C9C
:10289000E5E72248001DE2E7FDF7B8FC81462A463D
:1028A00039463046FFF7A8FF04000BD1B8F1000FFE
:1028B00008D01B48008838B14846FDF7AFFC1748E0
:1028C000401DCCE7484625E01648424608210468EA
:1028D000301DC4E9127503F0BFFB4846FDF79EFCAE
:1028E00000F0F4FD207940060AD5FDF78FFCA188A1
:1028F00021F04001A180FDF791FC0848401CAEE7A3
:10290000FDF784FC80462A4639463046FFF774FFBF
:1029100004464046FDF782FC2046A0E7001C00026A
:1029200030000020500000202DE9F0410E46040048
:102930004FF0000708D0A06848B1606838B1B00116
:1029400008D51C48BDE8F0811A48801DFAE71948EF
:10295000C01DF7E7FDF75AFC80462068211D304373
:102960002060A068884219D0283812E0C56AC16C7E
:10297000283D8A0702D5826C324205D1490707D526
:10298000816C2268914303D10127082103F08AFB5F
:102990002846011B2431E9D1012F03D04046FDF721
:1029A0003DFC04E04046FDF739FC00F08FFD0020BF
:1029B000C8E70000001C00022DE9F041FF260A28AC
:1029C00002D301461FA015E02549002501EB05149F
:1029D000227882422AD101EB0511496841B188472A
:1029E0000746607850EA070107D001280CD014E0B0
:1029F00001461CA001F082FF1EE004F1080125A0A1
:102A000001F07CFF002608E015480126083804F193
:102A10000801026825A001F071FF642001F0ECF8C4
:102A20006078FF28DDD0B042DBD102E06D1C0A2DBA
:102A3000CCD30A2D00D016B10120BDE8F0810020D2
:102A4000FBE700000D0A496E73706563744944200A
:102A50003D205B25645D204572722E0D0A0000004A
:102A600024010020496E73706563744944203D2041
:102A70005B25645D204572722C496E7370656374CA
:102A800066756E63206973204E554C4C2E0D0A0DF1
:102A90000A000000496E737065637420257320730B
:102AA0007563636573730D0A0D0A0000496E7370D8
:102AB000656374202573206572726F722C67496E8E
:102AC0007370656374457272436E74203D205B259C
:102AD000645D0D0A0D0A000010B500220A2802D319
:102AE00001460CA012E0124B03EB0214247884423E
:102AF00003D103EB0213597002E0521C0A2AF3D3EC
:102B00000A2A01D0002010BD01460AA001F0F6FEFD
:102B1000012010BD0D0A496E73706563744944202D
:102B20003D205B25645D204572722E0D0A00000079
:102B3000240100200D0A496E7370656374494420B6
:102B40003D205B25645D206E6F742066696E642E87
:102B50000D0A000000B587B018216846FDF7FEFB9E
:102B6000094800904FF43470039008A004900920A5
:102B7000ADF804006946084800F05EFF002800D068
:102B8000012007B000BD00009D2B0008496E737046
:102B900065637454736B00002001002000200A4D0F
:102BA00028600AA001F0AAFE0024E0B2FFF704FFAB
:102BB00010B12868401C2860641C0A2CF5D309A0B9
:102BC000296801F09BFEFEE71C0100200D0A4C6FF6
:102BD0007320496E73706563742073746172742E10
:102BE0000D0A0000496E737065637420636F6D7029
:102BF0006C657465642C67496E73706563744572A7
:102C000072436E74203D205B25645D0D0A0D0A0041
:102C100010B520491020086020491F48086002F0C4
:102C2000E7FA040007D01EA001F068FE21461EA0AE
:102C300001F064FE25E003F07FF8040004D018A042
:102C400001F05CFE1FA01AE003F0E0F802F046FD80
:102C5000002817D102F0D6FA002813D102F0D4FBD5
:102C6000040004D00EA001F049FE1BA007E002F012
:102C700045FE040007D00AA001F040FE1BA001F0B1
:102C80003DFE204610BD03F0AFFABDE8104002F053
:102C90008BBA000040000020280B00200800002014
:102CA0005B4552525D2000006F734D656D53797323
:102CB00074656D496E6974206572726F7220256447
:102CC0000A0000006F735461736B496E697420656C
:102CD00072726F720A0000006F73517565756549F5
:102CE0006E6974206572726F720A00006F73537799
:102CF000546D72496E6974206572726F720A0000B9
:102D00004268C1E900024268116041607047426850
:102D1000C1E9000242681160416070474268C1E940
:102D2000000242681160416070474268C1E90002D8
:102D300042681160416070474268C1E90002426820
:102D4000116041607047D0E900121160D0E90012B3
:102D50004A6000214160016070470068FFF7D0BF02
:102D600070B505000C464FF000000CD0002C0AD0C6
:102D7000284602F036FD002805D121462846BDE848
:102D8000704002F093B870BD02F020B970B50C46E7
:102D900005000AD04CB102F055FD012807D02146AC
:102DA000284602F031F9012801D0012070BD002031
:102DB00070BD00002DE9F84FDFF898A00F46050020
:102DC000DAF80040A04603D0502F01D9A80702D05E
:102DD000012000F05DB8FDF719FA8146EE1918E000
:102DE000A068A542204401D8A64203D885420ED24D
:102DF00086420CD318A001F081FDA0683246204421
:102E000000902346294616A001F078FD1BE0A0465D
:102E1000E468002CE4D13946284602F077F990B1F5
:102E2000B7F5805F03D3284602F03CFD58B1DAF8CD
:102E3000001061B1C8F80C500020E8604846FDF76A
:102E4000EDF90020C5E74846FDF7E8F9C0E7CAF804
:102E50000050F1E7D40000205B4552525D20000095
:102E6000706F6F6C205B25702C20307825782920BE
:102E7000636F6E666C696374207769746820706F25
:102E80006F6C205B25702C2030782578290A000093
:102E900018BCBDE8E08F000070B5041E10D0FDF72F
:102EA000B5F9E16804F10C0259B10D4609681160E9
:102EB00006492960A168491CA160FDF7AFF9281DEA
:102EC00070BDFDF7ABF9002070BD0000A55A5AA5F2
:102ED0000A46002806D0002A04D001681046091FBF
:102EE000FDF73CBA7047000070B50C4605004FF086
:102EF00001060ED06CB1FDF789F902462868241F3F
:102F0000C8B1611B1039B1FBF0F300FB131393B987
:102F100001E0012070BDB1FBF0F1686881420AD286
:102F200007492068884206D1E8682060EC60A868FC
:102F3000401E0026A8601046FDF770F9304670BDAF
:102F4000A55A5AA570B515460E46041E04D01DB1EB
:102F5000102E01D3A00701D0012070BDFDF756F956
:102F6000ED1D25F00301103E2160B6FBF1F10023B9
:102F7000C4E9011321B104F110010022E16007E06E
:102F8000FDF74CF9E8E72568521C0D440D60294611
:102F900065686D1E9542F6D80B60FDF73FF900207D
:102FA00070BD000038B5050014D0FDF72FF91749A2
:102FB00002460024486888420FD11046FDF72EF9DA
:102FC000134D144900232A4613A00094FFF7E8FB91
:102FD000284638BD0E48401E38BDD0E900131960A0
:102FE000D0E900134B6020F8064C012100F8081DC1
:102FF00000F108018482C0E9031481604068286000
:103000001046FDF70BF9002038BD0000A00000209D
:10301000031D0002F8C3B2A16F735F756E73706514
:1030200063696669635F66696C6500002DE9F84352
:103030001C4F1D4D4FF000080F2801D33C4616E0F1
:103040001A4900EB4000096801EBC004FDF7DEF807
:1030500006462078B0B1E06804F10801884201D149
:10306000608898B13046FDF7D9F80E4C08342946EF
:10307000002322460EA0CDF80080FFF791FB2046EA
:10308000BDE8F8833046FDF7C9F8D7E70748001DCB
:10309000FFF73DFE84F800803046FDF7BFF80020C2
:1030A000EEE70000011D0002F8C3B2A19C00002061
:1030B0006F735F756E73706563696669635F666978
:1030C0006C6500002DE9F84300263D4DDFF8F480E3
:1030D00089460F2804D300232C462A46009666E032
:1030E000394900EB4000096801EBC004FDF78EF898
:1030F0000746207848B102F077F850B13846FDF71E
:103100008DF82F48001DBDE8F8833846FDF786F896
:10311000E1E72E480568608840B12169A9420BD1DA
:10312000401C60803846FDF779F846E00120608059
:103130002561E888A082F5E7B9F1000F0ED0244898
:10314000008888B11E4C23A0641D01F0D7FB23A08A
:1031500001F0D4FB3846FDF761F825E03846FDF76D
:103160005DF81748C01CCEE7EC612069E988C28889
:103170008A4201D902F060FE4A46082104F10800A3
:1031800002F06AFF3846FDF749F800F09FF9287908
:10319000400612D5FDF73AF8A98821F04001A98030
:1031A000FDF73CF8064CA41D00232246009641463C
:1031B00013A0FFF7F5FA2046A5E70020A3E70000DB
:1031C000011D0002F8C3B2A19C00002050000020A5
:1031D000300000205B4552525D2000002121214C2F
:1031E0004F535F4552524E4F5F4D55585F50454EBD
:1031F000445F494E5F4C4F434B2121210A000000A0
:103200006F735F756E73706563696669635F666926
:103210006C6500002DE9F8432549804600EB480025
:10322000096801EBC004FCF7F1FF0026214DDFF82F
:1032300088900746B8F10F0F08D2207830B11F48A8
:103240006188026811B1206990420CD03846FCF7C1
:10325000E5FF00232A46494619A00096FFF7A0FA89
:103260002846BDE8F883491E0904090C618003D093
:103270003846FCF7D3FF19E0C288A18A8A4201D000
:1032800002F0DAFDE06804F108018842F0D0012183
:10329000618028382061C188A1820821C66102F0BE
:1032A00001FF3846FCF7BAFF00F010F90020D8E71C
:1032B0009C000020011D0002F8C3B2A150000020B4
:1032C0006F735F756E73706563696669635F666966
:1032D0006C6500002DE9F0470D4608985FEA020989
:1032E00000F104018FB206D04FF6FB71884205D978
:1032F0002648BDE8F08725480930FAE7E5B1D8B19E
:10330000DFF88C8005FB07F1D8F80000FFF728FDF7
:10331000060014D0FCF77AFF1E4A0146506890421E
:1033200010D10846FCF77AFF3146D8F80000FFF7C5
:103330002DFD1648401CDCE714480A30D9E7134835
:10334000401ED6E7D0E90023A0F11C041A60D0E9A2
:1033500000235360E5802781012326600022A3809B
:1033600022826582A281E281A0F10802526012608D
:10337000406000600830406000600846FCF74EFF87
:1033800061890020C9F80010B3E7000003060002BD
:1033900008000020AC00002070B504460A2801D3C4
:1033A000204870BDFCF732FF1F49054604EB44007E
:1033B000096800EBC40001EB80029088C0B1194C91
:1033C000916902F11400E41C814213D1106A02F1E8
:1033D0001C0188420ED1936A02F12400834209D174
:1033E000508A138A1844D388984208D0E41C01E01C
:1033F0000C4C641D2846FCF711FF204670BD0020D0
:103400001468106090800848001DFFF787FC28466C
:10341000FCF704FF054821460068BDE87040FFF74F
:10342000B5BC000005060002A8000020080000202E
:103430007FB582B01C460D46064604AA02F0CAF8C3
:10344000002806D1042104AB2A463046009402F03D
:1034500009F806B070BDF8B51C4615460E4607467D
:1034600002F0B8F8002806D100212B463246384633
:10347000009401F0F7FFF8BD3FB581B00546042088
:1034800003901C4603AA2846029902F0BDF80028C2
:1034900006D1072103AB02AA2846009401F0E2FFFF
:1034A00005B030BD7FB582B01C460D46064604AA65
:1034B00002F0AAF8002806D1032104AB2A463046C0
:1034C000009401F0CFFF06B070BD000010B5FCF70E
:1034D0009DFE044601F022FF0A4928384860096829
:1034E000814202D00848008820B12046BDE8104043
:1034F000FCF794BE2046FCF791FEBDE81040FCF7B7
:1035000090BE000050000020300000200A464FF618
:10351000FF7102F095B800002DE9F8431A4F1B4DDA
:103520004FF00008142801D33C4612E018490968FE
:1035300001EB0014FCF76AFE06462088A0B1E068A3
:1035400004F10801884213D03046FCF767FE0E4CA8
:1035500008342946002322460EA0CDF80080FFF74C
:103560001FF92046BDE8F8833046FCF757FEDBE73D
:103570000748001DFFF7D9FBA4F800803046FCF790
:103580004DFE0020EEE7000001070002F8C3B2A1E3
:10359000B40000206F735F756E7370656369666950
:1035A000635F66696C6500002DE9F8430026324FC1
:1035B000DFF8C8808946142804D300233C463A46E5
:1035C000009650E02E49096801EB0014FCF71EFE3E
:1035D0000546208838B1608848B1401E6080284682
:1035E000FCF71CFE46E02846FCF718FEE5E7B9F1BB
:1035F000000F09D001F0F8FD48B11F4C21A0241D97
:1036000001F07CF921A00BE01B4CE41C25E02848CC
:10361000008840B1184C1BA0641D01F06FF925A073
:1036200001F06CF919E02C484A460821076804F1BA
:103630000800BC6102F010FD2846FCF7EFFDFFF723
:1036400045FF3879400615D5FCF7E0FD0546B888FA
:10365000094C20F04000B880A41D2846FCF7DEFD90
:1036600000232246009641461CA0FFF799F8204609
:10367000BDE8F8830020FBE701070002F8C3B2A110
:10368000B40000205B4552525D2000002121214CF6
:103690004F535F4552524E4F5F53454D5F50454E1D
:1036A000445F494E544552522121210A0000000036
:1036B000300000202121214C4F535F4552524E4F84
:1036C0005F53454D5F50454E445F494E5F4C4F43FD
:1036D0004B2121210A000000500000206F735F750C
:1036E0006E73706563696669635F66696C65000027
:1036F0002DE9F8432149224F1428096801EB0014F1
:1037000002D33846BDE8F883FCF780FD06462088E2
:10371000DFF87080002588B1A0886188884215D1C3
:103720003046FCF77BFD164C0023E41D2246009535
:10373000414615A0FFF734F82046E3E73046FCF792
:103740006DFD00233C463A460095F1E7E06804F140
:10375000080290420BD040F8105C0821283802F093
:10376000A1FC3046FCF75AFDFFF7B0FE04E0491C0F
:1037700061803046FCF752FD0020C3E7B400002012
:1037800001070002F8C3B2A16F735F756E737065B5
:1037900063696669635F66696C65000010B502F075
:1037A000B5FC040006D005A001F0A8F805A001F0C2
:1037B000A5F801E0FCF704FD204610BD5B45525220
:1037C0005D2000006F735469636B537461727420E1
:1037D0006572726F720A00002DE9F05F9846DDE9AC
:1037E0000B76DDF828B091460D465FEA000A07D057
:1037F0004DB1012D07D0022D05D0204800F042B870
:103800001E48401EFAE7B9F1000F08D0B8F1000FCA
:1038100008D057B1012F08D018480F30EEE71748ED
:10382000801EEBE71548401CE8E7012E03D016B1D7
:1038300012481030E2E7FCF7E9FC11494C69C4B1C9
:1038400022684A61FCF7EAFCC4F818906571002010
:1038500044F80C0BA4E8010C012004F8127C04F8D5
:10386000116C04F8140C34F8101CA8F80010002097
:10387000C4E7FCF7D3FC0148801CBFE70203000249
:103880001400002030BCBDE8C09F00002DE9F041CD
:10389000064600254FF6F070DFF85C80864202D3C2
:1038A0004046BDE8F081FCF7B1FC1449074606F03C
:1038B0000F000969C0EBC00001EB80042089B04211
:1038C00003D03846FCF7AAFCEAE7207950B101287A
:1038D0000ED0022809D0084D09353846FCF79EFC69
:1038E0002846DEE7044D6D1CF7E7204602F0A0F9FC
:1038F000204602F07DF9F0E70503000214000020E5
:103900002DE9F041074600254FF6F070DFF8AC8056
:10391000874202D34046BDE8F081FCF777FC284996
:10392000064607F00F000969C0EBC00001EB8004F8
:103930002089B84203D03046FCF770FCEAE7E17911
:10394000012923D16179012920D100F00F021D48FE
:103950000A2350F8221041F0804140F822102269D9
:10396000B2FBF3F703FB172282B9227A41F0005130
:1039700002F00F0240F822102269B2FBF3F2237A20
:1039800062F3170103F00F0340F82310207950B1C0
:1039900001280ED0022809D0084D09353046FCF721
:1039A0003DFC2846B7E7054D6D1CF7E7204602F0C1
:1039B0003FF9204601F0E2FFF0E7000005030002B6
:1039C00014000020400200202DE9F04105460024AB
:1039D0004FF6F070164F854202D33846BDE8F081AD
:1039E000FCF714FC1349064605F00F000969C0EB0B
:1039F000C00001EB80000189A94203D03046FCF7EA
:103A00000DFCEAE7017951B101290BD002290CD054
:103A1000074C09343046FCF701FC2046DEE7044C35
:103A2000641CF7E7024C0834F4E702F001F9F1E70F
:103A3000050300021400002070B5044600F034F8BD
:103A4000002829D1174D2068C0EBC000E96800EBC1
:103A5000400001EB8004FCF7D9FB0646A08820F06B
:103A6000020040F00400A080E18804F1280001F089
:103A700011FC01F053FC05F1200128384860EA6987
:103A80005AB12A884AB90968814206D03046FCF703
:103A9000C5FB01F0D3FD002070BD3046FCF7BEFB36
:103AA000F9E70000300000202DE9F0470D465FEAFD
:103AB00000084FF0FF3A16D0C5B12869C8B129688F
:103AC000D1B1AA8846481F2A0BD802D1454A914253
:103AD00007D14549454AE868511A88420FD94048FC
:103AE0001D30BDE8F0873E48001DFAE73C48801EC7
:103AF000F7E73B48801CF4E73948401CF1E710B970
:103B00004FF43470E8600821FEF735FEE860B0F548
:103B1000987F02D23248C01CE3E7FCF777FB0646E9
:103B20004FF00009324C10E0A1F128070846FFF7DA
:103B30000AF92F4807F128010838FFF7E1F82A4869
:103B4000F968FFF723F9C7F80C906168A142EBD13F
:103B5000274908394868884202D1214C0E3439E09F
:103B6000A0F12804FFF7EFF83046FCF757FB276970
:103B700008221D48E968FFF707F9060020D0024631
:103B80003846E96802F038FB2060A868E6602062E9
:103B9000E868C4F81890C4F81C900221A060A180C5
:103BA000A988E1802968C4F83CA0C4F84890616104
:103BB0002969C4F8509061620020C8F8007090E74D
:103BC000FCF724FB06460A4804F128010838FFF7F1
:103BD00097F8084C3046FCF721FB204681E70000AF
:103BE00003020002A5510008280B002000800120DC
:103BF000680000200002000370B5054601F0F4FAE9
:103C000008B1154870BD1548008808B1144870BD4A
:103C1000EDB1FCF7FBFA114C064620342068283041
:103C200001F01CFB2068818821F004018180294675
:103C3000206802F027F82068818841F02001818007
:103C40003046FCF7EBFAFFF741FC002070BDBDE801
:103C5000704000F069B900000D0200033000002040
:103C60000E0200022DE9F047494D07464FF0FF3A9A
:103C70006869874202D14748BDE8F087A869874252
:103C800002D144480D30F7E72869874202D3414802
:103C90000D38F1E7FCF7BAFA8046C7EBC700E968D0
:103CA00000EB400001EB8004A688F00706D0394CF9
:103CB00040460A3CFCF7B2FA2046DDE7F0064FF03A
:103CC000000903D5288808B1A5F80090700708D529
:103CD00004F1280001F0C2FAA08820F00400A080BE
:103CE00007E042F20800064203D004F12800FFF783
:103CF0002AF816F0600F02D0204602F03FFAA088A2
:103D000020F0020040F00100A080C4F83CA0C4F8FC
:103D1000489001F003FB1E4E4FF0010A2036283870
:103D200070602079C0061FD504F1280106F1180043
:103D3000FFF713F82869E968C0EBC00000EB40000A
:103D400001EB8000306007613168A08888803068AE
:103D5000E168C160616A4162A4F804A04046FCF7D2
:103D60005DFA01F06BFC10E00948A4F804A004F12E
:103D700028013030FEF7C4FF0748E168FFF706F876
:103D80004046C4F80C90FCF749FA002074E70000A4
:103D90003000002014020002280B002010B5FCF7B0
:103DA00035FA044A1188491C1180BDE81040FCF71F
:103DB00035BA00003000002070B50F2801D91F4827
:103DC00070BD1F4DC0EBC00000EB4000E96801EB87
:103DD0008004FCF71BFA0646A088C10702D0174CE6
:103DE000E41C03E0810706D4144CA41C3046FCF705
:103DF00015FA204670BD20F0020042F22A41A08050
:103E0000084216D140F00400A080E18804F12800A7
:103E100001F040FAE86930B13046FCF7FFF9FFF7EE
:103E200055FB002070BD01F079FA05492031283892
:103E300048603046FCF7F2F9F3E7000007020002A1
:103E4000300000202DE9F041284D06466869864281
:103E500002D12748BDE8F081A869864202D12448F2
:103E60000D30F7E72869864202D321480D38F1E783
:103E7000C6EBC600E96800EB400001EB8004FCF7EC
:103E8000C5F90746A088C10702D0194C0A3C09E0D1
:103E9000810702D5164C0C3C04E0C10607D52988E1
:103EA00029B1144C3846FCF7B9F92046D2E740074F
:103EB00007D504F1280001F0D1F9A08820F0040012
:103EC000A080A08840F00200A08008482030006850
:103ED0000069B042384604D1FCF7A0F9FFF7F6FAC2
:103EE00001E0FCF79BF90020B4E70000300000205F
:103EF000140200021502000310B5FCF787F9094906
:103F00000A8822B1521E1204120C0A8003D0BDE8A6
:103F10001040FCF783B9FCF781F9BDE81040FFF7CA
:103F2000D5BA00003000002070B5194CA4F1200271
:103F3000206812690169914201D3164870BD007969
:103F4000400701D4002070BDFCF760F905462068E9
:103F5000C08801F0D1F9012813D920682830FEF774
:103F6000F2FE2068818841F0040181802068C188C8
:103F7000283001F08FF92846FCF750F9FFF7A6FA30
:103F8000E0E72846FCF74AF90248093070BD000016
:103F900050000020070200020149D1E900017047EA
:103FA0008800002010B586B014216846FCF7D6F9C9
:103FB0001548C16C41F08001C164C16C01F0800101
:103FC0000591C16C41F00201C164C16C01F00201B4
:103FD0000591C16C41F00101C164C06C0B4C00F053
:103FE00001000590002203212046FDF72CFD03204F
:103FF000009001200021CDE901010391694620468E
:10400000FDF73CFC06B010BD001002400004004863
:104010000D4810B50B4901604FF4E13141600021BA
:1040200081600C22C160C0E904128161C16101623A
:104030004162FEF7DFFA002803D0BDE81040FCF72C
:10404000F6B910BD00380140C8010020FEE77047F6
:104050000907090E002806DA00F00F0000F1E02041
:1040600080F8141D704700F1E02080F800147047BC
:104070002DE9F041444C05468846E068002681075A
:1040800028680DD0E16801F00301814216D1A8B182
:10409000E0686968C0F30210401C88420ED120E03D
:1040A000012804D0022805D0032807D108E02168A0
:1040B000890701E021684905002907DB01265FE047
:1040C0002168890302D421684903F5E7E1686A6839
:1040D0006FF00F0321F0730103EB02121143014350
:1040E000E160206820F080602060FDF7B1FC0746A9
:1040F00005E000BFFDF7ACFCC01B022837D82068E4
:104100000001F7D4B8F1000F18D0B8F1010F1ED09C
:10411000287D4FF07E41400801EB4060A96840EAED
:1041200001202169194A114008432061206840F0AC
:1041300080602060FDF78CFC07461AE0A868E968FB
:104140000002090940EA41402169114AEBE7288A47
:104150001049400801EB4050A96840EA012021695C
:104160000D4AE0E7FDF774FCC01B022801D90326C5
:1041700006E020680001F5D52069A969084320619F
:104180003046BDE8F081000000100240FF80FFF9DA
:10419000FF80FDFF0000E0FFFF809FFF2DE9F04161
:1041A0003D4C06468846E0680025810730680DD002
:1041B000E16801F00301814216D1A8B1E06871689D
:1041C000C0F30210401C88420ED120E0012804D028
:1041D000022805D0032807D108E02168890701E0FB
:1041E00021684905002907DB012551E02168890381
:1041F00002D421684903F5E7E16872686FF00F03A4
:1042000021F0730103EB021211430143E1602068C6
:1042100020F080502060FDF71BFC074605E000BF42
:10422000FDF716FCC01B022829D820688000F7D4AF
:10423000B8F1000F15D0307C4FF07E41400801EB03
:104240004060B16840EA01206169144A11400843A6
:104250006061206840F080502060FDF7F9FB074660
:104260000FE0B068F1680002090940EA4140616965
:104270000B4AEBE7FDF7ECFBC01B022801D9032535
:1042800006E020688000F5D56069716908436061C7
:104290002846BDE8F081000000100240FF80FFF9D1
:1042A000FF80FDFFF8B51C4D06460024A86DC00038
:1042B00002D5FDF777FC0DE0A86D40F08050A865B1
:1042C000A86D00F080500090FDF76CFCA96D21F006
:1042D0008051A965B0F5007F04D0802E07D94FF03A
:1042E00003040AE0802E08D9A02E01D804E001D1F1
:1042F000022402E0702E00D101240848016821F058
:10430000070121430160006800F00700A04201D0CE
:104310000120F8BD0020F8BD00100240002002403E
:10432000704700000648006808B101F0DBBE054890
:10433000D0E90012491C42F10002C0E900127047A6
:10434000780000208800002030B5B9B0442122A8B0
:10435000FCF704F8142133A8FCF700F8882168461C
:10436000FBF7FCFF01252804CDE92250022003249D
:104370001221CDE92E51CDE92C040721CDE93010D1
:10438000329022A8FDF7F0FE0F20CDE9330400247F
:1043900035943694042133A83794FDF7E3FD68463D
:1043A00000950E94FDF706FC6802FDF7C7FB39B0D7
:1043B00030BD00000D48016841F4700101600C48F7
:1043C000016841F001010160002181600268094B30
:1043D0001A4002608214C260026822F480220260E5
:1043E00081610249C00380390860704788ED00E0B0
:1043F00000100240FFFFF6EA70B5084C2068401C30
:104400002060FFF7C9FD054605A0216800F076FA97
:104410002946BDE8704008A000F070BA14010020E1
:10442000675F74696D6572636F756E74313D256485
:10443000202E0D0A000000007469636B5F6C6173CD
:1044400074313D2564202E0D0A00000010B5FFF7E1
:10445000A3FD04460B484168491C41600AA000F0D6
:104460004DFA21460EA000F049FA00210620FEF781
:1044700033FB002804D0BDE810400EA000F03EBA87
:1044800010BD000014010020675F74696D657263E0
:104490006F756E74323D2564202E0D0A00000000F9
:1044A0007469636B5F6C617374323D2564202E0DFB
:1044B0000A00000053657420496E737065637420B0
:1044C00053746174757320457272202E0D0A0000BA
:1044D00090F82410C90706D001684A68836A22F45C
:1044E00000321A434A6090F82410890706D5016803
:1044F0004A68C36A22F480321A434A6090F8241052
:10450000490706D501684A68036B22F480221A43E2
:104510004A6090F82410090706D501684A68436B81
:1045200022F400421A434A6090F82410C90606D5C6
:1045300001688A68836B22F480521A438A6090F87B
:104540002410890606D501688A68C36B22F40052DC
:104550001A438A6090F82410490611D501684A6808
:10456000036C22F480121A434A60016CB1F5801F7B
:1045700006D101684A68436C22F4C0021A434A60BB
:1045800090F82410090606D501684A68806C22F468
:10459000002202434A607047F8B500260446466789
:1045A000FDF756FA0546206800686FF07E47000761
:1045B00008D52B4600224FF400112046009700F04A
:1045C00069F960B92068006840070AD52B460022C7
:1045D0004FF480012046009700F05CF908B10320F9
:1045E000F8BD202084F8710084F8720084F87060AF
:1045F0000020F8BD2DE9F041044601688068236978
:10460000E669184363691025002733431843954A28
:104610000B68954E334003430B6020684168E368A4
:1046200021F44051194341602168A069914201D0B1
:10463000236A18438B6823F4306303438B608B4BEE
:1046400021688B4899420DD1D0F8880010F0030002
:1046500006D001285AD0022856D0032859D157E055
:10466000012556E0834B99420BD1D0F8880010F019
:104670000C0047D0042849D0082845D00C2848D140
:1046800046E07D4B99420BD1D0F8880010F0300005
:1046900038D010283AD0202836D0302839D137E009
:1046A000764B99420BD1D0F8880010F0C00029D089
:1046B00040282BD0802827D0C0282AD128E0704B52
:1046C00099420ED1D0F8880010F440701AD0B0F59D
:1046D000807F1BD0B0F5007F16D0B0F5407F18D199
:1046E00016E0914215D1D0F8880010F4406009D04E
:1046F000B0F5806F0AD0B0F5006F05D0B0F5406F0F
:1047000007D105E0002504E0022502E0042500E0D1
:1047100008255C4B00264FF4004091423DD135B155
:10472000022D07D0042D07D0082D10D107E0FDF78A
:10473000A5FC03E0184602E0FDF7C4FCA8B36268DC
:1047400002EB4201814202D8B0EB023F01D90127BE
:1047500075E0DFF834815DB1022D0CD0042D13D04B
:10476000082DF4D150082905401846F1000105E054
:10477000FDF784FC0AE050084449F5E70023FBF705
:10478000A0FDA0F5407156E0FDF79CFC6268010EAB
:104790000302500818187141F0E7E1694FF6EF780D
:1047A00081422FD1092DD2D200E048E0DFE805F0A8
:1047B00006092005230505052600C8E7FDF75EFC70
:1047C00001E0FDF76DFC4100D4F8040001EB50015D
:1047D000B1FBF0F080B2A0F110014145B7D84FF61F
:1047E000F0710140C0F3420001432068C16026E03F
:1047F00027496068EAE7FDF765FCE4E74FF480319C
:104800006068E3E7092DA2D2DFE805F006091E057E
:104810002205050525009AE7FDF730FC01E0FDF7CC
:104820003FFC0146606801EB500100BFB1FBF0F0B6
:1048300080B2A0F11001414589D82168C860266680
:1048400038466666BDE8F081606803EB5001EDE72D
:10485000FDF738FCE5E7616800EB5100B0FBF1F0D3
:10486000E6E7000000800040F369FFEF00380140F8
:10487000001002400044004000480040004C00404E
:10488000005000400024F400FFFC0F00000024F45E
:104890000048E8012DE9F041984617460E460446C7
:1048A000069D1DE0681C1BD02DB1FDF7D1F8A0EBD3
:1048B0000800A84214D92068016821F4D071016071
:1048C0002068816821F001018160202084F8710056
:1048D00084F87200002084F870000320BDE8F081A5
:1048E0002068C06936EA000004D00020B842D9D060
:1048F0000020F3E70120F9E7FEE700000FB4054BC5
:1049000010B503A9044A029800F018F810BC5DF82D
:1049100014FB0000A54D0008C401002002E008C8F7
:10492000121F08C1002AFAD170477047002001E029
:1049300001C1121F002AFBD1704700002DE9FF4F73
:104940008DB00F460546002606E025280BD0DDE990
:104950000F1290476D1C761C28780028F5D111B0F5
:10496000304600F0F3B90024A246A1460122EC49EA
:1049700000E0044315F8013F203B02FA03F008422F
:10498000F7D128782A2810D06FF02F022878A0F1CC
:104990003001092914D80AEB8A0102EB410144F0E5
:1049A000020400EB010A6D1CF0E701CF5FEA000A88
:1049B00003D544F40054CAF1000A44F002046D1C0B
:1049C00028782E2817D115F8010F44F004042A285E
:1049D0000ED06FF02F022878A0F1300109290AD8F3
:1049E00009EB890102EB410100EB01096D1CF2E7C3
:1049F00057F8049B6D1C28786C280FD006DC4C28D7
:104A000017D068280DD06A2814D104E0742810D07B
:104A10007A280FD10DE044F400140AE044F4801425
:104A200001E044F440146978814202D104F5801415
:104A30006D1C6D1C2A786E2A1FD00CDC632A31D0C5
:104A400004DC002A8BD0582A11D1A3E0642A68D054
:104A5000692A0CD165E0732A2ED004DC6F2A73D04A
:104A6000702A04D19BE0752A6FD0782A6ED0104648
:104A7000DDE90F129047761C50E1C4F30250022882
:104A800006D0032809D0042801CF09D0066045E1EB
:104A900001CFF117C0E9006140E101CF06803DE19F
:104AA00006703BE117F8040B8DF8000000208DF82C
:104AB0000100EB46012003E057F804BB4FF0FF3044
:104AC00061074FF0000102D40DE008F101018846B2
:104AD00049450FDA8045F8DB1BF808100029F4D1AE
:104AE00008E008F1010188468142FADB1BF8081052
:104AF0000029F6D1DDE90F23AAEB08008146214603
:104B000000F039F9304400EB080604E0DDE90F124B
:104B10001BF8010B9047B8F10108F7D2214648462F
:104B2000F7E00A21C4F302534FF0000B0891022B67
:104B300004D001CFC117032B09D00AE0FF1D27F0D5
:104B40000707F7E8020108E032E01FE020E000B2CA
:104B5000C117042B01D140B2C117031E71F100032C
:104B600007DA4FF0000CD0EB0C006CEB01012D23A9
:104B700002E0230504D52B238DF82430012303E024
:104B8000E30701D02023F7E7984658E00A2110E018
:104B900010210EE010204FF0000B08900CE01021C7
:104BA0004FF0000B44F004044FF00809089103E0B3
:104BB00008214FF0000B0891C4F30253022B04D0DC
:104BC00001CF0021032B06D006E0FF1D27F00707C9
:104BD000F7E8020103E080B2042B00D1C0B24FF02D
:104BE000000823072BD5702A07D0DDF820C08CF0F1
:104BF000100C5CEA0B0C05D00EE040238DF824303D
:104C0000012308E050EA010306D030238DF8243058
:104C10008DF8252002239846DDF820C08CF0080C82
:104C20005CEA0B0C0BD150EA010301D1630706D5F6
:104C300030238DF824304FF00108A9F10109582ADA
:104C400004D038A20B9208AA0A920BE03AA2F9E724
:104C50005B46089AFBF735FB0B9B9B5C0A9A521E3E
:104C60000A92137050EA0102F2D10A98ADEB0000EB
:104C700000F1200B600702D524F4803401E04FF0EE
:104C80000109D94502DDA9EB0B0000E0002000EB93
:104C90000B0141440890AAEB010AE00306D4DDE9C8
:104CA0000F232146504600F066F806444FF00009F5
:104CB00008E009A911F80900DDE90F12904709F190
:104CC0000109761CC145F4DBE0030CD5DDE90F23B7
:104CD0002146504600F04FF8064404E0DDE90F128B
:104CE00030209047761C0899481E08900029F5DC72
:104CF00008E00A980A990078491C0A91DDE90F1228
:104D00009047761CBBF10001ABF1010BF1DC2146B1
:104D10005046DDE90F2300F01CF806446D1C1BE62D
:104D20000928010030313233343536373839616281
:104D30006364656600000000303132333435363745
:104D400038394142434445460000000030BCBDE8CC
:104D5000C08F2DE9F041044600251E461746880401
:104D600004D405E039462020B0476D1C641EF9D5F7
:104D70002846BDE8F0812DE9F041044600251E4695
:104D80009046C80301D5302700E02027880404D5C9
:104D900005E041463846B0476D1C641EF9D52846EB
:104DA000BDE8F08113B54FF6FF7301226946024852
:104DB000FDF788FC00981CBDC801002010B5FCF769
:104DC0004DFEFFF7C1FAFFF7EDF8FFF721F9FDF708
:104DD0001FFF08B1012010BDFDF7BCFEFEF7DEFC91
:104DE000FEE710B586B0044614216846FBF7B6FA14
:104DF0006946204600F0B2F906B010BD4A0900EB42
:104E000082020068121D884206D901F01F030121A9
:104E10001068994088431060704730B502C81F3150
:104E20004B0900210A4614E00468641C0FD0046892
:104E3000E34301E05B08491C002BFBD14B1E01251D
:104E40009D402C43046001EB4210401E30BD001D0C
:104E5000521C9A42E8D34FF0FF3030BD02688A42BC
:104E600001D8002070474A0900EB820001F01F02C0
:104E70004068012191400840F4D00120704770B58E
:104E8000054601600C4601F11F00C108281DFBF713
:104E900065FAE00608D004F01F014FF0FF308840AB
:104EA000610905EB8101486070BD00002DE9F0410A
:104EB00000240D462746061E5ED0FBF7A7F9804664
:104EC000ED1C25F00305706810E041684A000CD421
:104ED00021F04041A94208D324B1626822F0404247
:104EE0008A4202D90446A94221D000680028ECD1A8
:104EF000ECB3606820F04040401B082817D96219C5
:104F000052F80C0F20F0804042F804096168491BF8
:104F1000083961F31D00C2E900402146304600F027
:104F200012F928B30260606865F31D00606054F8F0
:104F3000040F20F0004040F0804001C41448274690
:104F40008168294408318160C268914200D9C160FA
:104F50000168491C01607068406820F04040B0F56D
:104F6000806F02D23046FFF73CFF404601E005E08B
:104F70000CE0FBF753F93846BDE8F08105A0FFF7D8
:104F8000BDFC294605A0FFF7B9FCE4E77260CAE75B
:104F9000C40000205B4552525D20000074686572B9
:104FA000652773206E6F7420656E6F756768207754
:104FB000686F6C6520746F20616C6C6F632025785E
:104FC000204279746573210A0000000070B5144610
:104FD00028B121B1042C02D3651E2C4201D000203F
:104FE00070BD2144091FFFF761FF0028F8D00119A7
:104FF000491EA9438842F3D0081A40F0004041F806
:10500000040C084670BD00002DE9F04101260C4655
:10501000050018D0BCB154F8040C002802DA20F0C6
:1050200000400C1A2868A04203D868680830A042E3
:105030000BD22EA0FFF762FC21462EA0FFF75EFCEC
:105040000020BDE8F0810120FBE7FBF7DFF8A4F1C9
:1050500008020746506840000ED5286890420DD0DF
:105060001168814208D368680830814204D8284614
:1050700000F069F8904201D0002631E05068224BE0
:1050800020F0804020F040415060986801F1080411
:10509000844204D8401A0838986000E0024610683C
:1050A00068B141684900F9D509E0546821440831E4
:1050B00061F31D0454606968814200D16A60114641
:1050C000284600F040F810B141684C00EDD511467B
:1050D000284600F038F800B102605868401C58605B
:1050E0003846FBF79BF83046ABE700005B45525271
:1050F0005D20000030782578206F7574206F662061
:1051000072616E6765210A00C400002070B50E460A
:105110000446050001D0582E01D8002070BD20465D
:10512000FBF71CF950342C60C5E901466068583E15
:1051300020F08040606000202060606866F31D0001
:105140006060012070BD4068884201D10020704736
:10515000486820F0404008440830704730B50022CD
:1051600078B171B1436807E05C68650003D524F04D
:105170004044224408321B68002BF5D183689342D7
:1051800001D2012030BD4A6080680860801A8860C2
:1051900003480268CA6040680861002030BD000012
:1051A000C4000020FEE7000000B587B01821684663
:1051B000FBF7D4F8074800904FF4A060039006A0D6
:1051C00004901F20ADF8040069460648FEF734FC41
:1051D00007B000BDA551000849646C65436F726556
:1051E0003030300044000020EFF3058070470000AD
:1051F00002480349091AFDF7DDBD0000280B002015
:10520000008001202DE9F04111484FF4B471406055
:10521000006010480068FDF7A3FD0D4D2D1F2860AC
:1052200098B1002426462F1D296804EB440001EBA9
:10523000C0014C6001F8086B3868FDF768FD641C1C
:105240000F2CF1D30020BDE8F0810348FBE70000FC
:10525000A000002008000020001D0002D0E900127C
:105260001160D0E900124A6000214160016030F80D
:10527000221C0748426802EBC1025368934205D1E1
:105280004FF00042CA40016891430160704700003E
:105290000C0000200A4B10B55A6802EBC10254689A
:1052A000944205D14FF00044CC4019680C431C6077
:1052B00011684A68C0E900124A681060486010BD71
:1052C0000C00002010B50A4800244FF480710068DB
:1052D000FDF746FD07490028486007D0486800EB05
:1052E000C400641C40600060202CF7D310BD000097
:1052F000080000200C0000200749034600204A68EF
:1053000002EBC30102EBC302496801E04968401C9B
:105310008A42FBD1704700000C000020054801685C
:1053200031B14068B1FA81F100EBC10040687047CB
:10533000002070470C0000202DE9F0411E46044675
:10534000134611F003004FF000050BD0012812D0D6
:10535000032817D022A0FFF7D1FABDE8F04122A020
:10536000FFF7CCBAA089E788421CBA4201D1A581D7
:1053700010E0A2810EE0A08900B9E088401EA08163
:1053800080B207E0E089E788421CBA4201D1E5819A
:1053900000E0E2812289256800FB025548074FEAB8
:1053A000C17007D518B118682860BDE8F081286879
:1053B0001860FAE750B1194628463268FAF7B5FF87
:1053C00020892D1F284431680160EEE7281F104412
:1053D0002946046818462246FAF7A7FF3460E4E736
:1053E0005B4552525D200000696E76616C696420F5
:1053F0007175657565206F7065726174652074796B
:105400007065210A0000000070B513484FF4DC7489
:1054100021460068FDF7A4FC104D2860D0B121465C
:10542000FAF79CFF281D0024406000604FEA000648
:1054300004EB4400296800EBC40001EB80014C81BF
:105440001C313068FDF76AFC641CA4B20A2CEFD34F
:10545000002070BD024870BD08000020A800002098
:10546000010600022DE9FF5F9A460F46044600251B
:1054700001F00106DDF838B0FAF7C8FE4F49814661
:1054800004EB4400096800EBC40001EB8004A08831
:1054900050B1F8072089DAF80010A0F1040006D016
:1054A000814209D9464D83E0454D0B3D80E0814264
:1054B00002D2434D0A357BE004EB4600018A91B1EC
:1054C000491E0182534639462046029AFFF734FFAF
:1054D000002E37D04FF0000004EBC000816934D1BA
:1054E0004FF0010032E0BBF1000F05D035480088D5
:1054F00050B1334D0F3D5BE0F80702D0304D6D1CCD
:1055000056E02F4D083553E02F485A464FF40051CE
:10551000D0F8008004EBC600143000F09DFD484632
:10552000FAF77CFEFDF7D2FFFAF770FE8146B8F875
:1055300004004106C6D5224D20F04001A8F8041011
:105540000E3D35E04FF00100C6E7002004EBC0003F
:105550001430814215D096B15FF0000004EBC0001A
:105560004FF400518069283800F09CFD4846FAF756
:1055700055FEFDF7ABFF002004B000F027B8012076
:10558000ECE7002E0CD000BF4FF0000004EB400011
:10559000008A00F1010080B205D14FF0010104E062
:1055A0004FF00100F2E74FF0000104EB41010882E7
:1055B0004846FAF733FE2846DEE70000A800002040
:1055C00015060002300000205000002030BCBDE86D
:1055D000C09F000010B50A2801D30A4810BD49B188
:1055E00042B1106848B15BB1FFF7FEFD40B105481C
:1055F0000A3010BD0348401C10BD0248801C10BD7D
:10560000002010BD0E06000210B50A2801D30A487A
:1056100010BD41B1106848B15BB1FFF7E5FD40B185
:105620000548401F10BD0448001D10BD0248401D24
:1056300010BD002010BD00000E060002FAF7F1BDFB
:105640002DE9F84315000E46074606D01B4C4FF0D7
:105650000008B74205D91A4D0FE01948801FBDE870
:10566000F883FAF7D3FD174A0146506890420ED1ED
:105670000846FAF7D3FD124D6D1F214600232A4636
:1056800011A0CDF80080FDF78BF82846E7E7D0E9B8
:1056900000231A60D0E90023536020F8067C012221
:1056A00020F8082D00F108028680C2608260C08860
:1056B00028600846FAF7B2FD0020D0E7F8C3B2A18F
:1056C00008070002B80000206F735F756E73706585
:1056D00063696669635F66696C6500002DE9F04186
:1056E00010484FF4A071406000600F480068FDF75B
:1056F00037FB0C4D2D1F286090B1002426462F1D2E
:10570000286800EB0411CC8021F8086B3868FDF79D
:105710000CFB641CA4B2142CF2D30020BDE8F08171
:105720000248FBE7B8000020080000200007000244
:1057300010B504468068FFF770FB002801DA0020EE
:1057400010BDD4E9001201FB002010BD10B50346C6
:105750004068081A1968B0FBF1F4B0FBF1F201FBE4
:10576000120068B998680168A14209D92146FFF77B
:1057700075FB28B121469868FFF740FB012010BD5A
:10578000002010BD2DE9F0411F460B4607F11F0117
:10579000042404EBD1018E18511E9D18761E6D1E37
:1057A0008E438D4305FB07610C31FFF77FFB04003F
:1057B00008D004F10C0081192560C4E901103946B4
:1057C000FFF75DFB2046BDE8F0814DF6DE6220F874
:1057D000022B00F8021B002100F8011C704710305A
:1057E000704770B50E46FFF7FAFF00240546802E7D
:1057F00026D805EB04100068B0421ED3FAF706FD68
:1058000005EB04140646D4E90101814211D2E06897
:1058100078B1FFF78DFF050006D02168FFF7D5FFAF
:105820000546A068401CA0603046FAF7F7FC284601
:1058300070BD3046FAF7F2FC02E0641C042CD8D3A9
:10584000002070BD2DE9F0410C46FFF7C8FF074668
:1058500034F8040D0026A0F55E413546DE391ED130
:1058600094F8020007EB05110968884214D8FAF78A
:10587000CDFC07EB051580462146E868FFF766FF7B
:10588000012803D1A8680126401EA8604046FAF707
:10589000C5FC3046BDE8F0816D1C042DE2D300202C
:1058A000F8E700002DE9F05F8346FFF798FF00243A
:1058B00007462646A1464FF010084FF4007A00BF75
:1058C00008FA04F1BAFBF1F307EB041585E80A02C4
:1058D000E86808B1761C05E004225846091DFFF768
:1058E00051FFE860641C042CEAD316B1002000F0DC
:1058F00002B80120FBE730BCBDE8C09FF8B54021ED
:105900001A48FAF72BFD1A4D1A4800274FF4E07198
:10591000AF610E460068FDF723FA04001CD0314643
:10592000FAF71CFD2C616C61278120461C34012193
:10593000218104602046491C89B21C341029F7D308
:1059400008200B4A002300900C3210211846FDF766
:10595000C1FC20B10848F8BD0748001FF8BD00F0A1
:10596000F3F80028FAD00448401CF8BD400200209B
:1059700014000020080000200B0300022DE9FC4F5A
:105980000023591E019100910169C160017A5B4CAD
:1059900001F00F065A4D54F826104FF0030B4FF04C
:1059A0001009AD694A461F46DC46BBEB517F68D102
:1059B00041F0004144F8261021F07F4A0021A6461C
:1059C0005EF821C03CF07F442ED0B1422CD0BBEB1E
:1059D0009C7F29D1D446544506D3B4FBFCF80AFB7E
:1059E000184CBCF1000F0AD0D44654451CD2BCFB65
:1059F000F4F804FB18ACBCF1000F0BD014E0B4FBBE
:105A0000FAF8DDF804C0E0450ED2B4FBFAF489469A
:105A1000019409E0BAFBF4F8DDF800C0E04503D2D8
:105A2000BAFBF4F200920A46491C89B21029C7D386
:105A30003349B9F1100F09691AD0C9EBC9042A46D4
:105A400001EB840106E0D4680E8927441489B4422E
:105A500003D01268002AF6D134E062B31169CC1B7E
:105A60000169B4FBF1F201FB1242891AC16029E01D
:105A7000102A27D00023C2EBC202C36001EB8203CD
:105A80001EE00222B2EB517F1CD141F0004144F8EC
:105A90002610294662460CE00E690769BE4207D10E
:105AA0000E7A06F00F0654F82660B2EB967F03D00C
:105AB00009680029F0D105E021B100220B46C2603F
:105AC00019680BE0294607E0CA68C468A24205D8F5
:105AD000A21A0B46C26009680029F5D1016019B10C
