:020000040800F2
:10000000883C002095020008CF4E0008F535000816
:10001000CD4E0008A9120008795700080000000022
:10002000000000000000000000000000A1510008D6
:10003000AB1200080000000041030008A5510008B1
:10004000AF020008AF020008AF020008AF020008CC
:10005000AF020008AF020008AF020008AF020008BC
:10006000AF020008AF020008AF020008AF020008AC
:10007000AF020008AF020008AF020008AF0200089C
:10008000AF020008AF020008AF020008AF0200088C
:10009000AF020008AF020008AF020008AF0200087C
:1000A000AF020008AF020008AF020008AF0200086C
:1000B000AF020008AF020008AF020008AF0200085C
:1000C000AF020008AF020008AF020008AF0200084C
:1000D000AF020008AF020008AF020008AF0200083C
:1000E000AF020008AF020008AF020008AF0200082C
:1000F000AF020008AF020008AF020008AF0200081C
:10010000AF020008AF020008AF020008AF0200080B
:10011000AF020008AF020008AF020008AF020008FB
:10012000AF020008AF020008AF020008AF020008EB
:10013000AF020008AF020008AF020008AF020008DB
:10014000AF020008AF020008AF020008AF020008CB
:10015000AF020008AF020008AF020008AF020008BB
:10016000AF020008AF020008AF020008AF020008AB
:10017000AF020008AF020008AF0200080000000054
:10018000AF020008AF02000800F002F800F072F8B9
:100190000AA090E8000C82448344AAF10107DA45E2
:1001A00001D100F067F8AFF2090EBAE80F0013F0C2
:1001B000010F18BFFB1A43F001031847C86C000079
:1001C000E86C00000A444FF0000C10F8013B13F0FB
:1001D000070408BF10F8014B1D1108BF10F8015BA0
:1001E000641E05D010F8016B641E01F8016BF9D193
:1001F00013F0080F1EBF10F8014BAD1C0C1B09D1EA
:100200006D1E58BF01F801CBFAD505E014F8016B5B
:1002100001F8016B6D1EF9D59142D6D370470000ED
:100220000023002400250026103A28BF78C1FBD8FF
:10023000520728BF30C148BF0B607047702900F0DB
:10024000E781642900F07481782900F0D481732952
:1002500000F08B83002070471FB506F0A3FD9DE8DA
:10026000030000F0F3FD00F0E5FB1FBD10B500F04A
:100270004AFC10BD00F0ADFC1146FFF7EDFF05F0A4
:100280008FFA00F0B1FD03B4FFF7F0FF03BC00F0FC
:100290006FFF00000948804709480047FEE7FEE776
:1002A000FEE7FEE7FEE7FEE7FEE7FEE7FEE7FEE726
:1002B00004480549054A064B7047000035520008BE
:1002C0008901000888080020883C00208838002028
:1002D0008838002072B634483449026841EA020185
:1002E000016033484FF0010101603248416801600C
:1002F00001688A884FF0100342EA03028A80D1F82D
:1003000000C00CF1240C0CF1040CBCE8FF008CF3D1
:1003100009884FF0020C8CF31488AE4662B6304761
:10032000EFF3108072B67047EFF3108062B670473B
:1003300080F31088704720484FF08051016070476B
:10034000EFF3108C72B61D4A126822B12DE90050ED
:100350009047BDE80050EFF309801EF0100F08BF72
:1003600020ED108B40F804ED20E9F01F114D4FF007
:1003700010082E683060B78827EA0807B7806868D9
:100380002860878847EA08078780016800F018B866
:1003900051F804EB1EF0100F08BF00F016B881F3FF
:1003A00009888CF31088704720ED00E00000FFFF03
:1003B0004C0000205000002004ED00E0340000203C
:1003C00030C9B1E8C01FFFF7E3BFB1EC088BB1EC57
:1003D00008CBFFF7E4BF53EA020C00F069802DE977
:1003E000F04B4FF00006002B1FBFB3FA83F503FA62
:1003F00005F424FA05F65E4012BF1643B2FA82F500
:1004000002FA05F4C5F120051EBF22FA05FC44EAF4
:100410000C04203556EA044C4FEA144418BF641CFF
:100420004FF000084FF00009904271EB030C39D3F4
:10043000002919BFB1FA81F701FA07F6B0FA80F77F
:1004400000FA07F6C7F120071EBF20FA07FC46EAAC
:100450000C062037B6FBF4FCA7EB0507103F07F0AE
:100460001F0BCBF120060CFA0BFB2CFA06F644BF4F
:10047000B3460026202FA4BF5E464FF0000B5BEA78
:10048000060C08BF4FF0010B19EB0B09ABFB027C0C
:1004900048EB0608C01B06FB02CC0BFB03CC71EB40
:1004A0000C01C1E70B46024641464846BDE8F08BC9
:1004B00013B54FF000004FF00001AFF30080BDE82E
:1004C0001C4070470FB4044910B503AA029800F00D
:1004D00051FA10BC5DF814FB8007002070B50C4683
:1004E0000546012A05D02878800600D5EA69002350
:1004F00002E0012305E05B1C934202D2E05C00288D
:10050000F9D1A869E618C01AA861286A18442862B7
:100510002846AFF3008004E0D5E9012114F8010B6F
:100520009047B442F8D32846AFF3008070BD000076
:100530002DE9F0410646002410687529314616A5BC
:1005400010D0AFF30080002802DA404213A507E084
:1005500031688A0701D512A502E0490704D511A523
:10056000012401E0AFF3008000210A2206F12407F4
:1005700009E0B0FBF2FCB0FBF2F302FB1C003030F0
:1005800078541846491C0028F3D123462A463046A1
:10059000BDE8F04100F07EB9000000002D00000031
:1005A0002B00000020000000F0B40D460188090572
:1005B00002D51B4C7C4402E0194C7C440E340021D3
:1005C00000F1240305E002F00F061209A65D5E5457
:1005D000491C002AF7D102780023120704D5702D98
:1005E00006D009B1022311342246F0BC00F052B902
:1005F00001231034F8E770B504460D462146106813
:10060000AFF30080024629462046BDE87040CBE7A4
:100610000368126843F0200303600823C361C3E743
:10062000406800002DE9F05F894604464FF0000A5B
:10063000DFF824B1FB44C0F820A02046E1688847D9
:1006400000287DD0252806D0D4E901219047206AD2
:10065000401C2062F1E700255F462046E16888479C
:100660002028064607DB312E05D2B81910F8200CD9
:1006700008B10543F1E7A80701D525F00405C4F842
:100680001CA00027C4F818A02A2E09D0304605F077
:1006900074F838B304EB8708303EC8F8186019E0E6
:1006A00059F8041B204604EB87029161E1688847F2
:1006B000012F064618D1E069002820DA25F0200530
:1006C0001DE0D8F8180000EB800006EB4000303841
:1006D000C8F818002046E1688847064605F04DF83E
:1006E0000028EED1012F0AD02E2E08D12046E16835
:1006F00088477F1C0646022F45F02005C4DBA06911
:10070000002803DA404245F00105A061E80701D066
:1007100025F01005A6B1A6F14100192802D820360F
:1007200045F400654A463146204625604D46FFF7B0
:1007300085FD60B1012807D0ED1D25F0070000E020
:1007400007E000F1080978E705F1040975E730468C
:100750007AE7206A00F002B8E867000030BCBDE824
:10076000C09F032A40F2308010F0030C00F0158087
:1007700011F8013BBCF1020F624498BF11F801CBA4
:1007800000F8013B38BF11F8013BA2F1040298BF09
:1007900000F801CB38BF00F8013B11F0030300F073
:1007A000FB80083AC0F0088051F8043B083A51F841
:1007B00004CBA0E80810F5E7121D5CBF51F8043B1C
:1007C00040F8043BAFF30080D20724BF11F8013B8F
:1007D00011F801CB48BF11F8012B24BF00F8013BF1
:1007E00000F801CB48BF00F8012B704702F0FF036F
:1007F00043EA032242EA024200F002B84FF000024C
:100800000429C0F0128010F0030C00F01B80CCF122
:10081000040CBCF1020F18BF00F8012BA8BF20F890
:10082000022BA1EB0C0100F00DB85FEAC17C24BFE4
:1008300000F8012B00F8012B48BF00F8012B70478E
:100840004FF0000200B5134694469646203922BF69
:10085000A0E80C50A0E80C50B1F12001BFF4F7AFB4
:10086000090728BFA0E80C5048BF0CC05DF804EB96
:10087000890028BF40F8042B08BF704748BF20F804
:10088000022B11F0804F18BF00F8012B7047704702
:10089000704770472DE9F0470D4699469246044649
:1008A00000F124080168880604D5E06921F01001F0
:1008B000216000E00120A84201DD471B00E0002785
:1008C000A1697A1902EB0900081AA0612078C00614
:1008D00002D42046AFF30080002608E0D4E90121CD
:1008E0001AF806009047206A401C761C20624E458C
:1008F000F4DB2078C0060AD52046AFF3008006E07E
:10090000D4E9012130209047206A401C2062381E23
:10091000A7F10107F4DC07E0D4E9012118F805008C
:100920009047206A401C2062281EA5F10105F3DCD7
:100930002046AFF300802078000602D50220BDE8F3
:10094000F0870120FBE710B5436913B1AFF30080D6
:1009500001E0FFF7C3FD012010BD127800F1240172
:100960000A7000224A700122EDE711684FF0FF3251
:10097000E9E70000074B70B50D467B4400F043F8F3
:100980000446284600F052F810B14FF0FF3070BD19
:10099000204670BD0B4E000010B5203AC0F00B8011
:1009A000B1E81850203AA0E81850B1E81850A0E873
:1009B0001850BFF4F5AF5FEA027C24BFB1E81850CD
:1009C000A0E8185044BF18C918C0BDE810405FEA3D
:1009D000827C24BF51F8043B40F8043B08BF7047B9
:1009E000D20728BF31F8023B48BF11F8012B28BFBE
:1009F00020F8023B48BF00F8012B704701694A1CF0
:100A000002610878704700B58FB0CDE9013100214F
:100A1000059105497944CDE9031011466846FFF771
:100A200001FE0FB000BD0000E5FFFFFF007B00F0FE
:100A30008000704710B542485421FFF701FF41483C
:100A40005421FFF7FDFE40485421FFF7F9FE3F49CE
:100A50003B483C4A3F4B08603D490A603A491960AF
:100A6000531C0365481C1065012008653B48344A47
:100A700039A1784400F01CF920B9384878440A3884
:100A800000F0BBF937482F4A35A1784400F010F93F
:100A900020B9344878440A3800F0AFF932482A4A7D
:100AA0002FA1784400F004F920B92F4878440A387F
:100AB00000F0A3F940232248DC000021224600F088
:100AC000D4F820B125487844543800F096F91D48F0
:100AD00022464023002100F0C8F820B12148784484
:100AE000543800F08AF9184822461023002100F0FB
:100AF000BCF8002806D01C487844BDE810405638A1
:100B000000F07BB910BD104870B5006D20F00104F5
:100B10000B4800F043F90B4800F040F90A4800F098
:100B20003DF909E0206D20F00105204600F036F97E
:100B3000204600F073F82C46002CF3D170BD000065
:100B40002C07002080070020D4070020C4010020CB
:100B5000C8010020CC01002072000000BB6300002F
:100B600077000000A7630000936300000EB5CDE995
:100B7000000100F0DDFA029069460120ABBE0EBD17
:100B800008B5694600900220ABBE08BD1FB58DE8D0
:100B9000070069460520ABBE04B010BD1FB58DE847
:100BA0000F0069460620ABBEF6E708B5694600901F
:100BB0000920ABBE08BD1CB5CDE9000169460A207D
:100BC000ABBE1CBD704708B5694600900C20ABBE9B
:100BD00008BD754600F018F9AE4605006946534653
:100BE00020F00700854618B020B5FFF761FBBDE88F
:100BF00020404FF000064FF000074FF000084FF084
:100C0000000B21F00701AC46ACE8C009ACE8C00914
:100C1000ACE8C009ACE8C0098D46704770B5044621
:100C2000051F00F0F7F80068002C14BF446870BD81
:100C3000002C18BFAC423CBF20466468F8D3016862
:100C40000A18AA4218BF456003D12A680546114414
:100C5000016028684119A1421CBF6C6070BD6168C9
:100C6000696021680844286070BD70B5C468A50734
:100C700013D0650211D4B2F5807F09D0B2F5007FA0
:100C800006D0B2F5806F08D1012300F1240106E0FF
:100C90005D1E6FF07F46B54201D3012070BD01613A
:100CA000C361416024F470611143C160002070BDD4
:100CB0002DE9F0410C4607461646104600F06EF846
:100CC0002078611C61280AD0722802D077283CD194
:100CD00002E00125002405E00225042402E00824A6
:100CE00048F2020511F8010B2B2806D0622809D022
:100CF00011F8010C74280AD00BE045F0030544F00C
:100D00000204EFE745F0040544F00104EAE744F08B
:100D1000100438462146FFF729FF411C15D0002159
:100D2000316171604FF40071F560F161706120070D
:100D300004D530460222002100F0E6F8306D40F084
:100D4000010030653046BDE8F0810020FBE72DE969
:100D5000F0410D460646104C206DC10704D04108F5
:100D600004D020F00104F7E722460EE0542000F002
:100D70009CF807000ED0206D47F001010843542174
:100D800020653846FFF75CFD3A4629463046BDE807
:100D9000F0418DE70020D6E72C0700202DE9F04731
:100DA00004464FF000094FF0FF37C568D4E90486C8
:100DB000A80707D0204600F057F93046FFF7E0FEBD
:100DC000002802DA3846BDE8F087280502D54046FB
:100DD000FFF724FF4C212046FFF732FD206D20F065
:100DE000010020654846EEE710B50446AFF30080E9
:100DF0002046BDE81040FFF746BA10B500F07EF976
:100E0000BDE8104000F074B9004870472808002081
:100E10007047000000487047300800207047704756
:100E20007047704738B504460A4600206946AFF35C
:100E30000080002808BF38BD02460099204600F017
:100E4000A4F9012038BD012000F0F3B9F8B5AFF3E3
:100E50000080054600200C46102000BF0646A81959
:100E6000A0420DD9324669460020AFF3008007004A
:100E700008BF00F0DEF90098A04218BF0546C4196B
:100E8000FFF7C8FF05600746F01D20F00700461970
:100E9000284600F073F9B44208BFF8BDA21B3146E2
:100EA0003868BDE8F84000F070B970B50646FFF745
:100EB000B1FF056806F10B0020F00704B4429CBFA7
:100EC000002070BD2B466A68BAB11068A04210D3EA
:100ED00004F1080188423CBF5068586007D351684C
:100EE000101941601168091B016058601460101DE1
:100EF00070BD13465268002AE7D121462846FFF705
:100F000091FF0028DED170BD2DE9F0410446164660
:100F10000D464769007B80072ED03846FFF745FE17
:100F200050BB3EB3012E02D0022E25D104E0204654
:100F300000F045F905441DE03846FFF744FEE1683E
:100F4000002841F01001E16005DA204600F058F871
:100F50000120BDE8F081C9030BD56268E16A9142C6
:100F600000D81146A26911442269891A814200DD24
:100F700008460544002D01DA0220EAE7E16A6068CC
:100F8000E268814206D29103E06203D522F4003187
:100F900041F01002A6690027AE4213DCE16A8142EB
:100FA00001D90B4600E0034603EB060C2369ACEBCA
:100FB000030CAC4506DD814201D98C4600E0844635
:100FC0009C4505D1A760276042F02000A5620DE096
:100FD000AD1BE669AE1B8142A66000D90846C01A67
:100FE000281A20605819606022F020000349084048
:100FF000E060002084F84870ABE70000BFCFD7FF67
:10100000C16821F4001141F08001C16000218160BC
:10101000016070472DE9F047814614460E464FF0B7
:10102000FF383248D5685769054209D03846A1696A
:10103000FFF7C1FD002811DB2C48C0430540E560E7
:101040002B46324649463846FFF7A0FDA16920F0FD
:101050000042B21A11440028A16103D02046FFF7D4
:10106000CFFF4046BDE8F08770B504460569C06A09
:101070006168884200D80846E16821F42011E160E7
:10108000C90312D5A84208D02246411B2846FFF7C3
:10109000C1FF10B14FF0FF3070BD0020E562C4E920
:1010A0000150E06820F48030E060002070BD10B591
:1010B0000446C06820F02000E060A16AA069884270
:1010C0000DD02046FFF7D0FFE06820F4405040F0FC
:1010D0001000E060A06AA0612069E062606044F2F4
:1010E0004001E0688843E06010BD0000100002008D
:1010F000002801D000F03CB87047000010B5014650
:1011000002A000F07DF8012010BD000053494752B5
:10111000545245443A2052656469726563743A20BA
:1011200063616E2774206F70656E3A2000000000C6
:1011300010B5431C02E010F8011B71B18107FAD110
:101140004FF0013202C88C1A8C4314EAC211F9D054
:10115000C01A0A0603D0C01E10BDC01A10BD0A0472
:1011600001D0801E10BD0902FCD0401E10BD000041
:1011700001491820ABBEFEE72600020000210160F5
:10118000C0E90110704710207047034640688C4644
:10119000002818BF88423CBF03464068F8D318684F
:1011A0001844884207D00CF1030020F00700001D0E
:1011B000411A521A0146081D0A60FFF72FBD10B5EB
:1011C0000146C268900703D0900607D5886A0AE0F6
:1011D00000F03EF801210160881E10BD8B6948684F
:1011E00018440B69C01A91F848301BB191F84910A6
:1011F000401A10BD1103FCD50028FADD401E10BDB9
:1012000070B505460C460A2000E06D1C00F018F889
:1012100035B128780028F8D102E0641C00F010F8FD
:1012200014B120780028F8D1BDE870400A2000F001
:1012300007B810B500F010F8BDE81040FFF758BF30
:1012400008B569468DF800000320ABBE08BD00005C
:10125000004870472808002010B5012805D000215B
:1012600003A0FFF7CDFF012010BD09A1F8E70000A2
:1012700053494752544D454D3A204F7574206F667F
:101280002068656170206D656D6F727900000000E7
:101290003A2048656170206D656D6F727920636FCB
:1012A0007272757074656400FEE7704770470000E5
:1012B00010B54FF480711C4802F0BCFC08B11BA0B3
:1012C00021E020A0FFF7FEF80421174802F088FC77
:1012D000040017D020A0FFF7F5F84FF44F7122A0BB
:1012E0002160FFF7EFF821460F4802F08FFC70B144
:1012F00021A0FFF7E7F80121092002F02DFB20B122
:1013000022A000E028A0FFF7DDF8012010BD2CA0EE
:10131000FFF7D8F80021092002F01EFB10B11BA036
:10132000FFF7D0F8002010BDE00300206D656D7060
:101330006F6F6C20696E6974206661696C656421E9
:10134000200D0A006D656D706F6F6C20696E697499
:10135000206F6B21200D0A006D656D20616C6C6F34
:1013600063206F6B200D0A002A705F6E756D203D43
:10137000202564200D0A00006D656D20667265658C
:10138000206661696C656421200D0A005365742034
:10139000496E73706563742053746174757320456E
:1013A0007272200D0A0000006D656D20616C6C6F1B
:1013B00063206661696C656421200D0A00000000ED
:1013C0006D656D2066726565206F6B210D0A0000EA
:1013D00010B501210FA0FFF775F864230422012145
:1013E000154802F06DF9014601280DD013A0FFF752
:1013F00069F80121012002F0AFFA002809D0BDE808
:10140000104018A0FFF75EB81DA0FFF75BF80021A1
:10141000F0E710BD4578616D706C655F4576656E6F
:10142000742077616974206576656E742030782544
:1014300078202E200D0A0000E00400204578616D20
:10144000706C655F4576656E742C726561642065AD
:1014500076656E742074696D656F75742E200D0A43
:101460000000000053657420496E7370656374203A
:10147000537461747573204572722E200D0A00003A
:101480004578616D706C655F4576656E742C72652C
:101490006164206576656E74203A30782578202E58
:1014A000200D0A002DE9F04102F0B0F8010002D051
:1014B0001AA0FFF707F803F0AFFC0F4605463843C4
:1014C00003D029461DA0FEF7FDFFC82003F0D4FA83
:1014D00003F0A2FC0E460446304303D021461EA072
:1014E000FEF7F0FF601B66EB0706C83876F10000D8
:1014F0000AD30021052002F02FFA10B120A0FEF738
:10150000E1FF0020BDE8F0810121052002F024FA6E
:1015100010B11BA0FEF7D6FF0120F3E74C4F535F3D
:101520004379636C655065725469636B47657420D9
:101530003D202564202E0D0A000000004C4F535F13
:101540005469636B436F756E74476574203D202545
:1015500064202E0D0A0000004C4F535F5469636BEA
:10156000436F756E7447657420616674657220649C
:10157000656C6179203D202564202E0D0A00000055
:1015800053657420496E737065637420537461747D
:10159000757320457272202E0D0A000010B58AB0B6
:1015A0001B4801900920ADF808004FF434700490F6
:1015B00018A0059003F032FB01A907A803F07CF9FD
:1015C000040002D0014616A009E01E48019001A9BE
:1015D00008A803F071F9040006D001461AA0FEF72E
:1015E00071FF20460AB010BD1820009000231F4A4A
:1015F00005211FA002F0AEFD010002D01EA0FEF7E3
:1016000061FF26A0FEF75EFF03F0B6FB0020E9E7CE
:101610003D6D000873656E64517565756500000069
:10162000637265617465207461736B3120666169F2
:101630006C6564212C6572726F723A2578200D0AF0
:1016400000000000616C00086372656174652074BD
:1016500061736B32206661696C6564212C657272FE
:101660006F723A2578200D0A00000000DC0000208F
:101670007175657565000000637265617465207140
:1016800075657565206661696C757265212C65727A
:10169000726F723A2578200D0A000000637265614E
:1016A0007465207468652071756575652073756350
:1016B0006365737321200D0A0000000010B58CB023
:1016C0001F4802F0AFFB03F0A9FA18216846FFF7A4
:1016D000B7F81C4800901CA04FF43474CDE90340C7
:1016E0000520ADF8040016486946001D03F0E4F833
:1016F00008B118A012E0182106A8FFF7A1F81C48AD
:1017000006901CA0CDE909400420ADF81C000C484F
:1017100006A9083003F0D0F828B119A0FEF7D2FED0
:1017200001200CB010BD03F027FB4FF4967003F0BE
:10173000A3F90348006802F0B9FB0020F1E70000BC
:10174000F40000209D1700084D7574657854736B84
:10175000310000007461736B3120637265617465E0
:10176000206661696C6564202E200D0A000000006F
:10177000E11800084D7574657854736B32000000F1
:101780007461736B32206372656174652066616990
:101790006C6564202E200D0A0000000010B518A012
:1017A000FEF790FE214C0A21206802F0CBFB0028B6
:1017B0001DD01F49884222D11EA0FEF783FE4FF0A4
:1017C000FF31206802F0BEFB002818D127A0FEF7E9
:1017D00079FE206802F05EFC0021042002F0BCF8D3
:1017E00000280CD0BDE810402EA0FEF76BBE34A040
:1017F000FEF768FE2068BDE8104002F04BBC10BD4B
:101800007461736B312074727920746F2067657412
:10181000206D757465782C207761697420313020D3
:101820005469636B2E200D0A00000000F4000020B4
:10183000071D00027461736B312074696D656F75EB
:101840007420616E642074727920746F20676574EF
:1018500020206D757465782C207761697420666F1F
:1018600072657665722E200D0A0000007461736B3C
:1018700031207761697420666F72657665722C67B6
:101880006F74206D7574657820675F546573746D2F
:101890007578303120737563636573732E200D0A7C
:1018A0000000000053657420496E737065637420F6
:1018B00053746174757320457272200D0A00000024
:1018C0007461736B3120676574206D757465782061
:1018D000675F546573746D757830312E200D0A0082
:1018E00010B50EA0FEF7EEFD174C4FF0FF3120684B
:1018F00002F028FB20B1BDE8104014A0FEF7E2BDC5
:101900001AA0FEF7DFFD642003F0B6F825A0FEF76D
:10191000D9FD2068BDE8104002F0BCBB7461736B58
:10192000322074727920746F20676574206D75742D
:1019300065782C207761697420666F7265766572B0
:101940002E200D0A00000000F40000207461736B6B
:1019500032204C4F535F4D757850656E6420666140
:10196000696C6564202E200D0A0000007461736BA1
:101970003220676574206D7574657820675F5465E3
:1019800073746D7578303120616E64207375737077
:10199000656E6420313030205469636B2E200D0A4F
:1019A000000000007461736B3220726573756D65A1
:1019B0006420616E6420706F7374207468652067A2
:1019C0005F546573746D75783031200D0A00000026
:1019D00010B517A0FEF776FD244C0A21A06802F08E
:1019E00023FD00281DD0224988421FD12148FEF73F
:1019F00069FD4FF0FF31A06802F016FD002815D1F7
:101A00001DA0FEF75FFDA06802F0B2FD00210320DB
:101A100001F0A2FF002809D0BDE8104026A0FEF783
:101A200051BDA068BDE8104002F0A2BD10BD00008D
:101A30004578616D706C655F53656D5461736B3192
:101A400020747279206765742073656D20675F75F7
:101A50007353656D4944202C74696D656F757420EE
:101A60003130207469636B732E0D0A000001002071
:101A700007070002406E00084578616D706C655F75
:101A800053656D5461736B3120776169745F666F64
:101A9000726576657220616E6420676F742073656D
:101AA0006D20675F757353656D494420737563637B
:101AB0006573732E0D0A000053657420496E7370B0
:101AC0006563742053746174757320457272200DC0
:101AD0000A00000010B50CA0FEF7F4FC184C4FF003
:101AE000FF31A06802F0A0FC10B916A0FEF7EAFCD6
:101AF000142002F0C1FF23A0FEF7E4FCA068BDE8BB
:101B0000104002F035BD00004578616D706C655F76
:101B100053656D5461736B322074727920676574FC
:101B20002073656D20675F757353656D4944207739
:101B300061697420666F72657665722E0D0A000009
:101B4000000100204578616D706C655F53656D54D0
:101B500061736B32206765742073656D20675F75F4
:101B60007353656D494420616E64207468656E200E
:101B700064656C61792032307469636B73202E0D5B
:101B80000A0000004578616D706C655F53656D54A7
:101B900061736B3220706F73742073656D20675FA3
:101BA000757353656D4944202E0D0A0030B58DB014
:101BB0002549002002F0EAFB03F030F818216846BE
:101BC000FEF73EFE2148009021A04FF43474CDE989
:101BD00003400520ADF804001B486946083802F0B0
:101BE0006BFE08B11DA01BE0182106A8FEF728FE19
:101BF0002048069020A0CDE909400420ADF81C0043
:101C0000114806A9001F02F057FE0F4C083C60B1B6
:101C10001CA0FEF757FC206802F064FF10B11FA063
:101C2000FEF750FC01200DB030BD03F0A5F8A06810
:101C300002F09EFC0546282002F01EFFA06802F07C
:101C4000ABFB2846EFE7000008010020D11900088F
:101C50004D7574657854736B310000007461736B5B
:101C60003120637265617465206661696C6564200A
:101C70002E0D0A00D51A00084D7574657854736BE3
:101C8000320000007461736B3220637265617465A9
:101C9000206661696C6564202E0D0A007461736BA7
:101CA000312064656C657465206661696C656420CB
:101CB0002E0D0A0010B586B01C4801F0D1FC08B109
:101CC0001BA01DE018216846FEF7BAFD1E480090D3
:101CD0001EA004904FF4347003900520ADF804006A
:101CE00069461D4802F0E8FD08B11CA008E021A0EB
:101CF000FEF7E8FB01210D4801F056FD28B127A0B1
:101D0000FEF7E0FB012006B010BD084C29A02168B9
:101D1000FEF7D8FB2068C143204601F08FFC25A0C8
:101D20002168FEF7CFFB0020EDE70000E004002073
:101D3000696E6974206576656E74206661696C658C
:101D400064202E0D0A000000D11300084576656E50
:101D50007454736B31000000D80000207461736B01
:101D600020637265617465206661696C6564202E0C
:101D70000D0A00004578616D706C655F5461736B8E
:101D8000456E7472795F4576656E742077726974FA
:101D900065206576656E74202E0D0A006576656E89
:101DA00074207772697465206661696C6564202EA1
:101DB0000D0A00004576656E744D61736B3A2564BB
:101DC000200D0A0010B5032230211D4801F0FAFF52
:101DD00008B11CA02BE021A0FEF774FB184801F00D
:101DE0009BFF040022D023A0FEF76CFB4FF44F7141
:101DF00026A02160FEF766FB2146114801F0A8FFEE
:101E000026A02168FEF75EFB21460D4801F0ACFFDD
:101E100088B12BA0FEF756FB0121082001F09CFDA4
:101E200010B12EA0FEF74EFB002010BD32A0FEF731
:101E300049FB012010BD37A0FEF744FB0021ECE771
:101E4000EC0400204D656D20626F7820696E697426
:101E5000206661696C6564202E0D0A004D656D2059
:101E6000626F7820696E6974206F6B21202E0D0AD5
:101E7000000000004D656D20626F7820616C6C6F12
:101E800063206F6B202E0D0A000000002A705F6E29
:101E9000756D203D202564202E0D0A00636C656160
:101EA000722064617461206F6B200D0A202A705FBC
:101EB0006E756D203D202564202E0D0A0000000067
:101EC0004D656D20626F7820667265652066616978
:101ED0006C656421202E0D0A0000000053657420FB
:101EE000496E737065637420537461747573204513
:101EF0007272202E0D0A00004D656D20626F7820F1
:101F0000616C6C6F63206661696C656421202E0DC5
:101F10000A0000004D656D20626F7820667265656D
:101F2000206F6B21202E0D0A0000000010B518A0B4
:101F3000FEF7C8FA052002F09FFD08B11AA024E0C0
:101F40001FA0FEF7BFFA264C206802F0BBFE58B176
:101F500024A0FEF7B7FA0121002001F0FDFC08B132
:101F600027A012E0012010BD2CA0FEF7ABFA002143
:101F7000084601F0F1FC10B121A0FEF7A3FA206899
:101F800002F0B0FD0028EED02DA0FEF79BFAE9E7A5
:101F9000456E746572205461736B48692048616EA8
:101FA000646C65722E0D0A0044656C617920546181
:101FB000736B204661696C65642E0D0A0000000099
:101FC0005461736B4869204C4F535F5461736B4489
:101FD000656C617920446F6E652E0D0A000000006B
:101FE0000C01002053757370656E64205461736B2F
:101FF0004869204661696C65642E0D0A0000000086
:1020000053657420496E73706563742053746174F2
:102010007573204572722E0D0A0000005461736BB7
:102020004869204C4F535F5461736B526573756DF3
:102030006520537563636573732E0D0A00000000FD
:102040005461736B48692064656C657465206661D2
:10205000696C6564202E0D0A0000000010B513A005
:10206000FEF730FA0A2002F007FD08B115A019E0CA
:102070001AA0FEF727FA224C206802F0DDFD58B1C5
:1020800020A0FEF71FFA0121002001F065FC08B135
:1020900022A007E0012010BD606802F023FD0028A7
:1020A000F9D025A0FEF70EFAF4E70000456E74653E
:1020B00072205461736B4C6F2048616E646C657262
:1020C0002E0D0A0044656C6179205461736B4C6F6E
:1020D000204661696C65642E0D0A00005461736BC3
:1020E0004869204C4F535F5461736B53757370652F
:1020F0006E6420537563636573732E0D0A000000D0
:102100000C010020526573756D65205461736B4836
:1021100069204661696C65642E0D0A005365742060
:10212000496E7370656374205374617475732045D0
:1021300072722E0D0A0000005461736B4C6F2064A4
:10214000656C657465206661696C6564202E0D0A96
:102150000000000010B586B002F060FD1FA0FEF781
:10216000B1F9254800900420ADF8040023A04FF4F5
:102170003474CDE903406946234802F09DFB18B151
:1021800002F0FAFD21A01CE028A0FEF79BF93048E0
:1021900000900520ADF804002EA0CDE903401A48B8
:1021A0006946001D02F088FB04000FD01648006845
:1021B00002F098FC10B12AA0FEF784F902F0DCFDD1
:1021C0002EA0FEF77FF9012006B010BD33A0FEF768
:1021D00079F902F0D1FD2046F6E700004C4F535F3D
:1021E0005461736B4C6F636B28292053756363656F
:1021F0007373210D0A0000002D1F0008484947484D
:102200005F4E414D450000000C0100204578616D96
:10221000706C655F5461736B4869206372656174AB
:1022200065204661696C6564210D0A004578616D21
:10223000706C655F5461736B48692063726561748B
:10224000652053756363657373210D0A00000000F8
:102250005D2000084C4F575F4E414D450000000087
:102260005461736B48692064656C657465206661B0
:10227000696C6564202E0D0A000000004578616DD0
:10228000706C655F5461736B4C6F20637265617431
:1022900065204661696C6564210D0A004578616DB1
:1022A000706C655F5461736B4C6F20637265617411
:1022B000652053756363657373210D0A0000000088
:1022C0002DE9F0413FA0FEF7FDF8434F08213868A3
:1022D00001F086FC05004BD06D602D603FA0FEF73D
:1022E000F1F80821386801F07BFC040042D0082195
:1022F000386801F075FC060040D00821B8463868FF
:1023000001F06EFC07003FD02146284601F054FC46
:102310003146204601F050FC2068A84202D03068C7
:10232000A04202D135A0FEF7CDF83946286801F069
:1023300043FC3868B04202D135A0FEF7C3F839A09B
:10234000FEF7C0F8D4E900010860D4E9000141605B
:102350000020606020602146D8F8000001F056FCA3
:102360006868B04220D134A0FEF7ACF800211FE02D
:1023700037A000E03BA0FEF7A5F812E034A0FEF77E
:10238000A1F8214638680AE031A0FEF79BF8214603
:102390004446D8F8000001F039FC3146206801F0CD
:1023A00035FC0120BDE8F08132A0FEF78BF8012159
:1023B000072001F0D1FA10B133A0FEF783F8002016
:1023C000F0E70000696E697469616C2E2E2E2E2E66
:1023D0002E200D0A00000000080000206E6F6465CA
:1023E0002061646420616E64207461696C206164A2
:1023F000642E2E2E2E2E2E0D0A0000006164642005
:102400006E6F64652073756363657373200D0A00D6
:10241000616464207461696C2073756363657373B0
:10242000200D0A0064656C657465206E6F64652E0E
:102430002E2E2E2E2E0D0A0064656C657465206E9E
:102440006F646520737563636573730D0A00000024
:102450006D616C6C6F63206661696C6564200D0A48
:10246000000000006D616C6C6F63206661696C65D3
:10247000640A000064656C657465206E6F64652095
:102480006572726F720D0A0053657420496E737025
:1024900065637420537461747573204572720D0AFC
:1024A0000000000070B586B0002501244FF47A7654
:1024B000009403AB334A29463046CDE9014502F08A
:1024C000CBF808B130A000E036A0FDF7FBFF009488
:1024D00004AB3B4A01216420CDE9014502F0BCF880
:1024E00008B138A000E03EA0FDF7ECFFBDF80C00FD
:1024F00002F046F908B141A000E046A0FDF7E2FF76
:10250000C82002F0B9FABDF80C0002F09DF908B13C
:1025100046A000E04BA0FDF7D5FFBDF80C0002F08F
:102520002FF910B135A0FDF7CDFF304602F0A4FA27
:10253000BDF80C0002F0EAF808B148A000E04EA097
:10254000FDF7C0FFBDF8100002F01AF908B151A064
:1025500000E056A0FDF7B6FF304602F08DFABDF858
:10256000100002F071F910B157A0FDF7ABFFBDF8F4
:10257000100002F0CBF810B159A0FDF7A3FF06B090
:10258000002070BD79520008637265617465205443
:10259000696D657231206661696C6564202E0D0A73
:1025A000000000006372656174652054696D657296
:1025B000312073756363657373202E0D0A0000006C
:1025C000CD5200086372656174652054696D65724F
:1025D00032206661696C6564202E0D0A00000000DF
:1025E0006372656174652054696D6572322073751C
:1025F0006363657373202E0D0A00000073746172AB
:10260000742054696D657231206661696C6564205F
:102610002E0D0A0073746172742054696D657231F5
:1026200020737563657373202E0D0A0073746F70C9
:102630002054696D657231206661696C6564202E75
:102640000D0A000073746F702054696D657231203B
:10265000737563657373202E0D0A000064656C65E5
:1026600074652054696D657231206661696C6564BA
:10267000202E0D0A0000000064656C65746520540E
:10268000696D65723120737563657373202E0D0A51
:102690000000000073746172742054696D657232B9
:1026A000206661696C6564202E0D0A007374617286
:1026B000742054696D65723220737563636573733A
:1026C000202E0D0A0000000073746F702054696D95
:1026D000657232206661696C6564202E0D0A000007
:1026E00064656C6574652054696D6572322066613D
:1026F000696C6564202E0D0A000000002DE9F84F7A
:10270000DFF898B100234FF0010C4FF0030A4FF0AF
:102710000F090BF1040EB9E00CFA03F4224070D05B
:102720004D68022D01D0122D0ED1DD0800EB850879
:10273000D8F820505E07F70E09FA07F6B5430E6980
:10274000BE402E43C8F8206007685E0091F8048000
:102750000AFA06F508F00308AF4308FA06F848EA53
:102760000708C0F800804F68012F05D0022F03D062
:10277000112F01D0122F13D1D0F80880CF6828EA8A
:102780000508B74047EA08078760D0F804800F794A
:1027900028EA0408C7F300179F4047EA0807476084
:1027A000D1F804806FEA0807BF0706D1C76AA743BC
:1027B000C8F3C0049C403C43C462C468AC438D6809
:1027C000B5402543C5604C68E4005ED5344C256EA9
:1027D00045F001052566246E23F0030504F001048D
:1027E0000094304C2E19B4689D072F0F09FA07F595
:1027F000AC43B0F1904F05D02B4DA84204D1012538
:102800001CE042E0002519E0284DA84201D1022534
:1028100014E0274DA84201D103250FE0254DA84221
:1028200001D104250AE0244DA84201D1052505E087
:10283000224DA84201D1062500E00725BD402543D1
:10284000B560DBF800405D464E689443F60300D562
:1028500014432C60DEF8004075464E689443B6037E
:1028600000D514432C600D4D08352C684E689443F8
:10287000F60200D514432C60084D0C352C684E68C8
:102880009443B60200D514432C605B1C0A6832FAEC
:1028900003F57FF441AF00F013B8000000040140DD
:1028A00000100240000001400004004800080048F9
:1028B000000C0048001000480014004800180048B0
:1028C00018BCBDE8E08F0AB1816170478162704732
:1028D00001480068704700000000002010B5002487
:1028E000032000F059F8002000F008F808B1012496
:1028F00001E000F01BF8204610BD000070B5054651
:1029000009484FF47A7100240068B0FBF1F000F040
:102910009DFD08B1012404E000222946501E00F06C
:102920001BF8204670BD000004000020094808B5CF
:10293000016E41F001010166016E01F0010100919B
:10294000816D41F080518165806D00F08050009074
:1029500008BD000000100240F0B40E4B1B680C468E
:10296000C3F30223C3F10705042D00D90425191D63
:10297000072901D2002300E0DB1E012606FA05F13B
:10298000491E214099409E40761E16403143F0BCBE
:1029900002F09EBA0CED00E0064900F0070208685C
:1029A0004FF6FF03184040EA0220034A1043086034
:1029B000704700000CED00E00000FA051649B0F584
:1029C000007F0868C0F3412009D0022805D00868BC
:1029D00020F4C06040F48060086000207047012847
:1029E000FBD0086820F4C06040F4007008600B4819
:1029F0003222006850430A4AB0FBF2F0401C00E06B
:102A0000401E4A69520501D50028F9D148694005A0
:102A1000E3D5032070470000007000400400002050
:102A200040420F000248006800F4C0607047000098
:102A3000007000402DE9F84F044600270088E54D5E
:102A40003E46010504F1200B1DD5606E78B1B0F54E
:102A5000800F11D0B0F5000F04D0B0F5400F22D098
:102A600001270FE0E86840F48030E8601BE00021B7
:102A7000201D02F03DFA03E00021584602F0CEFA94
:102A8000070010D03E462088C00426D5A06EC0B1F5
:102A9000B0F1807F1AD0B0F1007F0DD0B0F1407F4F
:102AA00019D0012718E0D5F88800616E20F44000A5
:102AB0000843C5F88800E6E7E86840F48030E8603D
:102AC00009E00021201D02F013FA03E0002158461E
:102AD00002F0A4FA0746F7B13E46206880033AD5D3
:102AE000A86D4FF00008C00009D4A86D40F08050D8
:102AF000A865A86D4FF0010800F080500090DFF845
:102B0000D8A2DAF8001041F48071CAF80010FFF77B
:102B1000DFFE814610E0D5F88800A16E20F04070FD
:102B20000843C5F88800D8E7FFF7D2FEA0EB0900FC
:102B3000022801D9032705E0DAF80000C005F3D523
:102B4000002F7CD04FEA0706B8F1000F03D0A86D24
:102B500020F08050A8652078C00707D0D5F88800FD
:102B6000A16B20F003000843C5F888002078800797
:102B700007D5D5F88800E16B20F00C000843C5F8B4
:102B800088002078400707D5D5F88800216C20F010
:102B900030000843C5F888002078000707D5D5F82D
:102BA0008800616C20F0C0000843C5F888002078D8
:102BB000C00607D5D5F88800A16C20F44070084302
:102BC000C5F888002078800607D5D5F88800E16C24
:102BD00020F440600843C5F888002088800507D5A8
:102BE000D5F88800E16D20F440200843C5F888003E
:102BF0002088400507D5D5F88800216E20F44010C4
:102C00000843C5F888002078400607D5D5F8880025
:102C1000216D20F440500843C5F888002078000654
:102C200007D5D5F88800616D20F440400843C5F809
:102C300088002088C00509D5D5F8880000E01CE090
:102C4000A16D20F440300843C5F8880020884FF07B
:102C5000006780044FF080684FD5D5F88800E16E9A
:102C600020F040600843C5F88800E06EB8423CD1CF
:102C7000E86840F48010E8603FE0D5F8900010F478
:102C8000407015D0D4F88410814211D0D5F890004E
:102C9000D5F8901020F4407041F48031C5F89010C0
:102CA000D5F8901021F48031C5F89010C5F8900047
:102CB000C00710D0FFF70CFE074641F2883906E046
:102CC000FFF706FEC11B494501D903263CE7D5F8AD
:102CD00090008007F4D5D5F89000D4F8841020F443
:102CE00040700843C5F890002EE7404505D101210A
:102CF000201D02F0FDF800B106462068000317D53C
:102D0000D5F88800216F20F040600843C5F888009E
:102D1000206FB84204D1E86840F48010E86007E012
:102D2000404505D10121201D02F0E2F800B1064620
:102D30002068400317D5D5F88800616F20F0406007
:102D40000843C5F88800606FB84204D1E86840F4D1
:102D50008010E86007E0404505D10121201D02F008
:102D6000C7F800B10646208840041AD5D5F8880077
:102D7000A16F20F040500843C5F88800A06FB0F163
:102D8000805F03D0B0F1005F05D00AE00221201D72
:102D900002F0AEF803E00221584602F03FF900B11C
:102DA00006462088000407D5D5F88800E16F20F09A
:102DB00080400843C5F888002068C00307D555F84F
:102DC000880FD4F8801020F0004008432860304677
:102DD00000F004B8001002400070004018BCBDE8CC
:102DE000E08F00002DE9F0470F46050058D03F4E18
:102DF000306800F00700B84209D2306820F00700C0
:102E000038433060306800F00700B84248D1287875
:102E1000374CC0072CD06868032811D0022812D084
:102E2000216898B1490500293ADAA16821F0030127
:102E30000143A160FFF74CFD804641F2883910E064
:102E400021688901EFE721688903ECE78907EAE750
:102E5000FFF73EFDA0EB0801494502D90320BDE87C
:102E6000F087A068696800F00C00B0EB810FEFD12B
:102E70002878800705D5A068A96820F0F0000843ED
:102E8000A060306800F00700B8420BD9306820F02D
:102E9000070038433060306800F00700B84201D0C6
:102EA0000120DCE72878400705D5A068E96820F410
:102EB000E0600843A0602878000706D5A06829696B
:102EC00020F4605040EAC100A06000F03BF8A16827
:102ED000084AC1F30311515C01F01F01C8400649C3
:102EE0000860BDE8F0470020FFF708BD0020024061
:102EF00000100240B06D000804000020054806499B
:102F000000688968054AC1F30221515C01F01F0184
:102F1000C84070470400002000100240F06D000817
:102F20000548064900688968054AC1F3C221515C19
:102F300001F01F01C840704704000020001002404B
:102F4000F06D000870B52549002318468A68CC68E2
:102F500012F00C0204F00306214C4FEA640509D07C
:102F60000C2A05D0042A26D0082A00D1284670BD94
:102F7000012E10D10B681B0704D4D1F89430C3F391
:102F8000032302E00B68C3F30313164E56F82330F5
:102F90007AB10C2AEBD1C86800F00302C868C0F30C
:102FA0000210401C022A08D0032A09D0B3FBF0F01B
:102FB00008E0184670BD204670BDB4FBF0F001E09B
:102FC000B5FBF0F0CA68C968C2F306225043C1F3EA
:102FD0004161491C4900B0FBF1F070BD0010024096
:102FE0000024F400C06D00082DE9F84305007CD0F2
:102FF000FD4CA06800F00C06E06800F0030728789C
:10300000C00661D576B10C2E01D1012F0AD0A86976
:103010000028206878D040F001002060FFF758FCBD
:10302000804659E02068800702D5A8690028DED0D4
:10303000286A2168090703D5216801F0F00104E03E
:10304000D4F89410F02202EA1111884215D902F046
:1030500069F8002849D1206840F008002060206805
:10306000296A20F0F000084320606068E96920F4D4
:103070007F4040EA0120606015E0206840F00800D1
:1030800020602068296A20F0F00008432060606812
:10309000E96920F47F4040EA01206060286A02F07C
:1030A00041F80028D6D1FFF74DFFA168CF4AC1F300
:1030B0000311515C01F01F01C840CD490860002098
:1030C000FFF71CFC00287DD12FE000BFFFF700FCBC
:1030D000A0EB0800022876D820688007F6D5206883
:1030E00040F008002060206801E0BBE00CE0296AA5
:1030F00020F0F000084320606068E96920F47F4018
:1031000040EA0120606010E020F001002060FFF73D
:10311000DFFB804606E000BFFFF7DAFBA0EB08000C
:103120000228D8D820688007F6D42878C00740D075
:10313000082E18D00C2E01D1032F14D06868B0F5DA
:10314000803F17D0B0F5A02F206817D020F4803032
:103150002060206820F4802020606868E0B1FFF7DC
:10316000B7FB804614E02068800322D568680028F9
:1031700078D01EE0206840F48030EDE740F48020F5
:103180002060F7E7FFF7A4FBA0EB08006428A2D8B3
:1031900020688003F6D50CE0FFF79AFB804605E037
:1031A000FFF796FBA0EB0800642894D82068800302
:1031B000F6D4287880073BD5042E11D00C2E04D1EC
:1031C000022F01E036E1A1E00AD0E868002820687B
:1031D0001ED040F480702060FFF77AFB07460CE0B9
:1031E000206840050CD5E8680028C1D008E000BF81
:1031F000FFF76EFBC01B022893D820684005F7D567
:103200006068297C20F0F85040EA016060600FE0BF
:1032100020F480702060FFF75BFB074605E000BFED
:10322000FFF756FBC01B022870D820684005F7D472
:103230002878000729D568690028D4F8940012D0AE
:1032400040F00100C4F89400FFF742FB074604E099
:10325000FFF73EFBC01B022858D8D4F89400800723
:10326000F6D512E0EDE020F00100C4F89400FFF77D
:103270002FFB074605E000BFFFF72AFBC01B022813
:1032800044D8D4F894008007F6D42878400768D54D
:10329000A06D0027C00008D4A06D40F08050A0654C
:1032A000A06D012700F08050009052480168C905C8
:1032B00012D40168814641F480710160FFF708FB78
:1032C000804605E0FFF704FBA0EB080002281DD8AC
:1032D000D9F80000C005F5D5A868012817D0052841
:1032E000D4F8900018D020F00100C4F89000D4F871
:1032F000900020F0040000BFC4F89000A86841F2DC
:103300008839D0B1FFF7E4FA804611E06BE0D4F8D9
:10331000900040F00100EFE740F00400C4F8900096
:10332000F5E700BFFFF7D4FAA0EB080149455AD8EA
:10333000D4F890008007F5D50EE0FFF7C9FA804673
:1033400006E000BFFFF7C4FAA0EB0801494570D8BA
:10335000D4F890008007F5D41FB1A06D20F0805004
:10336000A065A86AF0B30C2E6BD00228206820F06C
:103370008070206004D0206810F0205F47D04AE0C1
:10338000FFF7A6FA064604E0FFF7A2FA801B022820
:103390004FD820688001F7D4286BE96A0001103803
:1033A0000843696BAA6B0902120941EA42410843CA
:1033B000A98F114A490802EB4151084395F8401082
:1033C0004908120102EB41610843E060206840F0C7
:1033D00080702060E06840F08070E060FFF778FA6D
:1033E000054610E02BE024E000100240B06D00081C
:1033F00004000020007000400000E0FFFFF768FAC2
:10340000401B022815D820688001F7D517E0E06836
:1034100020F00300E060E0680B490840E060FFF73F
:1034200057FA054608E000BFFFF752FA401B022892
:1034300002D90320BDE8F88320688001F4D400207D
:10344000F8E70120F6E70000FFFFEEFE10B5401E92
:10345000B0F1807F01D3012010BD4FF0E024606106
:103460000F21601701F034FD0020A06107202061CA
:10347000002010BD10B5040003D094F8710010B105
:1034800007E0012010BD002084F87000204600F005
:1034900027F8242084F871002068016821F00101D8
:1034A0000160204601F0E6FF0128EBD0606A10B110
:1034B000204601F04DFF2068416821F490414160B1
:1034C0002068816821F02A0181602068016841F04C
:1034D000010101602046BDE8104001F09DBF0000E1
:1034E00010B586B0044614216846FDF7A9F91349C2
:1034F0002068884220D11248016E41F48041016663
:10350000016E01F480410591C16C41F00101C1647B
:10351000C06C694600F0010005904FF4C060009057
:1035200002200190002002900320039007200490C5
:103530004FF09040FFF7E2F806B010BD00380140B0
:10354000001002402DE9F843044690F871001F4630
:1035500016460D4620284BD1C5B1BEB194F8700077
:10356000012845D0012084F870004FF00008C4F80D
:103570007480212084F87100FFF7AAF9A4F8506044
:103580008146A4F852604FF4805615E00120BDE852
:10359000F8838021204602F0BDF8D8B9A068B04277
:1035A00001D12069C0B115F8010B21680885B4F874
:1035B0005200401EA4F85200B4F852004B464FF09F
:1035C000000200970028E4D14FF04001204602F0AD
:1035D000A1F830B10320DAE735F8020BC0F3080098
:1035E000E3E7202084F8710084F870800020CEE7A3
:1035F0000220CCE7FEE74218491E521E824202D941
:1036000022EA0100704788437047000003484FF4E6
:103610007A710068B0FBF1F07047000004000020F0
:1036200038B5054D0C4604992D6815B10091214619
:10363000A847002038BD0000C000002070B50D462E
:10364000040008D0FCF76CFE216829402160FCF7DB
:103650006FFE002070BD014870BD0000061C000216
:1036600028B1002102C04060006008467047014850
:1036700070470000061C00022DE9F04117460D4678
:1036800006460024FCF74CFE0146B80704D5306816
:1036900028400ED0044607E05DB1306835EA0002EC
:1036A00007D110EA050404D0F80702D03068A0431F
:1036B00030600846FCF73CFE2046BDE8F081000083
:1036C0002DE9F047984615460F46060009D0B06828
:1036D00050B1706840B157B1B8010BD52F48BDE863
:1036E000F0872E48801DFAE72C48C01DF7E72B48CD
:1036F000801CF4E7A80701D568070AD4E80808D1B8
:1037000015F0060F05D002F061FA28B12348C01C5D
:10371000E5E72248001DE2E7FCF702FE81462A4663
:1037200039463046FFF7A8FF04000BD1B8F1000F6F
:1037300008D01B48008838B14846FCF7F9FD174807
:10374000401DCCE7484625E016484246082104685B
:10375000301DC4E9127503F071F94846FCF7E8FD25
:1037600000F0F4FD207940060AD5FCF7D9FDA188C8
:1037700021F04001A180FCF7DBFD0848401CAEE7CA
:10378000FCF7CEFD80462A4639463046FFF774FFE7
:1037900004464046FCF7CCFD2046A0E7001C000292
:1037A00030000020500000202DE9F0410E460400BA
:1037B0004FF0000708D0A06848B1606838B1B00188
:1037C00008D51C48BDE8F0811A48801DFAE7194861
:1037D000C01DF7E7FCF7A4FD80462068211D30439B
:1037E0002060A068884219D0283812E0C56AC16CF0
:1037F000283D8A0702D5826C324205D1490707D598
:10380000816C2268914303D10127082103F03CF920
:103810002846011B2431E9D1012F03D04046FCF793
:1038200087FD04E04046FCF783FD00F08FFD00209B
:10383000C8E70000001C00022DE9F041FF260A281D
:1038400002D301461FA015E02549002501EB051410
:10385000227882422AD101EB0511496841B188479B
:103860000746607850EA070107D001280CD014E021
:1038700001461CA0FCF726FE1EE004F1080125A06D
:10388000FCF720FE002608E015480126083804F160
:103890000801026825A0FCF715FE642001F0ECF891
:1038A0006078FF28DDD0B042DBD102E06D1C0A2D2C
:1038B000CCD30A2D00D016B10120BDE8F081002044
:1038C000FBE700000D0A496E73706563744944207C
:1038D0003D205B25645D204572722E0D0A000000BC
:1038E00024010020496E73706563744944203D20B3
:1038F0005B25645D204572722C496E73706563743C
:1039000066756E63206973204E554C4C2E0D0A0D62
:103910000A000000496E737065637420257320737C
:103920007563636573730D0A0D0A0000496E737049
:10393000656374202573206572726F722C67496EFF
:103940007370656374457272436E74203D205B250D
:10395000645D0D0A0D0A000010B500220A2802D38A
:1039600001460CA012E0124B03EB021424788442AF
:1039700003D103EB0213597002E0521C0A2AF3D35D
:103980000A2A01D0002010BD01460AA0FCF79AFDCA
:10399000012010BD0D0A496E73706563744944209F
:1039A0003D205B25645D204572722E0D0A000000EB
:1039B000240100200D0A496E737065637449442028
:1039C0003D205B25645D206E6F742066696E642EF9
:1039D0000D0A000000B587B018216846FCF730FFDB
:1039E000094800904FF43470039008A00490092017
:1039F000ADF804006946084800F05EFF002800D0DA
:103A0000012007B000BD00001D3A0008496E737028
:103A100065637454736B00002001002000200A4D80
:103A200028600AA0FCF74EFD0024E0B2FFF704FF77
:103A300010B12868401C2860641C0A2CF5D309A02A
:103A40002968FCF73FFDFEE71C0100200D0A4C6FC2
:103A50007320496E73706563742073746172742E81
:103A60000D0A0000496E737065637420636F6D709A
:103A70006C657465642C67496E7370656374457218
:103A800072436E74203D205B25645D0D0A0D0A00B3
:103A900010B520491020086020491F48086002F036
:103AA00099F8040007D01EA0FCF70CFD21461EA0CB
:103AB000FCF708FD25E002F031FE040004D018A058
:103AC000FCF700FD1FA01AE002F092FE02F0F8FAE7
:103AD000002817D102F088F8002813D102F086F9E7
:103AE000040004D00EA0FCF7EDFC1BA007E002F0E0
:103AF000F7FB040007D00AA0FCF7E4FC1BA0FCF7CE
:103B0000E1FC204610BD03F061F8BDE8104002F072
:103B10003DB8000040000020883C00200800002044
:103B20005B4552525D2000006F734D656D53797394
:103B300074656D496E6974206572726F72202564B8
:103B40000A0000006F735461736B496E69742065DD
:103B500072726F720A0000006F7351756575654966
:103B60006E6974206572726F720A00006F7353770A
:103B7000546D72496E6974206572726F720A00002A
:103B80004268C1E9000242681160416070474268C2
:103B9000C1E9000242681160416070474268C1E9B2
:103BA000000242681160416070474268C1E900024A
:103BB00042681160416070474268C1E90002426892
:103BC000116041607047D0E900121160D0E9001225
:103BD0004A6000214160016070470068FFF7D0BF74
:103BE00070B505000C464FF000000CD0002C0AD038
:103BF000284602F0E8FA002805D121462846BDE80B
:103C0000704001F045BE70BD01F0D2BE70B50C46EB
:103C100005000AD04CB102F007FB012807D021466D
:103C2000284601F0E3FE012801D0012070BD0020EC
:103C300070BD00002DE9F84FDFF898A00F46050091
:103C4000DAF80040A04603D0502F01D9A80702D0CF
:103C5000012000F05DB8FCF763FB8146EE1918E027
:103C6000A068A542204401D8A64203D885420ED2BE
:103C700086420CD318A0FCF725FCA06832462044ED
:103C800000902346294616A0FCF71CFC1BE0A0462A
:103C9000E468002CE4D13946284601F029FF90B1B0
:103CA000B7F5805F03D3284602F0EEFA58B1DAF890
:103CB000001061B1C8F80C500020E8604846FCF7DD
:103CC00037FB0020C5E74846FCF732FBC0E7CAF8DF
:103CD0000050F1E7D40000205B4552525D20000007
:103CE000706F6F6C205B25702C2030782578292030
:103CF000636F6E666C696374207769746820706F97
:103D00006F6C205B25702C2030782578290A000004
:103D100018BCBDE8E08F000070B5041E10D0FCF7A1
:103D2000FFFAE16804F10C0259B10D46096811600F
:103D300006492960A168491CA160FCF7F9FA281D11
:103D400070BDFCF7F5FA002070BD0000A55A5AA519
:103D50000A46002806D0002A04D001681046091F30
:103D6000FCF74CBD7047000070B50C4605004FF0E5
:103D700001060ED06CB1FCF7D3FA02462868241F66
:103D8000C8B1611B1039B1FBF0F300FB131393B9F9
:103D900001E0012070BDB1FBF0F1686881420AD2F8
:103DA00007492068884206D1E8682060EC60A8686E
:103DB000401E0026A8601046FCF7BAFA304670BDD7
:103DC000A55A5AA570B515460E46041E04D01DB15D
:103DD000102E01D3A00701D0012070BDFCF7A0FA7E
:103DE000ED1D25F00301103E2160B6FBF1F100232B
:103DF000C4E9011321B104F110010022E16007E0E0
:103E0000FCF796FAE8E72568521C0D440D60294638
:103E100065686D1E9542F6D80B60FCF789FA0020A4
:103E200070BD000038B5050014D0FCF779FA1749C9
:103E300002460024486888420FD11046FCF778FA01
:103E4000134D144900232A4613A00094FFF7E8FB02
:103E5000284638BD0E48401E38BDD0E90013196011
:103E6000D0E900134B6020F8064C012100F8081D32
:103E700000F108018482C0E9031481604068286071
:103E80001046FCF755FA002038BD0000A0000020C5
:103E9000031D0002F8C3B2A16F735F756E73706586
:103EA00063696669635F66696C6500002DE9F843C4
:103EB0001C4F1D4D4FF000080F2801D33C4616E063
:103EC0001A4900EB4000096801EBC004FCF728FA2E
:103ED00006462078B0B1E06804F10801884201D1BB
:103EE000608898B13046FCF723FA0E4C0834294616
:103EF000002322460EA0CDF80080FFF791FB20465C
:103F0000BDE8F8833046FCF713FAD7E70748001DF1
:103F1000FFF73DFE84F800803046FCF709FA0020E8
:103F2000EEE70000011D0002F8C3B2A19C000020D2
:103F30006F735F756E73706563696669635F6669E9
:103F40006C6500002DE9F84300263D4DDFF8F48054
:103F500089460F2804D300232C462A46009666E0A3
:103F6000394900EB4000096801EBC004FCF7D8F9BF
:103F70000746207848B101F029FE50B13846FCF7D9
:103F8000D7F92F48001DBDE8F8833846FCF7D0F973
:103F9000E1E72E480568608840B12169A9420BD14C
:103FA000401C60803846FCF7C3F946E00120608081
:103FB0002561E888A082F5E7B9F1000F0ED024480A
:103FC000008888B11E4C23A0641DFCF77BFA23A057
:103FD000FCF778FA3846FCF7ABF925E03846FCF7F1
:103FE000A7F91748C01CCEE7EC612069E988C288B0
:103FF0008A4201D902F012FC4A46082104F1080065
:1040000002F01CFD3846FCF793F900F09FF928797F
:10401000400612D5FCF784F9A98821F04001A98057
:10402000FCF786F9064CA41D002322460096414663
:1040300013A0FFF7F5FA2046A5E70020A3E700004C
:10404000011D0002F8C3B2A19C0000205000002016
:10405000300000205B4552525D2000002121214CA0
:104060004F535F4552524E4F5F4D55585F50454E2E
:10407000445F494E5F4C4F434B2121210A00000011
:104080006F735F756E73706563696669635F666998
:104090006C6500002DE9F8432549804600EB480097
:1040A000096801EBC004FCF73BF90026214DDFF85D
:1040B00088900746B8F10F0F08D2207830B11F481A
:1040C0006188026811B1206990420CD03846FCF733
:1040D0002FF900232A46494619A00096FFF7A0FAB7
:1040E0002846BDE8F883491E0904090C618003D005
:1040F0003846FCF71DF919E0C288A18A8A4201D02E
:1041000002F08CFBE06804F108018842F0D0012144
:10411000618028382061C188A1820821C66102F02F
:10412000B3FC3846FCF704F900F010F90020D8E79A
:104130009C000020011D0002F8C3B2A15000002025
:104140006F735F756E73706563696669635F6669D7
:104150006C6500002DE9F0470D4608985FEA0209FA
:1041600000F104018FB206D04FF6FB71884205D9E9
:104170002648BDE8F08725480930FAE7E5B1D8B10F
:10418000DFF88C8005FB07F1D8F80000FFF728FD69
:10419000060014D0FCF7C4F81E4A0146506890424D
:1041A00010D10846FCF7C4F83146D8F80000FFF7F4
:1041B0002DFD1648401CDCE714480A30D9E71348A7
:1041C000401ED6E7D0E90023A0F11C041A60D0E914
:1041D00000235360E5802781012326600022A3800D
:1041E00022826582A281E281A0F1080252601260FF
:1041F000406000600830406000600846FCF798F8B6
:1042000061890020C9F80010B3E70000030600022E
:1042100008000020AC00002070B504460A2801D335
:10422000204870BDFCF77CF81F49054604EB4400AC
:10423000096800EBC40001EB80029088C0B1194C02
:10424000916902F11400E41C814213D1106A02F159
:104250001C0188420ED1936A02F12400834209D1E5
:10426000508A138A1844D388984208D0E41C01E08D
:104270000C4C641D2846FCF75BF8204670BD0020FE
:104280001468106090800848001DFFF787FC2846DE
:10429000FCF74EF8054821460068BDE87040FFF77E
:1042A000B5BC000005060002A800002008000020A0
:1042B0007FB582B01C460D46064604AA01F07CFE7E
:1042C000002806D1042104AB2A463046009401F0B0
:1042D000BBFD06B070BDF8B51C4615460E46074638
:1042E00001F06AFE002806D100212B4632463846EE
:1042F000009401F0A9FDF8BD3FB581B0054604204A
:1043000003901C4603AA2846029901F06FFE00287C
:1043100006D1072103AB02AA2846009401F094FDC0
:1043200005B030BD7FB582B01C460D46064604AAD6
:1043300001F05CFE002806D1032104AB2A4630467A
:10434000009401F081FD06B070BD000010B5FBF7D0
:10435000E7FF044601F0D4FC0A49283848600968A0
:10436000814202D00848008820B12046BDE81040B4
:10437000FBF7DEBF2046FBF7DBFFBDE81040FBF795
:10438000DABF000050000020300000200A464FF63F
:10439000FF7101F047BE00002DE9F8431A4F1B4D95
:1043A0004FF00008142801D33C4612E01849096870
:1043B00001EB0014FBF7B4FF06462088A0B1E068CB
:1043C00004F10801884213D03046FBF7B1FF0E4CD0
:1043D00008342946002322460EA0CDF80080FFF7BE
:1043E0001FF92046BDE8F8833046FBF7A1FFDBE765
:1043F0000748001DFFF7D9FBA4F800803046FBF703
:1044000097FF0020EEE7000001070002F8C3B2A109
:10441000B40000206F735F756E73706563696669C1
:10442000635F66696C6500002DE9F8430026324F32
:10443000DFF8C8808946142804D300233C463A4656
:10444000009650E02E49096801EB0014FBF768FF65
:104450000546208838B1608848B1401E60802846F3
:10446000FBF766FF46E02846FBF762FFE5E7B9F198
:10447000000F09D001F0AAFB48B11F4C21A0241D58
:10448000FCF720F821A00BE01B4CE41C25E0284899
:10449000008840B1184C1BA0641DFCF713F825A040
:1044A000FCF710F819E02C484A460821076804F187
:1044B0000800BC6102F0C2FA2846FBF739FFFFF79B
:1044C00045FF3879400615D5FBF72AFF0546B88821
:1044D000094C20F04000B880A41D2846FBF728FFB7
:1044E00000232246009641461CA0FFF799F820467B
:1044F000BDE8F8830020FBE701070002F8C3B2A182
:10450000B40000205B4552525D2000002121214C67
:104510004F535F4552524E4F5F53454D5F50454E8E
:10452000445F494E544552522121210A00000000A7
:10453000300000202121214C4F535F4552524E4FF5
:104540005F53454D5F50454E445F494E5F4C4F436E
:104550004B2121210A000000500000206F735F757D
:104560006E73706563696669635F66696C65000098
:104570002DE9F8432149224F1428096801EB001462
:1045800002D33846BDE8F883FBF7CAFE064620880A
:10459000DFF87080002588B1A0886188884215D135
:1045A0003046FBF7C5FE164C0023E41D224600955D
:1045B000414615A0FFF734F82046E3E73046FBF705
:1045C000B7FE00233C463A460095F1E7E06804F167
:1045D000080290420BD040F8105C0821283802F005
:1045E00053FA3046FBF7A4FEFFF7B0FE04E0491C87
:1045F00061803046FBF79CFE0020C3E7B40000203A
:1046000001070002F8C3B2A16F735F756E73706526
:1046100063696669635F66696C65000010B502F0E6
:1046200067FA040006D005A0FBF74CFF05A0FBF7D6
:1046300049FF01E0FBF74EFE204610BD5B4552529C
:104640005D2000006F735469636B53746172742052
:104650006572726F720A00002DE9F05F9846DDE91D
:104660000B76DDF828B091460D465FEA000A07D0C8
:104670004DB1012D07D0022D05D0204800F042B8E1
:104680001E48401EFAE7B9F1000F08D0B8F1000F3C
:1046900008D057B1012F08D018480F30EEE717485F
:1046A000801EEBE71548401CE8E7012E03D016B149
:1046B00012481030E2E7FBF733FE11494C69C4B1F0
:1046C00022684A61FBF734FEC4F818906571002037
:1046D00044F80C0BA4E8010C012004F8127C04F847
:1046E000116C04F8140C34F8101CA8F80010002009
:1046F000C4E7FBF71DFE0148801CBFE70203000270
:104700001400002030BCBDE8C09F00002DE9F0413E
:10471000064600254FF6F070DFF85C80864202D333
:104720004046BDE8F081FBF7FBFD1449074606F063
:104730000F000969C0EBC00001EB80042089B04282
:1047400003D03846FBF7F4FDEAE7207950B10128A1
:104750000ED0022809D0084D09353846FBF7E8FD90
:104760002846DEE7044D6D1CF7E7204601F052FFB6
:10477000204601F02FFFF0E705030002140000209F
:104780002DE9F041074600254FF6F070DFF8AC80C8
:10479000874202D34046BDE8F081FBF7C1FD2849BE
:1047A000064607F00F000969C0EBC00001EB80046A
:1047B0002089B84203D03046FBF7BAFDEAE7E17939
:1047C000012923D16179012920D100F00F021D4870
:1047D0000A2350F8221041F0804140F8221022694B
:1047E000B2FBF3F703FB172282B9227A41F00051A2
:1047F00002F00F0240F822102269B2FBF3F2237A92
:1048000062F3170103F00F0340F82310207950B131
:1048100001280ED0022809D0084D09353046FBF793
:1048200087FD2846B7E7054D6D1CF7E7204601F0E8
:10483000F1FE204601F094FDF0E7000005030002C0
:1048400014000020480200202DE9F0410546002414
:104850004FF6F070164F854202D33846BDE8F0811E
:10486000FBF75EFD1349064605F00F000969C0EB32
:10487000C00001EB80000189A94203D03046FBF75C
:1048800057FDEAE7017951B101290BD002290CD07B
:10489000074C09343046FBF74BFD2046DEE7044C5D
:1048A000641CF7E7024C0834F4E701F0B3FEF1E7CB
:1048B000050300021400002070B5044600F034F82F
:1048C000002829D1174D2068C0EBC000E96800EB33
:1048D000400001EB8004FBF723FD0646A08820F092
:1048E000020040F00400A080E18804F1280001F0FB
:1048F000C3F901F005FA05F1200128384860EA699A
:104900005AB12A884AB90968814206D03046FBF775
:104910000FFD01F085FB002070BD3046FBF708FD60
:10492000F9E70000300000202DE9F0470D465FEA6E
:1049300000084FF0FF3A16D0C5B12869C8B1296800
:10494000D1B1AA8846481F2A0BD802D1454A9142C4
:1049500007D14549454AE868511A88420FD940486D
:104960001D30BDE8F0873E48001DFAE73C48801E38
:10497000F7E73B48801CF4E73948401CF1E710B9E1
:104980004FF43470E8600821FEF735FEE860B0F5BA
:10499000987F02D23248C01CE3E7FBF7C1FC064611
:1049A0004FF00009324C10E0A1F128070846FFF74C
:1049B0000AF92F4807F128010838FFF7E1F82A48DB
:1049C000F968FFF723F9C7F80C906168A142EBD1B1
:1049D000274908394868884202D1214C0E3439E011
:1049E000A0F12804FFF7EFF83046FBF7A1FC276998
:1049F00008221D48E968FFF707F9060020D00246A3
:104A00003846E96802F0EAF82060A868E6602062AB
:104A1000E868C4F81890C4F81C900221A060A18036
:104A2000A988E1802968C4F83CA0C4F84890616175
:104A30002969C4F8509061620020C8F8007090E7BE
:104A4000FBF76EFC06460A4804F128010838FFF718
:104A500097F8084C3046FBF76BFC204681E70000D6
:104A600003020002895B0008883C002000800120CE
:104A7000680000200002000370B5054601F0A6F8AA
:104A800008B1154870BD1548008808B1144870BDBC
:104A9000EDB1FBF745FC114C064620342068283068
:104AA00001F0CEF82068818821F004018180294638
:104AB000206801F0D9FD2068818841F020018180C3
:104AC0003046FBF735FCFFF741FC002070BDBDE828
:104AD000704000F069B900000D02000330000020B2
:104AE0000E0200022DE9F047494D07464FF0FF3A0C
:104AF0006869874202D14748BDE8F087A8698742C4
:104B000002D144480D30F7E72869874202D3414873
:104B10000D38F1E7FBF704FC8046C7EBC700E968F6
:104B200000EB400001EB8004A688F00706D0394C6A
:104B300040460A3CFBF7FCFB2046DDE7F0064FF061
:104B4000000903D5288808B1A5F80090700708D59A
:104B500004F1280001F074F8A08820F00400A0807F
:104B600007E042F20800064203D004F12800FFF7F4
:104B70002AF816F0600F02D0204601F0F1FFA0885D
:104B800020F0020040F00100A080C4F83CA0C4F86E
:104B9000489001F0B5F81E4E4FF0010A2036283833
:104BA00070602079C0061FD504F1280106F11800B5
:104BB000FFF713F82869E968C0EBC00000EB40007C
:104BC00001EB8000306007613168A0888880306820
:104BD000E168C160616A4162A4F804A04046FBF745
:104BE000A7FB01F01DFA10E00948A4F804A004F1A5
:104BF00028013030FEF7C4FF0748E168FFF706F8E8
:104C00004046C4F80C90FBF793FB002074E70000CB
:104C10003000002014020002883C002010B5FBF791
:104C20007FFB044A1188491C1180BDE81040FBF746
:104C30007FBB00003000002070B50F2801D91F484D
:104C400070BD1F4DC0EBC00000EB4000E96801EBF8
:104C50008004FBF765FB0646A088C10702D0174C0D
:104C6000E41C03E0810706D4144CA41C3046FBF777
:104C70005FFB204670BD20F0020042F22A41A08076
:104C8000084216D140F00400A080E18804F1280019
:104C900000F0F2FFE86930B13046FBF749FBFFF75F
:104CA00055FB002070BD01F02BF805492031283854
:104CB00048603046FBF73CFBF3E7000007020002C8
:104CC000300000202DE9F041284D064668698642F3
:104CD00002D12748BDE8F081A869864202D1244864
:104CE0000D30F7E72869864202D321480D38F1E7F5
:104CF000C6EBC600E96800EB400001EB8004FBF75F
:104D00000FFB0746A088C10702D0194C0A3C09E0F6
:104D1000810702D5164C0C3C04E0C10607D5298852
:104D200029B1144C3846FBF703FB2046D2E7400775
:104D300007D504F1280000F083FFA08820F00400CC
:104D4000A080A08840F00200A080084820300068C1
:104D50000069B042384604D1FBF7EAFAFFF7F6FAE9
:104D600001E0FBF7E5FA0020B4E700003000002086
:104D7000140200021502000310B5FBF7D1FA09492D
:104D80000A8822B1521E1204120C0A8003D0BDE818
:104D90001040FBF7CDBAFBF7CBFABDE81040FFF7A8
:104DA000D5BA00003000002070B5194CA4F12002E3
:104DB000206812690169914201D3164870BD0079DB
:104DC000400701D4002070BDFBF7AAFA0546206811
:104DD000C08800F083FF012813D920682830FEF72F
:104DE000F2FE2068818841F0040181802068C1883A
:104DF000283000F041FF2846FBF79AFAFFF7A6FAA1
:104E0000E0E72846FBF794FA0248093070BD00003D
:104E100050000020070200020149D1E9000170475B
:104E20008800002010B586B014216846FBF708FD05
:104E30001548C16C41F08001C164C16C01F0800172
:104E40000591C16C41F00201C164C16C01F0020125
:104E50000591C16C41F00101C164C06C0B4C00F0C4
:104E600001000590002203212046FDF72CFD0320C0
:104E7000009001200021CDE90101039169462046FF
:104E8000FDF73CFC06B010BD0010024000040048D5
:104E90000D4810B50B4901604FF4E131416000212C
:104EA00081600C22C160C0E904128161C1610162AC
:104EB0004162FEF7DFFA002803D0BDE81040FCF79E
:104EC000F5B910BD00380140D0010020FEE7704761
:104ED0000907090E002806DA00F00F0000F1E020B3
:104EE00080F8141D704700F1E02080F8001470472E
:104EF0002DE9F041444C05468846E06800268107CC
:104F000028680DD0E16801F00301814216D1A8B1F3
:104F1000E0686968C0F30210401C88420ED120E0AE
:104F2000012804D0022805D0032807D108E0216811
:104F3000890701E021684905002907DB01265FE0B8
:104F40002168890302D421684903F5E7E1686A68AA
:104F50006FF00F0321F0730103EB021211430143C1
:104F6000E160206820F080602060FDF7B1FC07461A
:104F700005E000BFFDF7ACFCC01B022837D8206855
:104F80000001F7D4B8F1000F18D0B8F1010F1ED00E
:104F9000287D4FF07E41400801EB4060A96840EA5F
:104FA00001202169194A114008432061206840F01E
:104FB00080602060FDF78CFC07461AE0A868E9686D
:104FC0000002090940EA41402169114AEBE7288AB9
:104FD0001049400801EB4050A96840EA01202169CE
:104FE0000D4AE0E7FDF774FCC01B022801D9032637
:104FF00006E020680001F5D52069A9690843206111
:105000003046BDE8F081000000100240FF80FFF94B
:10501000FF80FDFF0000E0FFFF809FFF2DE9F041D2
:105020003D4C06468846E0680025810730680DD073
:10503000E16801F00301814216D1A8B1E06871680E
:10504000C0F30210401C88420ED120E0012804D099
:10505000022805D0032807D108E02168890701E06C
:1050600021684905002907DB012551E021688903F2
:1050700002D421684903F5E7E16872686FF00F0315
:1050800021F0730103EB021211430143E160206838
:1050900020F080502060FDF71BFC074605E000BFB4
:1050A000FDF716FCC01B022829D820688000F7D421
:1050B000B8F1000F15D0307C4FF07E41400801EB75
:1050C0004060B16840EA01206169144A1140084318
:1050D0006061206840F080502060FDF7F9FB0746D2
:1050E0000FE0B068F1680002090940EA41406169D7
:1050F0000B4AEBE7FDF7ECFBC01B022801D90325A7
:1051000006E020688000F5D5606971690843606138
:105110002846BDE8F081000000100240FF80FFF942
:10512000FF80FDFFF8B51C4D06460024A86DC000A9
:1051300002D5FDF777FC0DE0A86D40F08050A86522
:10514000A86D00F080500090FDF76CFCA96D21F077
:105150008051A965B0F5007F04D0802E07D94FF0AB
:1051600003040AE0802E08D9A02E01D804E001D162
:10517000022402E0702E00D101240848016821F0C9
:10518000070121430160006800F00700A04201D040
:105190000120F8BD0020F8BD0010024000200240B0
:1051A000704700000648006808B101F08DBC054852
:1051B000D0E90012491C42F10002C0E90012704718
:1051C000780000208800002030B5B9B0442122A822
:1051D000FBF736FB142133A8FBF732FB8821684626
:1051E000FBF72EFB01252804CDE9225002200324E1
:1051F0001221CDE92E51CDE92C040721CDE9301043
:10520000329022A8FDF7F0FE0F20CDE933040024F0
:1052100035943694042133A83794FDF7E3FD6846AE
:1052200000950E94FDF706FC6802FDF7C7FB39B048
:1052300030BD00000D48016841F4700101600C4868
:10524000016841F001010160002181600268094BA1
:105250001A4002608214C260026822F48022026056
:1052600081610249C00380390860704788ED00E021
:1052700000100240FFFFF6EA70B5084C2068401CA1
:105280002060FFF7C9FD054605A02168FBF71AF964
:105290002946BDE8704008A0FBF714B914010020AE
:1052A000675F74696D6572636F756E74313D2564F7
:1052B000202E0D0A000000007469636B5F6C61733F
:1052C00074313D2564202E0D0A00000010B5FFF753
:1052D000A3FD04460B484168491C41600AA0FBF746
:1052E000F1F821460EA0FBF7EDF800210620FEF7AD
:1052F00033FB002804D0BDE810400EA0FBF7E2B855
:1053000010BD000014010020675F74696D65726351
:105310006F756E74323D2564202E0D0A000000006A
:105320007469636B5F6C617374323D2564202E0D6C
:105330000A00000053657420496E73706563742021
:1053400053746174757320457272202E0D0A00002B
:1053500090F82410C90706D001684A68836A22F4CD
:1053600000321A434A6090F82410890706D5016874
:105370004A68C36A22F480321A434A6090F82410C3
:10538000490706D501684A68036B22F480221A4354
:105390004A6090F82410090706D501684A68436BF3
:1053A00022F400421A434A6090F82410C90606D538
:1053B00001688A68836B22F480521A438A6090F8ED
:1053C0002410890606D501688A68C36B22F400524E
:1053D0001A438A6090F82410490611D501684A687A
:1053E000036C22F480121A434A60016CB1F5801FED
:1053F00006D101684A68436C22F4C0021A434A602D
:1054000090F82410090606D501684A68806C22F4D9
:10541000002202434A607047F8B5002604464667FA
:10542000FDF756FA0546206800686FF07E470007D2
:1054300008D52B4600224FF400112046009700F0BB
:1054400069F960B92068006840070AD52B46002238
:105450004FF480012046009700F05CF908B103206A
:10546000F8BD202084F8710084F8720084F8706020
:105470000020F8BD2DE9F0410446016880682369E9
:10548000E669184363691025002733431843954A9A
:105490000B68954E334003430B6020684168E36816
:1054A00021F44051194341602168A069914201D023
:1054B000236A18438B6823F4306303438B608B4B60
:1054C00021688B4899420DD1D0F8880010F0030074
:1054D00006D001285AD0022856D0032859D157E0C7
:1054E000012556E0834B99420BD1D0F8880010F08B
:1054F0000C0047D0042849D0082845D00C2848D1B2
:1055000046E07D4B99420BD1D0F8880010F0300076
:1055100038D010283AD0202836D0302839D137E07A
:10552000764B99420BD1D0F8880010F0C00029D0FA
:1055300040282BD0802827D0C0282AD128E0704BC3
:1055400099420ED1D0F8880010F440701AD0B0F50E
:10555000807F1BD0B0F5007F16D0B0F5407F18D10A
:1055600016E0914215D1D0F8880010F4406009D0BF
:10557000B0F5806F0AD0B0F5006F05D0B0F5406F80
:1055800007D105E0002504E0022502E0042500E043
:1055900008255C4B00264FF4004091423DD135B1C7
:1055A000022D07D0042D07D0082D10D107E0FDF7FC
:1055B000A5FC03E0184602E0FDF7C4FCA8B362684E
:1055C00002EB4201814202D8B0EB023F01D9012730
:1055D00075E0DFF834815DB1022D0CD0042D13D0BD
:1055E000082DF4D150082905401846F1000105E0C6
:1055F000FDF784FC0AE050084449F5E70023FAF778
:10560000EAFEA0F5407156E0FDF79CFC6268010ED1
:105610000302500818187141F0E7E1694FF6EF787E
:1056200081422FD1092DD2D200E048E0DFE805F019
:1056300006092005230505052600C8E7FDF75EFCE1
:1056400001E0FDF76DFC4100D4F8040001EB5001CE
:10565000B1FBF0F080B2A0F110014145B7D84FF690
:10566000F0710140C0F3420001432068C16026E0B0
:1056700027496068EAE7FDF765FCE4E74FF480310D
:105680006068E3E7092DA2D2DFE805F006091E05F0
:105690002205050525009AE7FDF730FC01E0FDF73E
:1056A0003FFC0146606801EB500100BFB1FBF0F028
:1056B00080B2A0F11001414589D82168C8602666F2
:1056C00038466666BDE8F081606803EB5001EDE79F
:1056D000FDF738FCE5E7616800EB5100B0FBF1F045
:1056E000E6E7000000800040F369FFEF003801406A
:1056F000001002400044004000480040004C0040C0
:10570000005000400024F400FFFC0F00000024F4CF
:105710000048E8012DE9F041984617460E46044638
:10572000069D1DE0681C1BD02DB1FDF7D1F8A0EB44
:105730000800A84214D92068016821F4D0710160E2
:105740002068816821F001018160202084F87100C7
:1057500084F87200002084F870000320BDE8F08116
:105760002068C06936EA000004D00020B842D9D0D1
:105770000020F3E70120F9E7FEE730380A2801D2DC
:10578000012070470020704713B54FF6FF730122C8
:1057900069460248FDF7D6FE00981CBDD0010020E6
:1057A00010B5FDF79BF8FFF70FFDFFF73BFBFFF789
:1057B0006FFBFEF76DF908B1012010BDFEF70AF985
:1057C000FEF72CFFFEE710B586B0044614216846AC
:1057D000FBF736F86946204600F0B2F906B010BD76
:1057E0004A0900EB82020068121D884206D901F0C6
:1057F0001F0301211068994088431060704730B53D
:1058000002C81F314B0900210A4614E00468641CD9
:105810000FD00468E34301E05B08491C002BFBD177
:105820004B1E01259D402C43046001EB4210401E9D
:1058300030BD001D521C9A42E8D34FF0FF3030BDFE
:1058400002688A4201D8002070474A0900EB8200B2
:1058500001F01F024068012191400840F4D001206E
:10586000704770B5054601600C4601F11F00C10884
:10587000281DFAF7E5FFE00608D004F01F014FF0FD
:10588000FF308840610905EB8101486070BD000070
:105890002DE9F04100240D462746061E5ED0FAF79A
:1058A0003FFD8046ED1C25F00305706810E041685F
:1058B0004A000CD421F04041A94208D324B16268C7
:1058C00022F040428A4202D90446A94221D000680F
:1058D0000028ECD1ECB3606820F04040401B082861
:1058E00017D9621952F80C0F20F0804042F80409D1
:1058F0006168491B083961F31D00C2E90040214677
:10590000304600F012F928B30260606865F31D00AC
:10591000606054F8040F20F0004040F0804001C463
:10592000144827468168294408318160C268914241
:1059300000D9C1600168491C01607068406820F0AE
:105940004040B0F5806F02D23046FFF73CFF404642
:1059500001E005E00CE0FAF7EBFC3846BDE8F08129
:1059600005A0FAF7AFFD294605A0FAF7ABFDE4E77D
:105970007260CAE7C40000205B4552525D200000FF
:1059800074686572652773206E6F7420656E6F751D
:1059900067682077686F6C6520746F20616C6C6F2E
:1059A00063202578204279746573210A0000000085
:1059B00070B5144628B121B1042C02D3651E2C42C7
:1059C00001D0002070BD2144091FFFF761FF0028AE
:1059D000F8D00119491EA9438842F3D0081A40F0B3
:1059E000004041F8040C084670BD00002DE9F0416C
:1059F00001260C46050018D0BCB154F8040C002850
:105A000002DA20F000400C1A2868A04203D8686827
:105A10000830A0420BD22EA0FAF754FD21462EA04A
:105A2000FAF750FD0020BDE8F0810120FBE7FAF70E
:105A300077FCA4F108020746506840000ED528689C
:105A400090420DD01168814208D3686808308142C5
:105A500004D8284600F069F8904201D0002631E0D1
:105A60005068224B20F0804020F040415060986800
:105A700001F10804844204D8401A0838986000E014
:105A80000246106868B141684900F9D509E05468D8
:105A90002144083161F31D0454606968814200D1DA
:105AA0006A601146284600F040F810B141684C0089
:105AB000EDD51146284600F038F800B1026058686C
:105AC000401C58603846FAF733FC3046ABE700001C
:105AD0005B4552525D20000030782578206F757448
